:020000040800F2
:1000000000000320B9C50008791200087B1200081F
:100010007D1200087F120008811200080000000015
:100020000000000000000000000000008312000833
:1000300085120008000000008712000889120008DD
:1000400009C6000809C6000809C6000809C6000854
:1000500009C6000809C6000809C6000809C6000844
:1000600009C600089112000809C6000809C6000860
:1000700009C6000809C6000809C6000809C6000824
:1000800009C6000809C6000809C6000809C6000814
:1000900009C6000809C6000809C6000809C6000804
:1000A00009C6000809C6000809C6000809C60008F4
:1000B00009C6000809C6000809C6000809C60008E4
:1000C00009C6000809C6000809C6000809C60008D4
:1000D00009C6000809C6000809C6000809C60008C4
:1000E00009C6000809C6000809C6000809C60008B4
:1000F00009C6000809C6000809C6000809C60008A4
:1001000009C6000809C6000809C6000809C6000893
:1001100009C6000809C6000809C6000809C6000883
:1001200009C6000809C6000809C6000809C6000873
:1001300009C6000809C6000809C6000809C6000863
:1001400009C6000809C6000809C6000809C6000853
:1001500009C6000809C6000809C6000809C6000843
:1001600009C6000809C6000809C6000809C6000833
:1001700009C6000809C6000809C6000800000000FA
:1001800009C6000809C6000809C6000809C6000813
:1001900009C6000809C6000809C6000809C6000803
:0C01A000000000000000000009C600087C
:1001B00010B5054C237833B9044B13B10448AFF3A1
:1001C00000800123237010BDA40000200000000067
:1001D00004D7000808B5034B1BB103490348AFF32C
:1001E000008008BD00000000A800002004D700081F
:1001F00001F0FF01102A2BDB10F0070F08D010F8D8
:10020000013B013A8B422DD010F0070F42B3F6D1DB
:10021000F0B441EA012141EA014122F007047FF0F4
:1002200000070023F0E80256083C85EA010586EA4B
:10023000010685FA47F5A3FA87F586FA47F6A5FA87
:1002400087F68EB9EED1F0BC01F0FF0102F0070293
:1002500032B110F8013B013A83EA010313B1F8D13E
:100260000020704701387047002D06BF354603381F
:10027000073815F0010F07D1013015F4807F02BF58
:10028000013015F4C03F0130F0BC0138704700BFA9
:100290004FEA4102B2F1E04324BFB3F5001CDCF1A8
:1002A000FE5C0DD901F0004C4FEAC0024CEA5070E0
:1002B000B2F1004F40EB830008BF20F0010070470F
:1002C00011F0804F21D113F13872BCBF01F0004012
:1002D000704741F480114FEA5252C2F11802C2F144
:1002E000200C10FA0CF320FA02F018BF40F00100C5
:1002F0004FEAC1234FEAD32303FA0CFC40EA0C0077
:1003000023FA02F34FEA4303CCE77FEA625307D1B3
:1003100050EA01331EBF4FF0FE4040F440007047EA
:1003200001F0004040F0FE4040F40000704700BF84
:1003300053B94AB9002908BF00281CBF4FF0FF314C
:100340004FF0FF3000F06EB9ADF1080C6DE904CE4E
:1003500000F006F8DDF804E0DDE9022304B07047A0
:100360002DE9F047089D04468C46002B40F0838021
:100370008A42174647D9B2FA82F242B1C2F120004E
:1003800024FA00F09140974040EA010C94404FEA73
:100390001748230CBCFBF8F61FFA87FE08FB16C1B2
:1003A00043EA014306FB0EF1994209D9FB1806F115
:1003B000FF3080F01981994240F21681023E3B44A1
:1003C0005B1AA4B2B3FBF8F008FB103344EA034411
:1003D00000FB0EFEA64509D93C1900F1FF3380F061
:1003E0000581A64540F2028102383C4440EA0640BD
:1003F000A4EB0E0400261DB1D4400023C5E9004340
:100400003146BDE8F08702B9FFDEB2FA82F2002A77
:1004100050D1CB1B4FEA174E1FFA87F80126B3FBCA
:10042000FEFC210C0EFB1C3341EA034108FB0CF3DC
:100430008B4207D979180CF1FF3002D28B4200F2BF
:10044000E9808446C91AA3B2B1FBFEF00EFB10117D
:1004500043EA014408FB00F8A04507D93C1900F124
:10046000FF3302D2A04500F2D9801846A4EB08045D
:1004700040EA0C40BFE78B4209D9002D00F0B18063
:100480000026C5E9000130463146BDE8F087B3FAE1
:1004900083F6002E4AD18B4202D3824200F2B8800A
:1004A000841A61EB030101208C46002DA8D0C5E918
:1004B000004CA5E7C2F1200320FA03F6974001FAA9
:1004C00002F04FEA174ED9403043030CB1FBFEF661
:1004D0001FFA87F80EFB161143EA014306FB08F1E9
:1004E000994204FA02F409D9FB1806F1FF3C80F0A6
:1004F0008D80994240F28A80023E3B445B1A81B271
:10050000B3FBFEF00EFB103341EA034100FB08F39E
:100510008B4207D9791800F1FF3C73D28B4271D915
:1005200002383944CB1A40EA064678E7C6F1200C77
:1005300003FA06F422FA0CF31C4320FA0CF701FA32
:1005400006F34FEA144E21FA0CF11F433B0CB1FBAA
:10055000FEF91FFA84F80EFB191143EA014109FB69
:1005600008FA8A4502FA06F200FA06F308D9611879
:1005700009F1FF3048D28A4546D9A9F10209214440
:10058000A1EB0A01BFB2B1FBFEF00EFB101147EA6E
:10059000014700FB08F8B84507D9E71900F1FF311A
:1005A0002ED2B8452CD90238274440EA0940A7EB9F
:1005B0000807A0FB02894F45C64649461AD317D003
:1005C0005DB1B3EB0E0267EB010707FA0CFCF240DA
:1005D0004CEA0202F740C5E9002700263146BDE893
:1005E000F0872E4628460BE70646E9E61846FDE664
:1005F0004345E5D2B8EB020E69EB04010138DFE7B1
:100600000846D2E760468DE78146B9E7664675E75A
:1006100030464AE7ACF1020C394413E702383C4457
:1006200024E700BF704700BF86B0002200921F4B36
:10063000196B41F000711963196B01F000710091A1
:1006400000990192196B41F080611963196B01F0F7
:100650008061019101990292196B41F00061196367
:10066000196B01F00061029102990392196B41F03C
:1006700000711963196B01F00071039103990492E1
:10068000196B41F080611963196B01F0806104916D
:10069000049905921A6B42F000621A631B6B03F017
:1006A00000630593059B06B0704700BF0038024009
:1006B00082B000230193084B5A6C42F480425A6482
:1006C0005B6C03F480430193019B044A536843F439
:1006D0000003536002B07047003802400038014008
:1006E000C0F38200013805280AD8DFE800F00305CE
:1006F00009090B07044870470448704704487047CD
:10070000044870470448704748D7000830D70008AD
:100710003CD700081CD7000824D7000808B50E49AC
:1007200000200BF039FF0D4B93F8313013F0010F1F
:100730000DD0012213F0040F0BD001230849002033
:100740000BF02AFF074900200BF026FF08BD00220E
:10075000F0E70023F2E700BF54D70008DC50012087
:100760005CD700087CD7000808B50BF0A9FC002175
:1007700008460BF083FC024900200BF00DFF08BD7A
:1007800080D7000800B589B0002200921D4B196B7C
:1007900041F001011963196B01F001010091009909
:1007A0000192196B41F002011963196B01F002010A
:1007B000019101990292196B41F0040119631B6BBD
:1007C00003F004030293029B022304930592032384
:1007D00006930B2307938623039303A90A4801F08A
:1007E0007BFA4FF46053039303A9084801F074FAAD
:1007F0003223039303A9064801F06EFA09B05DF8AD
:1008000004FB00BF00380240000002400004024028
:100810000008024010B50A4C00224021204601F099
:10082000F9FB142001F0C6FC01224021204601F012
:10083000F1FB4FF4967001F0BDFC002010BD00BF2D
:100840000008024008B501F041F80B4B98420AD865
:100850000A4B984209D80A4B984208D2094B984251
:1008600007D90C2000E0102008BD0420FCE7002080
:10087000FAE70820F8E700BF7FD1F008FFE0F505B0
:1008800000879303BF0E1602002A37D02DE9F041EE
:1008900005460E469046FFF7D5FF074601F084FC5B
:1008A0000446174B1B6913F0010F07D001F07CFCC5
:1008B000031B642BF5D90320BDE8F081EB029BB24A
:1008C000B60106F4F86633431F4347F001070C4BAB
:1008D0001F6101F069FC0446094B1B6913F0010F0D
:1008E00006D001F061FC001B6428F5D90320E3E782
:1008F000034B5B69A8F800300020DDE7012070475A
:1009000000800240002876D070B582B006460024F0
:10091000046044608460C460046107E04FF6FF72C5
:10092000934223D0072B26D00134E4B21F2C5FD88A
:100930000023ADF80630ADF804300DF106020221B7
:100940002046FFF7A1FF054601AA03212046FFF735
:100950009BFF002DE8D10028E6D1BDF80630002B22
:10096000DCD1BDF80420002AD8D1DDE7BDF80410A1
:100970009142D7D1D8E7BDF8043023F00F039BB2E2
:100980004CF2F0029342CFD1012535707470BDF85E
:1009900006307380BDF80430B380B21D00212046BC
:1009A000FFF772FF06F1080229462046FFF76CFFA9
:1009B00006F10A0229462046FFF766FF06F10C02FF
:1009C00004212046FFF760FF06F10E0205212046B4
:1009D000FFF75AFF06F1100206212046FFF754FFE9
:1009E00006F112021F212046FFF74EFF002000E013
:1009F000022002B070BD012070470000F0B589B040
:100A0000054601F0D1FB044602E0642001F0D2FB70
:100A100001F0CAFB001BA84227D203A8FFF772FF10
:100A200006460028F1D1BDF8163003F02403242B2C
:100A3000EBD124490BF0B0FD9DF80D40BDF80E50F0
:100A4000BDF81070BDF81E00FFF74AFE0190009738
:100A50002B4622461C4900200BF09EFD1B4900201E
:100A60000BF09AFD304609B0F0BD03A8FFF74AFF2E
:100A7000C8B917490BF090FD9DF80D50BDF81660F0
:100A8000BDF81E402046FFF72BFE01900094334630
:100A90002A46104900200BF07FFD0C4900200BF086
:100AA0007BFD0126DEE70A4900200BF075FD0A49AF
:100AB00000200BF071FD054900200BF06DFD0126B3
:100AC000D0E700BF54D7000888D700087CD70008BB
:100AD000D0D70008D8D7000838D8000808B50A4B86
:100AE00093F8313013F0010F06D0074B93F83130F3
:100AF00013F0040F04D008BD034803F031FCF4E701
:100B0000014803F075FCF6E7DC50012000B583B026
:100B10000BF0D6FA002108460BF0B0FA104D29462A
:100B200000200BF039FD0F4900200BF035FD0E4C75
:100B3000214600200BF030FD294600200BF02CFD53
:100B40000A490A688B6849680091094900200BF03E
:100B500023FD214600200BF01FFD72B6FEE700BF0B
:100B6000D0D7000868D800087CD7000800380240B9
:100B700080D8000800B595B03022002108A80BF0FD
:100B80009FFD00230393049305930693079301931A
:100B90002D4A116C41F080511164126C02F08052A8
:100BA0000192019A0293294B1A6842F440421A605A
:100BB0001B6803F440430293029B012308934FF404
:100BC0008033099302230E934FF480020F9219226F
:100BD00010924FF4A872119212930423139308A851
:100BE00000F078FB98B90F230393022304930023AA
:100BF00005934FF4A05306934FF4805307930521B8
:100C000003A800F0B3FD80B915B05DF804FB1049EE
:100C100000200BF0C1FC0F4900200BF0BDFC0E4979
:100C200000200BF0B9FCFFF771FF094900200BF021
:100C3000B3FC0A4900200BF0AFFC074900200BF081
:100C4000ABFCFFF763FF00BF0038024000700040BC
:100C5000D0D70008B8D800087CD70008D4D800083E
:100C600030B583B0FFF780FDA34900200BF094FC62
:100C7000A24900200BF090FCA14C214600200BF073
:100C80008BFC01F06BFA9F4D294600200BF084FC91
:100C90009D4900200BF080FC214600200BF07CFCDD
:100CA000FFF768FF294600200BF076FC97490020EB
:100CB0000BF072FC214600200BF06EFC00F050F9A6
:100CC000294600200BF068FC914900200BF064FCE1
:100CD000214600200BF060FCFFF7EAFCFFF752FD15
:100CE000FFF7A2FC294600200BF056FC89490020A2
:100CF0000BF052FC214600200BF04EFCFFF78AFD62
:100D000068B1854900200BF047FC844900200BF0B6
:100D100043FC214600200BF03FFCFFF7F7FE794D26
:100D2000294600200BF038FC7D4900200BF034FCF4
:100D3000734C214600200BF02FFC00F0A7F9294648
:100D400000200BF029FC774900200BF025FC214600
:100D500000200BF021FC00F04FFA294600200BF098
:100D60001BFC714900200BF017FC214600200BF002
:100D700013FC02F0DDFC294600200BF00DFC6B4952
:100D800000200BF009FC214600200BF005FC684810
:100D900001F08AFD044608B102283FD159490020DC
:100DA0000BF0FAFB2246634900200BF0F5FB544997
:100DB00000200BF0F1FBFFF791FEFFF7AFFC41F2D3
:100DC0008830FFF71BFE002837D1FFF787FE5A4C0B
:100DD00020460AF08BFF4B4900200BF0DDFB6379C6
:100DE000009323792268554900200BF0D5FB444934
:100DF00000200BF0D1FB60790BF01CF8F8B14649EC
:100E000000200BF0C9FB62794D4900200BF0C4FBB8
:100E10003B4900200BF0C0FBFFF778FE3E49002065
:100E20000BF0BAFB2246474900200BF0B5FB3449D2
:100E300000200BF0B1FBFFF769FEFFF767FE314DB5
:100E4000294600200BF0A8FB3F4900200BF0A4FB33
:100E50002B4C214600200BF09FFB09F079FC294622
:100E600000200BF099FB394900200BF095FB21463F
:100E700000200BF091FB30480AF0A2FD68B1264932
:100E800000200BF089FB324900200BF085FB214646
:100E900000200BF081FBFFF739FE1A4D2946002098
:100EA0000BF07AFB2B4900200BF076FB144C21460B
:100EB00000200BF071FB0AF0FBF9294600200BF033
:100EC0006BFB254900200BF067FB214600200BF04F
:100ED00063FB294600200BF05FFB204900200BF04C
:100EE0005BFB214600200BF057FB02F0AFFCFFF745
:100EF000F5FD0AF001FAF8E7F0D80008F8D8000884
:100F00007CD7000854D7000800D900080CD9000885
:100F100020D900082CD90008D0D7000848D90008EB
:100F200084D9000894D90008A0D90008ACD90008D9
:100F3000F04F0120B8D9000838000020F4D900088B
:100F400020DA0008D4D9000840DA000850DA000896
:100F500060DA000878DA000888DA00089CDA00080D
:100F60002DE9F0418AB00024059406940794089472
:100F700009940094414B1A6B42F010021A631A6BE9
:100F800002F010020092009A01941A6B42F0800263
:100F90001A631A6B02F080020192019A02941A6B92
:100FA00042F004021A631A6B02F004020292029ADF
:100FB00003941A6B42F001021A631A6B02F00102E9
:100FC0000392039A04941A6B42F002021A631B6B99
:100FD00003F002030493049B294E2246122130465B
:100FE00001F018F8274F22464D21384601F012F83B
:100FF000DFF8948022460121404601F00BF80122DF
:101000001146304601F006F8082305934FF4881383
:101010000693079405A9304600F05EFE132305935E
:10102000012506950794089405A9304600F054FE62
:101030000D23059306950794089405A9384600F0FA
:101040004BFE059506950794089405A9404600F0C7
:1010500043FE4023059306950794089505A9384655
:1010600000F03AFE22462146092000F0F9FF09204F
:1010700001F02AF80AB0BDE8F08100BF0038024054
:1010800000100240000802400000024008B50E486F
:101090000E4B03604FF48273436000238360C36090
:1010A0000361012242614FF4007282612022C26119
:1010B0000362436283620A23C36201F0BBFD00B98D
:1010C00008BDFFF723FDFBE7880401200034014041
:1010D00000B589B000230393049305930693079307
:1010E0000268154B9A4202D009B05DF804FB002259
:1010F000019203F58233596C41F400515964596CE3
:1011000001F40051019101990292196B41F0100113
:1011100019631B6B03F010030293029B6423039378
:10112000022304930592032306930523079303A93F
:10113000024800F0D1FDD7E7003401400010024022
:1011400008B50268064B9A4200D008BD054A536CA8
:1011500023F4005353646421034800F0B5FEF4E720
:101160000034014000380240001002400268094B80
:101170009A4200D0704782B000230193064B1A6C4C
:1011800042F002021A641B6C03F002030193019BFC
:1011900002B07047000400400038024000B587B03C
:1011A0000023019302930393049305930268104B69
:1011B0009A4202D007B05DF804FB0021009103F5CC
:1011C0000D331A6B42F001021A631B6B03F001032B
:1011D0000093009B40230193022302930391032277
:1011E0000492059301A9034800F076FDE2E700BFF1
:1011F000000400400000024000B58BB000230893BB
:101200000993019302930393049305930693079321
:101210001748184A0260436083604FF6FF72C2604D
:101220000361836101F0A2FFC8B900230893099309
:1012300008A90F4802F06CF8A0B9602301930523B8
:10124000029300220392059201A9094801F0F2FFDE
:1012500058B90748FFF7A2FF0BB05DF804FBFFF792
:1012600055FCE2E7FFF752FCE7E7FFF74FFCF0E73A
:10127000E004012000040040FEE7FEE7FEE7FEE791
:10128000FEE770477047704708B500F081FF08BD62
:1012900008B5082000F0C4FE08BD000082B000219F
:1012A00000910B4B5A6C42F480425A645A6C02F41F
:1012B00080420092009A01911A6C42F080521A64A6
:1012C0001B6C03F080530193019B02B0704700BF79
:1012D00000380240002800F0DF8170B582B004467B
:1012E000036813F0010F3BD0A64B9B6803F00C037F
:1012F000042B2CD0A34B9B6803F00C03082B21D0AC
:101300006368B3F5803F4FD0B3F5A02F52D09D4B0B
:101310001A6822F480321A601A6822F480221A6055
:101320006368002B50D000F03FFF0546954B1B68CB
:1013300013F4003F14D100F037FF401B6428F5D9A7
:101340000320B0E18F4B5B6813F4800FD8D08D4B36
:101350001B6813F4003F03D06368002B00F09E81EC
:10136000236813F0020F54D0864B9B6813F00C0FC8
:101370003ED0844B9B6803F00C03082B33D0E3680A
:10138000002B67D0804B01221A6000F00DFF05464C
:101390007C4B1B6813F0020F53D100F005FF401B7C
:1013A0000228F5D903207EE1764A136843F480339E
:1013B0001360B5E7734B1A6842F480221A601A680A
:1013C00042F480321A60ABE700F0EEFE05466D4B4A
:1013D0001B6813F4003FC3D000F0E6FE401B6428F6
:1013E000F5D903205FE1674B5B6813F4800FC6D12A
:1013F000644B1B6813F0020F03D0E368012B40F02D
:101400004F81604A136823F0F803216943EAC1035E
:101410001360236813F0080F40D0636963B35B4B1C
:1014200001221A6000F0C0FE0546564B5B6F13F0B8
:10143000020F33D100F0B8FE401B0228F5D903207B
:1014400031E1504A136823F0F803216943EAC103EC
:101450001360DEE74C4B00221A6000F0A5FE054643
:10146000484B1B6813F0020FD3D000F09DFE401BC9
:101470000228F5D9032016E1444B00221A6000F03F
:1014800093FE05463F4B5B6F13F0020F06D000F052
:101490008BFE401B0228F5D9032004E1236813F0DA
:1014A000040F78D0374B1B6C13F0805F0DD10023F5
:1014B0000193344B1A6C42F080521A641B6C03F097
:1014C00080530193019B012500E00025304B1B68F0
:1014D00013F4807F21D0A368012B32D0052B36D0A6
:1014E000284B1A6F22F001021A671A6F22F00402C9
:1014F0001A67A368002B34D000F056FE0646214B35
:101500001B6F13F0020F45D100F04EFE801B41F21D
:1015100088339842F3D90320C5E01D4A136843F489
:101520008073136000F040FE0646194B1B6813F4ED
:10153000807FD0D100F038FE801B0228F5D903202F
:10154000B1E0104A136F43F001031367D1E70D4B6D
:101550001A6F42F004021A671A6F42F001021A670A
:10156000C7E700F021FE0646064B1B6F13F0020F83
:1015700010D000F019FE801B41F288339842F3D955
:10158000032090E00038024000004742800E4742AE
:1015900000700040EDB9A369002B00F08380494A38
:1015A000926802F00C02082A51D0022B17D0464B49
:1015B00000221A6000F0F8FD0446424B1B6813F04D
:1015C000007F42D000F0F0FD001B0228F5D9032077
:1015D00069E03C4A136C23F080531364DBE73A4B19
:1015E00000221A6000F0E0FD0546364B1B6813F040
:1015F000007F06D000F0D8FD401B0228F5D903205B
:1016000051E0E369226A1343626A43EA8213A26AE1
:101610005208013A43EA0243E26A43EA0263294A72
:101620005360294B01221A6000F0BEFD0446254B91
:101630001B6813F0007F06D100F0B6FD001B0228E6
:10164000F5D903202FE000202DE000202BE0012B16
:101650002BD01C4B5B6803F48001E269914226D1D8
:1016600003F03F02216A8A4223D1616A47F6C072C1
:101670001A40B2EB811F1ED103F44031A26A520816
:10168000013AB1EB024F18D103F07063E26AB3EB99
:10169000026F14D1002006E001207047012002E013
:1016A000012000E0002002B070BD0120FBE7012016
:1016B000F9E70120F7E70120F5E70120F3E7012032
:1016C000F1E700BF0038024060004742F8B5244B04
:1016D0009B6803F00C03042B3DD0082B3DD1204B1D
:1016E0005A6802F03F025B6813F4800F12D01C4B63
:1016F0005968C1F3881100231A48A1FB0001FEF7C5
:1017000017FE174B5B68C3F3014301335B00B0FB6B
:10171000F3F023E0124B5B68C3F388135C010025F0
:10172000E41A65F10005AE0146EA9466A701381B8C
:1017300066EB0501CC0044EA5074C500E81844F19A
:1017400000018B0243EA905384022046194600238D
:10175000FEF7EEFDD5E7034800E00348F8BD00BF03
:101760000038024040787D010024F400002800F099
:101770009B8070B50D4604464F4B1B6803F00F036A
:101780008B4208D2CBB24C4A1370136803F00F039C
:101790008B4240F08B80236813F0020F17D013F0B8
:1017A000040F04D0454A936843F4E05393602368E0
:1017B00013F0080F04D0414A936843F460439360E8
:1017C0003E4A936823F0F003A1680B4393602368BB
:1017D00013F0010F32D06368012B21D09A1E012A29
:1017E00025D9364A126812F0020F61D033498A684F
:1017F00022F0030213438B6000F0D6FC06462F4B09
:101800009B6803F00C036268B3EB820F16D000F004
:10181000CBFC801B41F288339842F0D9032042E090
:10182000264A126812F4003FE0D101203BE0234A2F
:10183000126812F0007FD9D1012034E01E4B1B68E2
:1018400003F00F03AB4207D9EAB21B4B1A701B68B7
:1018500003F00F03AB422DD1236813F0040F06D021
:10186000164A936823F4E053E1680B4393602368BE
:1018700013F0080F07D0114A936823F460432169DD
:1018800043EAC1039360FFF721FF0C4B9B68C3F34E
:1018900003130B4AD35CD8400A4B18600A4B1868F4
:1018A00000F036FC002070BD012070470120FAE7EF
:1018B0000120F8E70120F6E7003C02400038024032
:1018C000ACDA00082800002024000020014B186832
:1018D000704700BF2800002010B40A490C6924F4A6
:1018E00040740C610C6944F440740C610C6944F060
:1018F00001040C610260BFF36F8F43605DF8044B1D
:10190000704700BF003C0240074B1A6922F4407246
:101910001A611A6942F400721A611A6942F00102EE
:101920001A610160704700BF003C0240074B1A6912
:1019300022F440721A611A6942F480721A611A69BB
:1019400042F001021A610180704700BF003C024072
:10195000064B1A6922F440721A611A691A611A69EF
:1019600042F001021A610170704700BF003C024062
:10197000274BDB6813F0100F07D0264AD36943F0DA
:101980001003D361224B1022DA60214BDB6813F085
:10199000200F07D01F4AD36943F00803D3611C4BC3
:1019A0002022DA601A4BDB6813F0400F07D0194A87
:1019B000D36943F00403D361154B4022DA60144B22
:1019C000DB6813F0800F07D0124AD36943F002039B
:1019D000D3610F4B8022DA600D4BDB6813F4807FFC
:1019E00008D00C4AD36943F00103D361084B4FF48C
:1019F0008072DA60064BDB6813F0020F07D0054AED
:101A0000D36943F02003D361014B0222DA607047AF
:101A1000003C024000000020094B1B69002B01DB49
:101A200000207047064B074A5A6002F188325A601C
:101A30001B69002B01DB002070470120704700BFAD
:101A4000003C024023016745034A136943F0004309
:101A500013610020704700BF003C024038B50446C7
:101A6000144B0022DA6100F09FFB0546124BDB6845
:101A700013F4803F0AD0B4F1FF3FF7D024B100F057
:101A800093FB401BA042F1D903200DE00A4BDB6819
:101A900013F0010F02D0084B0122DA60064BDB681D
:101AA00013F4F97F01D1002038BDFFF761FF012059
:101AB000FAE700BF00000020003C0240F8B51646DF
:101AC0001B4A127E012A30D004460D461F46184B91
:101AD00001221A764CF25030FFF7C0FF90B9ACB13A
:101AE000012C18D0022C1BD032463B462846FFF76B
:101AF000F3FE4CF25030FFF7B1FF0E4A136923F0AA
:101B0000010313610A4B00221A76F8BDF1B2284690
:101B1000FFF71EFFEDE7B1B22846FFF707FFE8E742
:101B200031462846FFF7F0FEE3E70220EDE700BF6D
:101B300000000020003C0240114A136923F4407366
:101B4000136103290ED0012913D00D4A136943F400
:101B5000004313610A4A136943EA002040F48030CD
:101B600010617047136943F4004343F004031361A9
:101B7000F0E7034A136943F004031361EAE700BF87
:101B8000003C024010B449B1012924D0022902D0FE
:101B90004FF4407403E04FF4007400E000240B287D
:101BA00000D904300D4B196921F4407119611A698B
:101BB00022431A611A6922F0F8021A611A6942EA8C
:101BC000C00040F0020018611A6942F480321A61C4
:101BD0005DF8044B70474FF48074E0E7003C02402E
:101BE000164B1B6813F4007F10D0144B1A6822F4B4
:101BF00000721A601A6842F400621A601A6822F4CD
:101C000000621A601A6842F400721A600B4B1B687B
:101C100013F4806F10D0094B1A6822F480621A60A6
:101C20001A6842F480521A601A6822F480521A60CC
:101C30001A6842F480621A60704700BF003C02409C
:101C4000F8B5234B1B7E012B40D004460E46204B9B
:101C500001221A764CF25030FFF700FF074680BB96
:101C60004FF0FF3333602368012B16D0A568E3687B
:101C7000A2681344AB4222D9217C2846FFF782FF99
:101C80004CF25030FFF7EAFE124A136923F0FA03D0
:101C90001361074690B90135E9E76168207CFFF7D9
:101CA0004BFF4CF25030FFF7D9FE0746094A136943
:101CB00023F4004323F00403136100E03560FFF7D1
:101CC0008FFF034B00221A763846F8BD0227FBE748
:101CD00000000020003C024000230F2B00F2EA80AD
:101CE000F0B482B05EE086685F000324BC4026EA60
:101CF0000406CC68BC4034438460466826EA020689
:101D00004C68C4F300129A403243426058E0DC0849
:101D1000083450F8247003F0070296000F22B240F6
:101D200027EA02070A69B2403A4340F824205BE000
:101D3000092200E00022B2403A4302345E4E46F8E7
:101D400024205E4A9468EA4324EA05064F6817F4A3
:101D5000801F01D045EA0406584CA660E46802EAF8
:101D600004064F6817F4001F01D045EA0406534CDF
:101D7000E660646802EA04064F6817F4003F01D089
:101D800045EA04064D4C6660246822404E6816F40D
:101D9000803F01D045EA0402484C226001330F2BFA
:101DA00000F2858001229A400C6804EA020532EABA
:101DB0000404F3D14C6804F00304013C012C92D9D3
:101DC0004A6802F00302032A09D0C4685E000322B5
:101DD000B24024EA02048A68B2402243C2604A68E0
:101DE00002F00302022A92D004685E000322B2408D
:101DF00024EA02044A6802F00302B240224302606D
:101E00004A6812F4403FC9D0002201922C4A546C17
:101E100044F480445464526C02F480420192019A6A
:101E20009C08A61C244A52F8267003F00302960070
:101E30000F22B24027EA0207224A90423FF47AAFCB
:101E400002F58062904222D002F58062904220D05A
:101E500002F5806290421ED002F5806290421CD052
:101E600002F5806290421AD002F58062904218D04A
:101E700002F58062904216D002F58062904214D042
:101E800002F5806290423FF453AF0A2253E70122E9
:101E900051E702224FE703224DE704224BE70522D8
:101EA00049E7062247E7072245E7082243E702B051
:101EB000F0BC7047704700BF00380140003C014053
:101EC000003802400000024000230F2B00F29B80EC
:101ED000F0B52DE0092600E0002606FA04F4AC4235
:101EE00075D005685C00032606FA04F425EA0405AB
:101EF000056023FA06F5083550F8256003F007075A
:101F00004FEA870C0F2707FA0CF726EA070640F876
:101F10002560C56825EA0405C560456825EA020212
:101F20004260826822EA0404846001330F2B69D87E
:101F300001229A4002EA010732EA0104F5D14FEA90
:101F4000930C0CF10205304C54F8255003F00304B7
:101F5000A4000F2606FA04FE0EEA05052B4EB04239
:101F6000BAD006F58066B04221D006F58066B04250
:101F70001FD006F58066B0421DD006F58066B042DF
:101F80001BD006F58066B04219D006F58066B042D7
:101F900017D006F58066B04215D006F58066B042CF
:101FA00013D006F58066B04294D00A2695E7012644
:101FB00093E7022691E703268FE704268DE705269F
:101FC0008BE7062689E7072687E7082685E7104C72
:101FD000256825EA07052560656825EA0705656027
:101FE000E56825EA0705E560A56825EA0707A76013
:101FF000054D0CF1020455F8246026EA0E0645F85A
:1020000024606EE7F0BD70470038014000000240D8
:10201000003C01400AB18161704709048161704749
:1020200008B5054B5B69034200D108BD024B5861FE
:1020300008F0C0FDF9E700BF003C0140074AD36843
:1020400023F4E0631B041B0C000200F4E060034374
:1020500043F0BF6343F40033D360704700ED00E00A
:1020600030B4174BDB68C3F30223C3F10704042C1D
:1020700028BF04241D1D062D18D9033B4FF0FF3542
:1020800005FA04F421EA0401994005FA03F322EA6F
:102090000303194300280BDB0901C9B200F16040BA
:1020A00000F5614080F8001330BC70470023E5E77D
:1020B00000F00F000901C9B2024B1954F4E700BF48
:1020C00000ED00E014ED00E0002807DB00F01F0247
:1020D000400901239340024A42F82030704700BF74
:1020E00000E100E00138B0F1807F0AD2064B586071
:1020F000064AF02182F823100020986007221A6017
:1021000070470120704700BF10E000E000ED00E0E4
:1021100010B504460E4B18784FF47A73B3FBF0F306
:102120000C4A1068B0FBF3F0FFF7DCFF68B90F2C26
:1021300001D901200AE0002221464FF0FF30FFF7CD
:102140008FFF054B1C60002000E0012010BD00BF88
:1021500020000020280000202400002008B50B4BA0
:102160001A6842F400721A601A6842F480621A60B7
:102170001A6842F480721A600320FFF75FFF0F2095
:10218000FFF7C6FFFFF78AF8002008BD003C0240B9
:10219000034A1168034B1B780B441360704700BF60
:1021A0002805012020000020014B1868704700BF5F
:1021B0002805012038B50446FFF7F6FF0546B4F1BF
:1021C000FF3F02D0044B1B781C44FFF7EDFF401B80
:1021D000A042FAD338BD00BF200000202DE9F04115
:1021E00082B0054600230193D0F8688008F11203FD
:1021F00050F82340C66E012712E001A801F04CFA06
:10220000019B43B32362A3600FE06B6943F48043F7
:10221000636015E003F1120255F82240013E984632
:10222000DEB1D7B1236A002BE7D0002FF8D0AB6D19
:10223000002BEAD16B6943F0004343F480436360B1
:10224000236843F00043236008F10103032BE1D925
:10225000A8F10303DEE70027E2E7EB6EB34211D0FB
:1022600008F1030303F00303BFF35F8F2A6903EB55
:10227000830302EBC303296841F208028B50C5F8BF
:102280006880EE6602B0BDE8F081000050791379F5
:1022900043EA002307480B50D07893781B0443EAA5
:1022A0000063507843EA002312781343024A8B50AC
:1022B000704700BF408002404480024070B400225A
:1022C0000BE0C668551C05EB850506EBC505DD6012
:1022D0000B5943F440030B510132032A16D8C1684D
:1022E00002EB8203DC0001EBC30300250D515D60AE
:1022F0009D60DD60951D40F825300D5945F4801531
:102300000D51022ADDD9C568DD60E1E70023836253
:10231000C168026841F21003D15070BC704730B4FC
:10232000002207E00469511C01EB810104EBC101AB
:10233000D9600132032A20D8046902EB8203DD0050
:1023400004EBC3030021615159609960D96019629F
:1023500059624FF000416151416941F48041596037
:10236000596821F00041596002F1120140F8213012
:10237000022AD7D90169D960DBE70023C365036668
:102380008366C36683650169026841F20C03D1501C
:1023900030BC70472DE9F041876A00EB87039B69E9
:1023A0008D681C68002CC0F2BD8090463C1D00EB7F
:1023B0008404E469002C40F0B7802C689C605C6861
:1023C00024F4FF5424F01F046E6834435C600C68EE
:1023D00014F0010F05D01C6824F440044E69344306
:1023E0001C600C6814F0200F05D01C6824F04064B9
:1023F0000E6934431C60096811F0040F03D019689A
:1024000041F080011960196841F080511960BE46A1
:102410004FF0000C012628E0196821F08041196076
:1024200030E000EB84039B691968002931DB211D32
:1024300000EB8101C96961BB196821F08051196005
:102440000136AD6829689960596821F4FF5121F07F
:102450001F016A68114359600CF1010CBFF35F8FD3
:10246000196841F000411960A646A96859B3196876
:1024700021F000511960B8F1000FCDD0196841F07A
:10248000804119600EF10104032CCAD9AEF1030496
:10249000C7E700EB87039969002204E000EB8301A2
:1024A000896901321F46B2420AD2BFF35F8F0B68BF
:1024B00023F000430B607B1C032BEFD9FB1EEDE7E1
:1024C0000220BDE8F081B8F1000F26D01A6842F072
:1024D00080421A601A6842F000521A6000EB8707C7
:1024E000BA69BFF35F8F136843F000431360C26B98
:1024F0000EF1040300EB8303DA61C0F828E0EFF388
:102500001082012383F31088036C9C440CF10103B7
:10251000036482F310880020D3E71A6822F0804217
:102520001A60D7E70220CCE70220CAE770B505465B
:102530000C46026813683C491940A37B5B06207C6B
:10254000002861D14FF400000343607C00285DD176
:102550004FF480000343A0680343E07F43EA004355
:1025600060690343A07F002852D14FF40050034319
:10257000207F43EA0033A0690343207943EA8023A4
:1025800094F82000002845D14FF400700343E07B0D
:1025900043EAC013606A034394F8280043EA001337
:1025A0000B4313602B681E680120FFF703FE2B68A6
:1025B0001E6029688A6922F0BE021204120CA36C04
:1025C0001B0494F84C0038BB80200343206D034368
:1025D00094F85500012821D00020034394F85600B8
:1025E00001281DD00020034394F85400012819D07D
:1025F0000020034313438B612B689C690120FFF784
:10260000D9FD2B689C6170BD00209DE70020A1E7EB
:102610000020ACE70020B9E70020D6E70820DCE77F
:102620000420E0E70220E4E70F8120FDF8B505462D
:102630000C46026841F21803D35829491940237BFC
:10264000002B49D14FF08063607B43EA4063607F99
:10265000002843D14FF480100343A07B43EA40534A
:1026600060690343207F43EAC013A07F43EA8013DD
:10267000206A034394F8240043EA80030B4341F2A9
:10268000180693512B689F590120FFF793FD2B6883
:102690009F512279A36843EA4263A26913432269E6
:1026A000134394F8252043EAC213A26A43EA820343
:1026B000226813432A6843F4000302F58052136032
:1026C0002B6803F580531C680120FFF773FD2B680E
:1026D00003F580531C60F8BD0023B5E70020BBE77D
:1026E000233FDEF870B5A4B0064601258DF83C50B6
:1026F0008DF83D5000240D948DF84B408DF84A50D4
:102700008DF848408DF83A508DF830508DF84C4097
:102710008DF83B4014948DF854401D948DF878400A
:102720001F948DF882408DF880404FF480431093C1
:102730004FF4006311938DF881400BA9FFF7F6FE6B
:102740008DF80C508DF80D508DF81D508DF80E50F1
:1027500005948DF81C408DF81E4008948DF8245087
:102760008DF804504FF4803302934FF480030693A6
:102770004FF4005304938DF825500A940094694651
:102780003046FFF753FF24B070BD30B583B0044628
:1027900000230193026841F21805535943F4801352
:1027A000535103685B5901930120FFF703FD236830
:1027B000019A5A5103B030BD7047000000286CD018
:1027C00030B583B00446D0F88430002B34D00023D9
:1027D0000193334B5A6C42F480425A645B6C03F4AD
:1027E00080430193019B2F4B5A6822F400025A60E8
:1027F0005A68A1680A435A605B68236803F58053EE
:102800001A6842F001021A60FFF7CEFC0546236801
:1028100003F580531B6813F0010F13D0FFF7C4FCBE
:10282000401BB0F5FA7FF2D90423C4F88830E023C6
:10283000C4F8843001202EE02023C0F88430FFF754
:10284000BBFFC4E72046FFF74DFF2046FFF736FDEC
:102850002046FFF764FD626800212046FFF716FD61
:102860002268D36B43F40273D3632268D2F80C312D
:1028700043F4003343F06003C2F80C312268D2F80D
:10288000103143F40313C2F810310020C4F888005B
:102890001023C4F8843003B030BD0120704700BF5E
:1028A000003802400038014038B5D0F88430102B91
:1028B00001D0012038BD04462023C0F88430042311
:1028C000C366FFF78BFC2268136843F008031360AC
:1028D00023681D680120FFF76DFC23681D602268D6
:1028E000136843F00403136023681D680120FFF799
:1028F00061FC23681D602046FFF747FF216841F215
:102900001803CA5842F40052CA502168CA5842F00B
:102910000202CA504023C4F884300020CAE7F8B548
:10292000044631B11546D4F88430402B09D001203B
:10293000F8BDD0F8883043F00103C0F8883001209A
:10294000F6E700222046FFF725FD002835D1BFF32A
:102950004F8FA36A9A1D54F822600133A362032BA0
:1029600001D9043BA362A36A2268063354F82310FA
:1029700041F20403D150FFF717FC07463368002BE0
:1029800030DA236841F214029A5812F4005F1CD125
:10299000B5F1FF3FF2D0FFF707FCC01BA84201D8FA
:1029A000002DEBD1D4F8883043F00403C4F888300C
:1029B0004FF0405333600120BAE7D4F8883043F039
:1029C0000203C4F888300120B2E7D4F8882042F02E
:1029D0000802C4F8882041F214029B58C4F88C30D5
:1029E0000120A5E70020A3E72DE9F84F044681B1B7
:1029F0008A46D0F88430402B6CD1C76D07F11203A2
:102A000050F82350C36EC3F104094FF00008464646
:102A100034E0D0F8883043F00103C0F8883001205A
:102A200059E02B6813F4007F02D00023236663660D
:102A30002B68C3F30D4B2B6813F4807F03D02B68F6
:102A400023674FF00108AA682A625B4604F18001FF
:102A500004F17C0000F046FE236E01332366636EB2
:102A60005B44636600232B627B1C032B00D9FB1E97
:102A700003F1120254F8225001361F462B68002B36
:102A800014DB4E4512D2B8F1000F0FD12B6813F4AE
:102A9000807F03D0EB69A367AB6963672B6813F48E
:102AA000007FBED1E36F002BBBD1DDE7E36E1E4498
:102AB000E6662EB9E765B8F1000F05D101200AE0FE
:102AC0002046FFF78BFBF5E7E36FCAF800300020E4
:102AD000E06700E00120BDE8F88F00002DE9F04735
:102AE00082B00546884617461E46FFF75DFB0A9BE7
:102AF0001B1A03EB0609FFF757FB82462A4B1B689C
:102B0000C3F3CB3309FB03F301932B689C6838EACA
:102B100004030CBF01240024BC4240D0B6F1FF3FA7
:102B2000F3D0FFF741FBA0EB0A00484506D2B9F10C
:102B3000000F03D0019B73BB9946E6E72A685368F0
:102B400023F0E00353606B68B3F5827F0BD0AB6A70
:102B5000B3F5005F14D0012385F85130002385F8C8
:102B6000503003201CE0AB68B3F5004F02D0B3F542
:102B7000806FECD12A68136823F040031360E6E706
:102B80002A68136823F4005313602A68136843F417
:102B900000531360DFE7019B013B0193B5E7002081
:102BA00002B0BDE8F08700BF2800002070B584B0F7
:102BB00004460D46164600920B4601220221FFF7FD
:102BC0008DFFE0B90146194B1B68194AA2FB03238C
:102BD0005B0D4FF47A7202FB03F303936368B3F562
:102BE000827F12D0039B3BB1039B013B039323687D
:102BF0009B6813F0800FF5D1084604B070BD636D7B
:102C000043F0200363650321F6E700962B4600227C
:102C100080212046FFF762FF01460028ECD0636D5B
:102C200043F0200363650321E6E700BF280000208E
:102C3000819F5E1600285AD010B50446436A33B906
:102C40004368B3F5827F05D00023C36102E000230F
:102C5000036143610023A36294F85130002B40D0FC
:102C6000022384F851302268136823F04003136074
:102C7000636803F48273A26802F404421343E268B7
:102C800002F400621343226902F0020213436269F4
:102C900002F001021343A26902F400721343E269D5
:102CA00002F038021343226A02F080021343A26A40
:102CB00002F40052216813430B60638B03F004039A
:102CC000626A02F01002216813434B602268D369E4
:102CD00023F40063D36100206065012384F8513040
:102CE00010BD84F850302046FEF7F2F9B8E7012015
:102CF000704790B110B50446022380F85130026845
:102D0000136823F040031360FEF71AFA0020606591
:102D100084F8510084F8500010BD012070472DE95F
:102D2000F04383B00446884691461F460A9DFFF74C
:102D30003BFA064694F85130DBB26268012B0AD0A8
:102D4000B2F5827F40F00581A268002A40F005813B
:102D5000042B40F00481B8F1000F00F00281B9F1BA
:102D6000000F00F00081002F00F0FF8094F8503039
:102D7000012B00F0FC80012384F8503094F851308E
:102D8000DBB2042B02D0052384F8513000236365A5
:102D9000C4F83890E787A787C4F83080E786A7860D
:102DA0002364636423681A6812F0400F03D11A6821
:102DB00042F040021A60E368B3F5006F11D0636817
:102DC0000BB1012F0BD1226B236812781A73236B7E
:102DD00001332363E38E9BB2013B9BB2E386012761
:102DE00071E063680BB1012F0BD1226B236812884D
:102DF000DA60236B02332363E38E9BB2013B9BB209
:102E0000E38601271BE023689A6812F0010F0ED0B9
:102E1000E28F92B25AB1DA68A36B1A80A36B0233C5
:102E2000A363E38F9BB2013B9BB2E3870127FFF7CC
:102E3000BBF9801BA84202D3B5F1FF3F1ED1E38E40
:102E40009BB21BB9E38F9BB2002B62D023689A68B8
:102E500012F0020FD7D0E28E92B2002AD3D0002F08
:102E6000D1D0226B1288DA60236B02332363E38EA6
:102E70009BB2013B9BB2E3860027C4E7012384F8A1
:102E80005130002384F85030032063E023689A68AF
:102E900012F0010F0ED0E28F92B25AB1DA68A36B32
:102EA0001A70A36B0133A363E38F9BB2013B9BB208
:102EB000E3870127FFF778F9831BAB4202D3B5F113
:102EC000FF3F1ED1EDB1E38E9BB213B9E38F9BB2EE
:102ED000FBB123689A6812F0020FD7D0E28E92B24B
:102EE000002AD3D0002FD1D0226B12781A73236B13
:102EF00001332363E38E9BB2013B9BB2E386002741
:102F0000C4E7012384F85130002384F850300320B3
:102F100020E0324629462046FFF748FE90B9A368D4
:102F200033B901932368DA6801929B680193019B8E
:102F3000012384F85130002384F85030636D4BB185
:102F4000012007E020236365002384F8503001202E
:102F500000E0022003B0BDE8F0830220FAE702207F
:102F6000F8E70120F6E70120F4E70120F2E702206C
:102F7000F0E7000030B4056A026A22F00102026242
:102F80004268846924F073040B681C4325F0020531
:102F90008B682B43104DA84203D005F58065A842ED
:102FA00005D123F00803CD682B4323F004030A4D19
:102FB000A84203D005F58065A84205D122F44072ED
:102FC0004D6915438A692A43426084614A684263B5
:102FD000036230BC704700BF0000014030B4036A98
:102FE000026A22F4807202624268C46924F07304A7
:102FF0000D682C4323F400738D6843EA0523124DBA
:10300000A84203D005F58065A84206D123F40063E9
:10301000CD6843EA052323F480630B4DA84203D017
:1030200005F58065A84207D122F440524D6942EA75
:1030300005128D6942EA05124260C4614A68C263A2
:10304000036230BC704700BF0000014030B4036A27
:10305000026A22F4805202624468C26922F4E642A3
:103060000D6842EA052223F400538D6843EA0533D4
:10307000094DA84203D005F58065A84204D124F487
:1030800080444D6944EA85144460C2614A68026420
:10309000036230BC704700BF000001400368324A41
:1030A000904212D0B0F1804F0FD0A2F57C429042F6
:1030B0000BD002F58062904207D002F58062904208
:1030C00003D002F57842904203D123F070034A689E
:1030D0001343254A90422AD0B0F1804F27D0A2F561
:1030E0007C42904223D002F5806290421FD002F5CC
:1030F000806290421BD002F57842904217D002F5D0
:103100007052904213D002F5806290420FD002F5C7
:10311000806290420BD0A2F59832904207D002F51F
:103120008062904203D002F58062904203D123F482
:103130004073CA68134323F080034A6913438A68C3
:10314000C2620A688262084A904203D002F5806235
:10315000904201D10A690263026842F004020260EF
:1031600001224261036070470000014040B310B586
:10317000044690F83D30F3B1022384F83D302146F7
:1031800051F8040BFFF78AFF012384F8463084F8D6
:103190003E3084F83F3084F8403084F8413084F881
:1031A000423084F8433084F8443084F8453084F861
:1031B0003D30002010BD80F83C30FDF7D7FFDBE745
:1031C0000120704730B4036A026A22F010020262E2
:1031D0004468826922F4E6420D6842EA052223F03F
:1031E00020038D6843EA0513114DA84203D005F56D
:1031F0008065A84206D123F08003CD6843EA051319
:1032000023F040030A4DA84203D005F58065A8428B
:1032100007D124F440644D6944EA85048D6944EA89
:103220008504446082614A688263036230BC7047EF
:103230000000014038B590F83C30012B66D00446C0
:103240000D46012380F83C300C2A5AD8DFE802F002
:10325000075959591B59595930595959440000684F
:10326000FFF788FE2268936943F0080393612268A0
:10327000936923F0040393612268936929690B43DE
:10328000936100203EE00068FFF79CFF226893698D
:1032900043F4006393612268936923F4806393612C
:1032A00022689369296943EA01239361002029E098
:1032B0000068FFF793FE2268D36943F00803D361E7
:1032C0002268D36923F00403D3612268D369296992
:1032D0000B43D361002015E00068FFF7B7FE2268BA
:1032E000D36943F40063D3612268D36923F4806314
:1032F000D3612268D369296943EA0123D36100209D
:1033000000E00120002384F83C3038BD0220FCE7B7
:1033100090F83C30012B3BD030B4012380F83C3096
:10332000022380F83D3003685C689D6824F07004D7
:103330000A6822435A600368164A93421AD0B3F1CE
:10334000804F17D0A2F57C42934213D002F58062E1
:1033500093420FD002F5806293420BD002F578427F
:10336000934207D002F57052934203D0A2F59432F3
:10337000934204D125F080054A6815439D600123DE
:1033800080F83D30002380F83C30184630BC704750
:103390000220704700000140034AD2F8883043F40D
:1033A0007003C2F88830704700ED00E010B40346A7
:1033B0000C4A0D490D48006850B10C4800680344A0
:1033C000521A934208D8094A13605DF8044B7047BB
:1033D0000648074C0460F0E7064B0C221A604FF0D9
:1033E000FF30F2E70000032000040000C0000020CE
:1033F000283D0220143D022001207047024B162276
:103400001A604FF0FF307047143D022008B54FF0AE
:10341000FF31FFF7F3FFFEE770B50C4616460025B7
:10342000B54207DAAFF30080214601F8010B013500
:103430000C46F5E7304670BD70B50C4616460025C3
:10344000B54205DA14F8010BAFF300800135F7E758
:10345000304670BD4FF0FF3070474FF400534B6063
:1034600000207047012070470020704700B583B0EE
:1034700000230193054B1B781BB1019803B05DF845
:1034800004FB01A90248FFF7AFFAF6E7C4000020E9
:10349000F04F012010B58CB00C4630220021684658
:1034A00009F00EF92246002303E01168F1B101335F
:1034B000126822B3032B2ED8516803EB43000DF1A1
:1034C000300C0CEB800040F8301C518940F82C1C6B
:1034D000002BEAD0581E03EB43010DEB810100EBFA
:1034E00040000CEB800040F8281CDEE703EB4301B2
:1034F0000CA800EB8101002041F8280CD7E72389B4
:1035000007494B60C1F808D04C6314220548FFF707
:1035100006FA002001E06FF00B000CB010BD00BFF8
:10352000A0500120F04F01202DE9F04182B0044667
:103530002C4D2D4B2B6000268DF8006080238DF8DC
:103540000130E1238DF802308DF803608DF80460BE
:103550008DF80560C5F804D04FF40003AB60234B31
:10356000EB60234B2B614FF4C0636B612846FFF780
:1035700025F90746DFF8808034223146404609F0BD
:103580009FF8212348F8043C4FF44003C8F810305A
:10359000184800F001FD062384F830306B681A7873
:1035A00084F82A205A7884F82B209A7884F82C20E2
:1035B000DA7884F82D201A7984F82E205B7984F843
:1035C0002F3040F2DC53238594F8313043F00A0366
:1035D00084F8313017B902B0BDE8F081FDF796FAF2
:1035E000F9E700BFF04F0120008002402C050120C8
:1035F000504F012028DB0008A450012008B50146E7
:10360000054800F01FFD054B1B78012B00D008BDBD
:10361000024B00221A70FAE728DB0008C4000020E1
:1036200038B5054603E0204600F0FCFF5CB12846B3
:10363000FFF71CFF04460028F8D02B69294698475D
:103640000028F3D0EFE738BD10B5044670B17323FE
:1036500084F83230742384F83330084B6361084BAC
:10366000A3612046FFF760FF002010BD054B40F22C
:103670005B120549054809F02BF8E8E711970008A7
:1036800095340008BCDA0008D8DA0008E8DA000847
:1036900008B5FEF789FD08BD10B582B004460E4896
:1036A00000F09EFC88B1034600F1200222600B4A24
:1036B00002614FF4C062019222680092412200210F
:1036C000084600F047FF02B010BD054B01221A70FA
:1036D00000232360F7E700BF28DB0008FD35000862
:1036E000C400002030B4A2F12004002542F8205C80
:1036F00022F8185C22F8163C02684AB10A68146085
:103700000C60026832B11189194411811268F9E71D
:103710000460F5E730BC704708B590F8313013F01D
:10372000040F02D000F01CFE08BD00F03BFEFBE7DA
:10373000F0B585B03B4FC0203870A82179700123C7
:10374000BB706422FA70384EFF2232707270B27011
:103750000024F470354D28706970AB70EB7000F088
:1037600030F93A787B781B0443EA0263BA7843EA7B
:103770000223F9780B431A0202F47F0242EA016243
:10378000190A01F47F410A4342EA136328490B6096
:10379000327873781B0443EA0263B27843EA022367
:1037A000F07803431A0202F47F0242EA0062180A28
:1037B00000F47F40024342EA13631E4A13602878F4
:1037C0006B781B0443EA0063A87843EA0023ED7892
:1037D0002B43180200F47F0040EA05601D0A05F43F
:1037E0007F45284340EA1360134B1860134802904A
:1037F000134801900094134800F01AFD78B1114C61
:10380000204600F0A7FD1049204600F015FE204696
:1038100000F0A6FD204600F0EBFD05B0F0BDFDF781
:1038200075F9ECE7205101201C510120D8500120EE
:103830001451012024510120285101208938000809
:1038400049360008DC5001201937000810B50D4C2E
:103850002046FFF7E5FE05F0A5F994F8313013F0A6
:10386000040F06D0074B93F8313013F0010F04D04A
:1038700010BD204600F0BCFDF4E7024800F070FDEA
:10388000F6E700BFDC50012070B5044643890E2BDB
:103890001CD90D46C37B1BB991F834300133C37377
:1038A00060688689037813F0010F0AD0012B12D0CB
:1038B00006221E4908F0CEFE18B9637B43F00803C8
:1038C0006373082E12D0B6F5C16F1FD0204600F0EA
:1038D000A9FE002070BD4378002BF2D183785E2BC7
:1038E000EFD1637B43F010036373EAE795F831305F
:1038F00013F0080FEAD00E21204600F04DFE0028FC
:10390000E4D12946204606F009F9E2E795F831307E
:1039100013F0080FDAD00E21204600F03DFE0028FB
:10392000D4D12946204605F0D3FCD2E7A0DB00081D
:103930002DE9F04105460C4616461F46BDF8180015
:1039400000F02EF880460E21204600F020FEE8B957
:103950006168A1F80C803B680B60BB888B80336882
:10396000C1F80630B3884B8195F83030062B05D16D
:10397000AB69214628469847BDE8F081054B4FF4D6
:1039800099720549054808F0A3FEF1E76FF00100C0
:10399000F2E700BF38DB00086CDB0008E8DA00085B
:1039A000030A43EA002080B27047030203F47F0356
:1039B00043EA0063020A02F47F42134343EA1060C1
:1039C000704708B500F0C8F800F0FAFA00F0F8FB0C
:1039D00005F058F901F066FA05F0D0F808BD0000CE
:1039E000014B1B6818447047D0000020024B1B6835
:1039F000C01A80B2704700BFD0000020F8B504465E
:103A0000FFF7F4FF074625882846FFF7E9FF06463B
:103A100064882046FFF7E4FFB5F5004F10D8B4F5F1
:103A2000004F0FD8BC4202D00388BB420CD1094BD7
:103A30001B68B3420AD07388BB4209D1012000E061
:103A40000020F8BD0020FCE70020FAE70120F8E79D
:103A50000020F6E7D400002038B50446354B1B683B
:103A6000834240D8344B1B68A34244D92379002BAE
:103A700049D12388B3F5004F4DD82088FFF7B0FF18
:103A8000844216D00379A3B92B4B1B68834210D014
:103A90002A4B1B68834246D0038823800088B0F5F8
:103AA000004F06D0FFF79CFF05462046FFF79EFF1C
:103AB00068806088FFF794FF0546844212D003793E
:103AC00083B91E4B1B68A34230D023882B802088EB
:103AD000B0F5004F06D0FFF783FF04462846FFF7F6
:103AE00085FF608038BD164B40F2DF12154916483D
:103AF00008F0EEFDB6E7124B4FF4F072134912488E
:103B000008F0E6FDB2E70E4B40F2E11210490E4814
:103B100008F0DEFDADE70A4B4FF4F2720D490A489A
:103B200008F0D6FDA9E7054B1C60B5E7034B18600C
:103B3000CBE700BFD0000020D4000020CC00002044
:103B4000B0DB0008DCDB0008E8DA0008F4DB000882
:103B500010DC00082CDC000838B50B4C24F0030402
:103B60000A4B1C604FF400452580002363802371BD
:103B70002846FFF735FF064B1860012303710580C7
:103B80004580044B1C6038BD47510120D000002007
:103B9000D4000020CC000020002844D038B50446D2
:103BA00010F0030F1FD1A0F108051F4B1B68AB429B
:103BB00021D800F10C031D4A126893421BD810F85B
:103BC000043C03B32846FFF719FF20B3002304F891
:103BD000043C174B1B68AB4201D9154B1D602846AE
:103BE000FFF73AFF0EE0134B40F2732212491348DD
:103BF00008F06EFD06E00F4B40F27F2210490F489F
:103C000008F066FD38BD0B4B4FF423720D490B488D
:103C100008F05EFDF6E7074B40F295220A49074897
:103C200008F056FDEEE77047D0000020D4000020D9
:103C3000CC000020B0DB000858DC0008E8DA0008FF
:103C40007CDC000898DC0008C0DC00082DE9F843A3
:103C50000546CC1CA4B224F00304A4B20B2C04D956
:103C6000B4F5004F02D9002599E00C248C42C0F035
:103C700095804D4B1B68AB4203D84C4B1B68AB4245
:103C800006D84B4B40F2D1224A494B4808F020FD60
:103C9000454B1B68AB4200F28280444B1B68AB4231
:103CA0007DD9A5F10800FFF7A1FE064635F8088C7E
:103CB000A8EB00081FFA88F8A8F108081FFA88F88E
:103CC000444529D844456DD869D035F8087C384634
:103CD000FFF786FE81460379002B33D1B7F5004FFD
:103CE00022D0B9F800703444A4B20834A4B2334BE3
:103CF0001B684B4520D02046FFF772FE002303715E
:103D00000780468025F8084C0088B0F5004F46D063
:103D1000FFF766FE448042E0254B4FF43972284994
:103D2000254808F0D5FCCDE7214B40F2F522254986
:103D3000214808F0CDFCD4E72046FFF751FE1F4B89
:103D40001860D8E704F11403434528D83444A4B2DA
:103D50000834A4B2B7F5004F18D02046FFF740FE54
:103D6000164B1B68834201D9144B18600023037162
:103D700035F8083C0380468025F8084C0088B0F5EB
:103D8000004F0CD0FFF72CFE448008E0084B40F2B7
:103D900016320C49084808F09BFCDEE7002528464F
:103DA000BDE8F8830025FAE7D0000020D400002009
:103DB000B0DB0008F4DC0008E8DA0008CC000020E2
:103DC0000CDD00082CDD0008002800F09A802DE9A9
:103DD000F0410346C61CB6B226F00306B6B20B2E5F
:103DE00004D9B6F5004F02D9002088E00C269E4287
:103DF000C0F08980454B1868FFF7F8FD05464CE098
:103E0000434B40F287324349434808F061FC62E08B
:103E1000012303713D4B1868A0420FD02744083797
:103E20003E4B1B689F421FD814F0030524D15DBB95
:103E300004F1080063E00088FFF7D2FD03791BB1AD
:103E4000364A12688242F6D1304A1060334A12680C
:103E50008242E3D0002BE1D02D4B40F2B532304905
:103E60002D4808F035FCD9E7294B40F2B9322D49ED
:103E7000294808F02DFCD7E7254B40F2BB322A49F0
:103E8000254808F025FCD2E7214B40F2BD322749F6
:103E9000214808F01DFCCBE72588A8463746C6F523
:103EA00000439D422AD22846FFF79AFD0446037933
:103EB000002BF1D10388A3EB0803083BBB42EBD3F3
:103EC00007F114029342A3D32E44B6B20836B6B219
:103ED000B6F5004F94D03046FFF782FD0023037102
:103EE0002388038045802680012323710088B0F554
:103EF000004F8FD0FFF774FD46808BE70020BDE8B0
:103F0000F081002070470020F9E700BFCC000020BE
:103F1000B0DB00082CDD0008E8DA0008D40000203F
:103F200040DD00085CDD00088CDD0008BCDD000819
:103F300010B5C3681C6824B122681A6014F0030F1E
:103F400001D1204610BD044B4FF48C720349044844
:103F500008F0BEFBF5E700BFE0DD000810DE00085A
:103F6000E8DA000838B505460C4611F0030F05D114
:103F7000EB681B682360EB681C6038BD034B4FF493
:103F8000B6720349034808F0A3FBF1E7E0DD00083F
:103F900034DE0008E8DA0008C36800221A6083688B
:103FA000033323F00303C188914208DDC168096827
:103FB0001960C1680B6081880B440132F3E77047D8
:103FC00010B5002406E0054B53F82400FFF7E4FF8A
:103FD0000134A4B20A2CF6D910BD00BFD0DF00080E
:103FE00010B5044620B15CB12046FFF7A1FF10BD1B
:103FF000044B4FF49E720449044808F069FBF2E751
:104000002046F4E7E0DD000854DE0008E8DA0008A6
:1040100008B50A2805D8074B53F82000FFF788FF9A
:1040200008BD054B40F257120449054808F050FB03
:104030000020F5E7D0DF0008E0DD000868DE0008BA
:10404000E8DA000838B50C46054630B125B11CB198
:1040500021462846FFF786FF38BD044B40F29512F3
:104060000349044808F034FBF0E700BFE0DD000836
:1040700054DE0008E8DA000808B50A2806D821B19D
:10408000064B53F82000FFF76DFF08BD044B4FF4BB
:10409000D5720449044808F01BFBF6E7D0DF00089E
:1040A000E0DD000888DE0008E8DA00080B688268B6
:1040B000934205D011B18360012070470023FAE7D5
:1040C000002070470B68C268934205D011B1C360ED
:1040D000012070470023FAE7002070476FF00B00C3
:1040E000704738B504460D4601F01CFF29462046AE
:1040F00004F096FE2946204600F0CCFD38BD0000B5
:1041000038B50C46054670B195F8313003F005021C
:10411000052A07D114F0010F04D06A6812B113F018
:10412000080F08D138BD064B40F26D3205490648EC
:1041300008F0CEFAE8E7291D284605F025F9F1E751
:10414000FCDF00082CE00008E8DA000870B582B057
:10415000044615460E4639B175B1326863689A4215
:1041600012D1002002B070BD124B40F2CB121249A6
:10417000124808F0ADFAEFE70E4B4FF4E6720E4925
:104180000E4808F0A5FAE8E701922B6001A928463D
:10419000FFF7A7FF5EB13368636001212046FFF798
:1041A000AFFFE3690BB1204698470120DAE700230F
:1041B000F2E700BFFCDF000850E00008E8DA000882
:1041C000704700002DE9F04182B0044616461D46B6
:1041D0000F46D9B1E6B1EDB10FB13B68E3B901AA21
:1041E00039462046FFF7B2FF4FF001080022314662
:1041F0002046FFF75BFF002229462046FFF762FFBB
:10420000B8F1000F0BD002B0BDE8F081074FE1E735
:10421000064EE0E7054DDFE74FF00008E6E701AAAC
:1042200039462046FFF792FFEDE700BF5CFC00082F
:1042300070B5059C064618B3002C2AD0002931D051
:10424000002A31D0002B31D000207060B060F060C7
:10425000364D7561308586F83100F0613062049822
:1042600070623348007886F8340006983061304632
:10427000FFF7A8FF3046A04700283ED0002050E0BE
:104280002C4B40F227122C492C4808F021FA3046DA
:1042900047E0284B4FF494722949284808F018FA4F
:1042A00000203EE02749CBE7264ACBE7254BCBE76A
:1042B000002386F8343024E01E4B40F28B12224952
:1042C0001E4808F005FA10E01A4B40F28D121F4903
:1042D0001A4808F0FDF994F8342096F834309A42E0
:1042E00007D0246844B1A642E6D00135FF2DF2DDA7
:1042F000EAE7013386F834303CB196F83430FF2BCE
:10430000D6D0134B1C680025ECE796F83430FE2B12
:1043100008D00133064A13700D4B1A6832601E60D4
:10432000304670BD024B00221A70F5E7DD400008F0
:1043300004010020FCDF000860E00008E8DA000863
:104340007CE000085CFC0008A0E00008B4E0000885
:10435000443C0220014B1860704700BF483C0220DB
:1043600010B588B1044690F8313013F0010F0AD12E
:1043700043F0010380F83130C36903B1984703214A
:104380002046FFF7BDFE10BD034B4FF454720349A6
:10439000034808F09DF9F6E7FCDF0008E4E00008B8
:1043A000E8DA000810B588B1044690F8313013F00F
:1043B000010F0AD003F0FE0380F8313013F0080F2C
:1043C0000CD1E3690BB12046984710BD054B40F274
:1043D0009B320549054808F07BF9F6E704F05AFFDF
:1043E000EFE700BFFCDF000800E10008E8DA0008A2
:1043F00010B530B1044690F8313013F0040F08D0F6
:1044000010BD0A4B4FF4787209490A4808F060F968
:10441000F6E743F0040380F831300321FFF770FE24
:10442000236A002BECD020469847E9E7FCDF000820
:1044300020E10008E8DA000800B1016270470000DE
:10444000024658B1064B186838B190F83430013341
:10445000DBB2934203D00068F6E770470020704754
:10446000443C022010B40024046041600281438176
:104470009DF8043003739DF8083043730123837360
:10448000C4735DF8044B704770B50C46164605467C
:10449000C0B13DB3B4F5803F26D23CB3A2B22B8964
:1044A00013449BB2934223D395F90C10002911DBDE
:1044B00006B369680C1B6C6069890A446A812B81A8
:1044C000002012E00C4B40F2DF120C490C4808F0BF
:1044D000FFF8DEE769680C1B05F11001A142EAD97B
:1044E000012002E0012000E0012070BD0020FCE777
:1044F0000120FAE70120F8E744E1000874E1000830
:10450000E8DA0008F0B583B006460D461446412AA5
:1045100001D0012A0FD10920FFF77AFD074638B1F3
:104520000023019300942B462A463146FFF79AFF59
:10453000384603B0F0BD044B4FF4A572034904485C
:1045400008F0C6F8E7E700BF44E1000880E1000892
:10455000E8DA000870B582B00D461E460699C41C04
:1045600024F003042819BDF81C3098420DD801B17D
:10457000214434460223019300922B462A463046BA
:10458000FFF770FF204602B070BD0024FAE708B5BF
:104590000022FFF779FF08BD38B50C46054690B1FB
:1045A00015B3B4F5803F21D214B3A2B26B89934204
:1045B00011D36968214469609B1A6B812B899A1A0F
:1045C0002A81002038BD0B4B40F24B220A490B4890
:1045D00008F07EF8E4E7074B40F255220849074807
:1045E00008F076F80120EDE70120EBE70120E9E78C
:1045F0000020E7E744E1000874E10008E8DA000879
:1046000094E1000808B5002902DBFFF73DFF08BD73
:104610004942FFF7C1FFFAE708B50122FFF7F2FFB1
:1046200008BD000070B510B10446002517E0284B06
:104630004FF437722749284808F04AF800252846E1
:1046400070BD234B40F2F1222449234808F040F882
:104650000AE02369204698470135EDB23446002C24
:10466000EDD0A37B002BECD0A37B013BDBB2A3738B
:10467000002BE4D12668237B03F00F03627B12F04A
:10468000020F0AD02369002BE3D1114B40F2FF2225
:104690001349114808F01CF8DBE7022B06D0012B68
:1046A00009D06BB92046FFF777FAD5E721460A20F3
:1046B000FFF7E2FCD0E721460920FFF7DDFCCBE75E
:1046C000034B40F20F320749034808F001F8C3E7F3
:1046D00044E1000874E10008E8DA0008B4E10008E9
:1046E000CCE10008F0E100082DE9F04782B00E4669
:1046F000904685B2B2F5C17F46D007460ED8012A52
:1047000002D0412A40F08380424631460020FFF724
:10471000F9FE8146484602B0BDE8F087B2F5207F39
:1047200075D1033525F00305ADB2CA1C93B223F051
:1047300003031D44ADB205F1100080B222F0030264
:1047400095426ED382426FD8FFF73EFB8146002828
:10475000E0D007F110010144033100230193CDF8AB
:1047600000803346324621F00301FFF77BFED9F883
:10477000043013F0030FCDD02D4B4FF491722D491F
:104780002D4807F0A5FFC5E70027B94618E0B9F1A5
:10479000000F02D04846FFF745FFB946BAE7244B61
:1047A0004FF480722549244807F092FFB9F1000FB9
:1047B0002BD0CAF80070361BB6B20025002EA9D047
:1047C000BA460A20FFF724FC07460028DFD0EB1C7E
:1047D00023F003039BB2C3F5BE6304339CB2B4421F
:1047E00028BF344605F11001014403310023019331
:1047F000CDF800802346324621F00301FFF732FE58
:104800007B6813F0030FD1D0C9E7B946D3E7084B53
:1048100040F227120A49084807F05AFF4FF00009F2
:1048200078E74FF0000975E74FF0000972E700BF25
:1048300044E1000868E20008E8DA000804E2000841
:1048400094E20008F8B50E460446B8B12789B7428D
:104850002ED935466389AB4218D2EB1A9DB2238913
:10486000F21B134423812468002CF3D11A4B40F22D
:10487000AF121A491A4807F02BFFEBE7164B4FF41B
:10488000CC721849164807F023FFDFE7227B12F0AD
:104890000F0F05D1AB4203D0637B13F0020F08D09A
:1048A00065812581206808B1FFF7BCFE00232360E5
:1048B000F8BD63681B1BE91889B22046FFF7C6F9EB
:1048C00004460028ECD1044B40F2BD1206490448CE
:1048D00007F0FEFEE4E700BF44E10008C8E200087C
:1048E000E8DA0008B0E20008E0E200080346002031
:1048F0001BB1013080B21B68FAE7704770B108B590
:10490000837B0133DBB2837303B108BD044B40F2F8
:1049100042320449044807F0DBFEF6E7704700BF67
:1049200044E10008FCE20008E8DA000838B510B1FC
:104930000D46044661B9154B40F2593214491548E9
:1049400007F0C6FE19E02389288903442381144611
:104950002268002AF7D1228963899A420ED12368FE
:1049600033B10A4B40F263320B490A4807F0B0FEFC
:1049700023892A8913442381256038BD034B40F2E3
:1049800062320649034807F0A3FEE8E744E1000865
:1049900010E30008E8DA000878E3000848E30008BC
:1049A0002DE9F04148B10C46054631B102890B8929
:1049B0009A4202D30027B8463AE03A4B40F2C93255
:1049C00039493A4807F084FE6FF00F0068E0354B34
:1049D00040F2D9323649354807F07AFE3CE0314B97
:1049E00040F2DA323349314807F072FE37E02D6881
:1049F00015B14FF000083AE014B94FF0000836E066
:104A0000284B4FF479722C49284807F061FE6FF06B
:104A10000F0045E023687BB3224B40F2E93227497F
:104A2000224807F055FE6FF0050039E0002C36D023
:104A30006E89A6EB08066389DB1B9E4200D31E46E7
:104A40006868616832463944404407F011FEB0445A
:104A500037446B894345BAD36389BB42BFD363896B
:104A6000BB4201D8246800276B894345BFD01CB1E5
:104A7000628923899A42CDD0002DD7D06A892B89AB
:104A80009A42D3D12B68002BD0D0064B40F2EE32A5
:104A90000A49064807F01CFE6FF0050000E0002000
:104AA000BDE8F08144E1000888E30008E8DA000886
:104AB000B8E30008D0E30008ECE30008FCE30008DA
:104AC0002DE9F84330B188469146054669B1002783
:104AD0003E462AE01B4B40F20A421B491B4807F0A6
:104AE000F7FD00273846BDE8F883164B40F20B422D
:104AF0001749164807F0ECFD0027F3E76C89E41A24
:104B0000A4B2A14500D24C4669682246194408EB7C
:104B1000060007F0ADFD2744BFB22644B6B2A9EBAC
:104B200004041FFA84F900232D68B9F1000FD9D0CD
:104B3000002DD7D0002BE1D069899942DED85B1ACD
:104B40009BB2F1E744E1000828E40008E8DA000835
:104B500048E4000838B514460A462189FFF7C4FD29
:104B6000054618B12146FFF71BFF08B9284638BD96
:104B7000034B40F224520349034807F0A9FDF5E72F
:104B800044E100086CE40008E8DA0008027A3AB16F
:104B9000114B5B6893F834300133DBB29A420ED18B
:104BA00021B170B1036873B10020704768B1036828
:104BB0006BB1094A526993420BD0084670470020F6
:104BC0007047012070470120704701207047012085
:104BD00070470120704700BF2C5101202DE9F0479C
:104BE0008046264B1968586905F009F90746D8F838
:104BF00004305E7A224B1C684FF000094D461AE0E3
:104C0000D4F814A0BAF1000F13D0D8F804901D4BBB
:104C100042462146A069D04708BBD8F804304B452E
:104C200029D0194BC0221949194807F051FD4FF0FE
:104C300002092546E468DCB1237C9E42F9D139465D
:104C40002046FFF7A3FF0028F3D0637C13F0010F89
:104C5000D6D06268094B1B699A42EAD1D0E72DB1E0
:104C6000E368EB60064B1A68E2601C604FF00109D4
:104C70004846BDE8F0874FF00209DAE72C510120E1
:104C8000080100203C51012080E40008ACE4000849
:104C9000E8DA0008B8B102460368A3B199B10B681D
:104CA0008BB1094B1B686BB110B401E0DB6833B109
:104CB0001C6810688442F9D108681860F6E75DF84E
:104CC000044B7047704770470801002010B400245F
:104CD00009E0164B4FF440421A800DE00134A4B2B3
:104CE000B4F5804F1FD2114A138801339BB2138051
:104CF0004FF6FF729342ECD0002003280ED80C4BE5
:104D000053F820301B6833B1D98A084A128891427F
:104D1000E4D0DB68F7E70130C0B2EEE7034B188858
:104D20005DF8044B70470020FAE700BF3000002018
:104D30008CEB000838B504460D4649B9074BFF22F5
:104D40000749084807F0C4FC02E00023A367E468B1
:104D50001CB1A36FAB42FAD1F7E738BDF8E4000805
:104D600024E50008E8DA000838B5054620B12B7DB7
:104D7000012B09D1012417E00D4B40F211120D490E
:104D80000D4807F0A5FCF2E7094B4FF489720B4977
:104D9000094807F09DFCEDE7094B53F824302946FC
:104DA0001868FFF7C7FF0134032CF5D938BD00BFE1
:104DB000F8E400084CE50008E8DA000858E50008C7
:104DC0008CEB000810B50446037D012B04D021466E
:104DD0000320FFF751F910BD034BDF2203490448BC
:104DE00007F076FCF3E700BFF8E4000870E5000880
:104DF000E8DA000838B5054648B12B7D042B1FD0F2
:104E0000072B26D0032B0AD00024204638BD174B91
:104E10004FF4CE721649174807F05AFCEDE72846C2
:104E200003F050FA044608B905232B75D4B1B4F148
:104E3000FF3FEAD16B8B43F008036B830024E4E768
:104E4000284603F03FFA04460028EFD105232B75CE
:104E5000ECE7284603F036FA04460028E6D1092399
:104E60002B75E3E7284603F0B1FBCEE7F8E4000832
:104E70004CE50008E8DA0008094B186878B110B56D
:104E800006E023F008034383FFF7B4FF20462CB16C
:104E9000C468438B13F0080FF8D0F2E710BD7047D9
:104EA000503C022008B507F02BFC6FEA80406FEA07
:104EB0009040014B188008BD3000002010B504461A
:104EC000037D012B04D021460220FFF7D5F810BD49
:104ED000034BD4220349044807F0FAFBF3E700BF71
:104EE000F8E400088CE50008E8DA000870B506462A
:104EF0000D4659B166B1337DA3B9EAB1002003284C
:104F00001EDC264B53F820301B6827E0244DF1E7C8
:104F1000244B40F2A9222449244807F0D9FB6FF022
:104F20000F0019E01F4B40F2AB2221491F4807F048
:104F3000CFFB6FF005000FE0FFF7C8FE0246F0B1AF
:104F400015B12B6803B13360F2821A4B1A68F26014
:104F50001E6003F0D9FD002070BDDB686BB1D98AFB
:104F60009142FAD173B1196879B18DB12C6894B1BD
:104F7000A142F2D16FF00700EEE70130BFE76FF01A
:104F80000100E9E76FF00700E6E76FF00700E3E7ED
:104F90006FF00700E0E76FF00700DDE78CEB00083B
:104FA0005CFC0008F8E40008A0E50008E8DA000866
:104FB000B8E500085C3C022070B51646044640B3D4
:104FC000037D002B30D1012B51D00320FFF720F8B7
:104FD000054600284FD023690361E38AC382012379
:104FE0000375637D4375637A437200230372E37A2A
:104FF000C372A37A837223680360E38A3BB31F4BB7
:105000001B68A3421BD003B3DA68A2421BD013462D
:10501000F9E71B4B40F259321A491B4807F058FB7D
:1050200025466FF00F031EE0154B40F25A32174928
:10503000154807F04DFB6FF00E03002513E0DA680A
:105040000E4B1A6001E0E268DA600023E36020465C
:10505000FFF734FF0E4BAB610E4B1A68EA601D6020
:1050600003F052FD002306B13370284670BD05469B
:105070006FF00803F7E74FF0FF33F4E75C3C0220E2
:10508000F8E40008E0E50008E8DA000810E60008A7
:10509000855C0008583C022008B50022FFF78CFF11
:1050A00008BD000070B5044680B1656A218D68189E
:1050B000E26A638E40F66836B34294BFD318931900
:1050C000C31A002B0ADB6185801A70BD0E4B40F2BB
:1050D000A6320E490E4807F0FBFAE6E7AB1A002BA2
:1050E00003DD002363850020EFE7551BB5F5803F06
:1050F00001D26585F7E7044B40F2B6320549044812
:1051000007F0E6FAF5E700BFF8E4000848E6000813
:10511000E8DA00086CE6000838B5C0B10C46054670
:10512000037D012B1BD02B8D191989B241F2D0625E
:10513000914201D88B421AD941F2D0632B8528467F
:10514000FFF7B0FF40F2B353984212D838BD0D4B71
:1051500040F2CF320C490D4807F0BAFAF6E7094B96
:1051600040F2D2320A49094807F0B2FADBE7298552
:10517000E5E76B8B43F002036B83284603F026FAC6
:10518000E4E700BFF8E4000888E60008E8DA000871
:10519000A0E6000850B110B50446406808B1FFF71A
:1051A00041FA21460420FEF767FF10BD704738B171
:1051B00010B50468FFF7EEFF2046002CF9D110BDB2
:1051C0007047000008B508B1417508BD034B4FF4A6
:1051D000CE620349034807F07BFAF6E7F8E40008DB
:1051E000C8E60008E8DA000880B138B50C46054684
:1051F000037D012B02D0C5F8804038BD044B40F23E
:10520000DF720449044807F063FAF4E7704700BF0F
:10521000F8E40008E4E60008E8DA000878B138B5F8
:105220000C460546037D012B01D0EC6738BD044BCD
:1052300040F2F3720349044807F04AFAF5E7704771
:10524000F8E400080CE70008E8DA000880B138B597
:105250000C460546037D012B02D0C5F88C4038BDB5
:10526000044B40F60D020449044807F031FAF4E714
:10527000704700BFF8E4000834E70008E8DA0008E7
:1052800010B1027D012A00D070478161FCE7000067
:1052900070B548B10D4614460646037D012B0BD070
:1052A000C6F88850747770BD074B40F63D02074939
:1052B000074807F00DFAF6E7034B40F63E020549B2
:1052C000034807F005FAEBE7F8E400085CE700089C
:1052D000E8DA000874E7000810B5D8B10446037D89
:1052E000BBB10A2B15D0012B13D0406F18B1FFF7BB
:1052F00099F9002363674FF6FF732386E06EFFF78B
:1053000056FF206FFFF753FF0023E3662367A4F8DF
:10531000683010BD034B40F651020349034807F0C3
:10532000D7F9F6E7F8E4000894E70008E8DA00089F
:105330002DE9F04184B0AF4A136801331360AE4ADF
:10534000137801331370AD4B1C68002787E1AC4B19
:1053500040F2BE42AB49AC4807F0BAF985E1A84B30
:1053600040F2BF42A949A84807F0B2F981E1A44B35
:105370004FF49862A649A44807F0AAF97DE12746B0
:10538000E4686CE194F84230052B40F281810125FC
:105390006FE09B4B40F2D5429E499B4807F098F93D
:1053A0008DE1204602F000FE60B1002384F89430C5
:1053B00094F89530062B00F29380013384F89530F1
:1053C000002556E0204603F001F90028EDD1002524
:1053D0004FE0B4F930309BB247F6FE72934201D8E9
:1053E00001332386B4F93020B4F940309A4240DBCF
:1053F000204602F099FF20B1236F002B39D1E36ED4
:10540000BBB3237D022B14D094F842200C2A28BF72
:105410000C22B4F93C10B4F93E3003EBE1037E49B1
:105420008A5C934047F6FE7293421EDC1BB2A4F8DE
:10543000403000232386B4F86030B4F8482093420B
:1054400028BF13465B08A4F84A30618E4A0092B226
:10545000934201D2A4F84A20A4F848100023A4F8EB
:105460006A30204603F00AFA03E047F6FF73DEE7EE
:105470000125227D062A35D0637A13F0080604D070
:10548000042A3CD0072A3AD00026237D032B64D07F
:10549000092B6BD0002D72D1E568237F0133DBB27D
:1054A0002377627F9342C0F0D880002323775B4A42
:1054B0001370D4F88830002B00F0C7802146206993
:1054C0009847564B1B78002B7FF43DAF002800F027
:1054D000BE8027462C46C2E00125CAE70025C8E762
:1054E0000025C6E7638B13F0100FC5D0216A414B2E
:1054F0001B685B1A282BBFD90135EDB2BCE73D4BC9
:105500001A68236AD21AD4F8901001F5242303F6FE
:10551000B8434348A0FB0303B2EB531F03D9013543
:10552000EDB20126B1E794F897303E4800FB031333
:105530003B49A1FB0313B2EB531F01D80026A4E79C
:10554000204603F0D1F930B994F89730013384F84C
:105550009730002699E7002697E7216A254A1268C6
:10556000521A282A94D90135EDB291E7226A214BCB
:105570001B689B1AF02B8DD90135EDB28AE7D4F860
:105580008C502046FFF7A8FE27B31C4B1B689C429B
:1055900018D0E368FB60002E4AD1D4F81080E6688A
:1055A0002046FFF78BFC1D4B00221A701DB16FF0D7
:1055B0000C014046A847194B1B78002B7FF4C3AE63
:1055C00034464CE00E4B40F26D5217490E4807F03E
:1055D0007FF8DEE7094B1B689C4206D0084B40F27F
:1055E00071521249084807F073F8E268034B1A60D9
:1055F000D1E700BF543C02200D010020503C0220A6
:10560000F8E40008B0E70008E8DA0008DCE7000882
:1056100008E800086CE800087CEB00084C3C02201D
:10562000D34D6210F8240100A4E80008D0E8000877
:10563000231D626A216D208B0290E08A0190009305
:105640002346204602F040FFA7E7002039E7204626
:1056500002F0BCFF27462C4601E027462C46002CD2
:1056600050D0237D002B3FF472AE237D012B3FF4FD
:1056700076AE237D0A2B3FF47AAEA27F424B1B7895
:105680009A423FF47CAEA377237D022B3FF47AAE9F
:1056900094F842300B2B3FF6EBAE94F89550002D6A
:1056A0003FF497AE236F33B1384B40F2D4423849C0
:1056B000384807F00DF8E36E002B3FF46AAE94F81B
:1056C00096300B2B3FF608AF94F89530013B324AE9
:1056D000D25C94F89430934202D2013384F894302F
:1056E00094F894309342FFF4F9AEB4F860100029B6
:1056F0007FF457AE204603F025F900283FF455AE5D
:105700000025B6E6254B1D680EE0204B40F2A15265
:105710002349204806F0DCFF2A6A224B1B689B1AAB
:10572000F02B06D82C46ED6855B32B7D0A2BF3D011
:10573000EBE72846FFF7D0FD9CB1184B1B689D4254
:1057400007D0EB68E360EE682846FFF7B7FB354605
:10575000EAE70E4B40F2AF5213490E4806F0B8FF8D
:10576000EFE70E4B1B689D4206D0084B40F2B35248
:105770000E49084806F0ACFFEA68084B1A60E2E7F9
:1057800004B0BDE8F08100BF0D010020F8E400087E
:1057900038E80008E8DA00089CEB0008603C0220CA
:1057A000FCE80008543C02202CE9000854E90008F9
:1057B00038B505460C4649B185B12B68A34215D0D2
:1057C000CBB1DA68A24214D01346F9E7214B40F678
:1057D00083022149214806F07BFFEDE71D4B40F68F
:1057E00084021F491D4806F073FFE6E7DB682B6063
:1057F00001E0E268DA600023E3602046FFF76CFD19
:10580000237D0A2B05D0012B03D0638B13F0010FEE
:1058100018D1237D012B11D0E36E33B10D4B40F62F
:10582000930210490D4806F053FF236F33B1094B23
:1058300040F694020C49094806F04AFF00232375FC
:10584000E38238BD43F002036383204602F0BEFECC
:10585000DFE700BFF8E400087CE90008E8DA0008A8
:1058600098E90008B8E90008D0E9000830B585B02B
:105870000D46044680B125B1237D042B14D0072B9F
:1058800012D0237D012B6DD0022B77D0002B50D06E
:105890002046FFF7AFFA47E03E4B4FF4AF723E4968
:1058A0003E4806F015FFE6E7636FE3B1638B13F044
:1058B000100F1ED0231D228B0292E28A01920093C8
:1058C0002346626A216D204602F0FEFD2046FFF766
:1058D00003FD334B1B68A34213D0C3B1DA68A24265
:1058E00013D01346F9E7228D41F2D0639A42C8D013
:1058F000DCE7284B4FF4B2722A49284806F0E8FE4C
:10590000D8E7DA68264B1A6001E0E268DA60002323
:10591000E360254B01221A70244B1B68A34205D07B
:105920002046FFF7CBFA002005B030BD01F070FD36
:10593000F9E7E38A8BB11E4B1B68A34205D053B134
:10594000DA68A24205D01346F9E7DA68184B1A6004
:1059500001E0E268DA600023E3602046FFF7AEFA78
:105960000020E1E72046FFF7FFF921461148FFF745
:105970001FFF2046FFF726FA0020D5E721460848FA
:10598000FFF716FF084B01221A702046FFF796FA20
:105990000020C9E7F8E40008ECE90008E8DA0008AC
:1059A000503C02200CEA00084C3C0220643C0220DF
:1059B0005C3C0220583C022008B560B10346027DE1
:1059C000012A03D0428B42F0100242830121184683
:1059D000FFF74CFF08BD054B4FF4F472044905482E
:1059E00006F076FE6FF00F00F4E700BFF8E4000861
:1059F00028EA0008E8DA000810B551B11446084654
:105A00008AB11189FFF788FB2046FEF70BFE0020C4
:105A100010BD084B4FF4D3620749084806F058FE02
:105A20006FF00F00F4E70BB10020F1E7FFF7C4FFC0
:105A3000EEE700BFF8E4000840EA0008E8DA0008F2
:105A4000F8B520B30446466F777B00234367D0F850
:105A5000805035B3324601460069A847054645BB2C
:105A600017F0200F2BD0238D41F2D062934201D04A
:105A700001332385D4F880600EB300231A462146F3
:105A80002069B04710F10D0F19D1054617E00D4BF5
:105A900040F209620C490D4806F01AFE6FF00F053E
:105AA0000DE00023324601461846FFF7A5FF0546E4
:105AB000D5E715F10D0F02D066676FF00405284693
:105AC000F8BD00BFF8E400085CEA0008E8DA000866
:105AD00070B51C4A1378013313701B4B1C6813E01C
