:020000040800F2
:100000000000032071D400082D1000082F100008F4
:1000100031100008331000083510000800000000FF
:100020000000000000000000000000003710000881
:1000300039100008000000003B1000083D100008C7
:10004000C1D40008C1D40008C1D40008C1D400083C
:10005000C1D40008C1D40008C1D40008C1D400082C
:10006000C1D4000845100008C1D40008C1D400085C
:10007000C1D40008C1D40008C1D40008C1D400080C
:10008000C1D40008C1D40008C1D40008C1D40008FC
:10009000C1D40008C1D40008C1D40008C1D40008EC
:1000A000C1D40008C1D40008C1D40008C1D40008DC
:1000B000C1D40008C1D40008C1D40008C1D40008CC
:1000C000C1D40008C1D40008C1D40008C1D40008BC
:1000D000C1D40008C1D40008C1D40008C1D40008AC
:1000E000C1D40008C1D40008C1D40008C1D400089C
:1000F000C1D40008C1D40008C1D40008C1D400088C
:10010000C1D40008C1D40008C1D40008C1D400087B
:10011000C1D40008C1D40008C1D40008C1D400086B
:1001200065C9000809CA0008C1D40008C1D4000884
:10013000C1D40008C1D40008C1D40008C1D400084B
:10014000C1D40008C1D40008C1D40008C1D400083B
:10015000C1D40008C1D40008C1D40008C1D400082B
:10016000C1D40008C1D40008C1D40008C1D400081B
:10017000C1D40008C1D40008C1D4000800000000A8
:10018000C1D40008C1D40008C1D40008C1D40008FB
:10019000C1D40008C1D40008C1D40008C1D40008EB
:0C01A0000000000000000000C1D40008B6
:1001B00001F0FF01102A2BDB10F0070F08D010F818
:1001C000013B013A8B422DD010F0070F42B3F6D11C
:1001D000F0B441EA012141EA014122F007047FF035
:1001E00000070023F0E80256083C85EA010586EA8C
:1001F000010685FA47F5A3FA87F586FA47F6A5FAC8
:1002000087F68EB9EED1F0BC01F0FF0102F00702D3
:1002100032B110F8013B013A83EA010313B1F8D17E
:100220000020704701387047002D06BF354603385F
:10023000073815F0010F07D1013015F4807F02BF98
:10024000013015F4C03F0130F0BC0138704700BFE9
:100250004FEA4102B2F1E04324BFB3F5001CDCF1E8
:10026000FE5C0DD901F0004C4FEAC0024CEA507020
:10027000B2F1004F40EB830008BF20F0010070474F
:1002800011F0804F21D113F13872BCBF01F0004052
:10029000704741F480114FEA5252C2F11802C2F184
:1002A000200C10FA0CF320FA02F018BF40F0010005
:1002B0004FEAC1234FEAD32303FA0CFC40EA0C00B7
:1002C00023FA02F34FEA4303CCE77FEA625307D1F4
:1002D00050EA01331EBF4FF0FE4040F4400070472B
:1002E00001F0004040F0FE4040F40000704700BFC5
:1002F00053B94AB9002908BF00281CBF4FF0FF318D
:100300004FF0FF3000F00CB8ADF1080C6DE904CEF1
:100310000EF024F9DDF804E0DDE9022304B07047B3
:10032000704700BF0348044B834202D0034B03B124
:1003300018477047AC000020AC000020000000000F
:100340000548064B1B1AD90F01EBA301491002D037
:10035000034B03B118477047AC000020AC000020ED
:100360000000000010B5064C237843B9FFF7DAFF10
:10037000044B13B10448AFF300800123237010BD78
:10038000AC0000200000000024E8000808B5054B80
:100390001BB105490548AFF30080BDE80840FFF7F1
:1003A000CFBF00BF00000000B000002024E800081C
:1003B00086B0002200921F4B196B41F00071196347
:1003C000196B01F00071009100990192196B41F0D5
:1003D00080611963196B01F08061019101990292AA
:1003E000196B41F000611963196B01F00061029112
:1003F00002990392196B41F000711963196B01F0B6
:100400000071039103990492196B41F080611963A3
:10041000196B01F080610491049905921A6B42F006
:1004200000621A631B6B03F000630593059B06B023
:10043000704700BF0038024082B000230193084B90
:100440005A6C42F480425A645B6C03F4804301931B
:10045000019B044A536843F40003536002B07047A1
:100460000038024000380140C0F3820001380528FE
:100470000AD8DFE800F0030509090B0704487047B4
:100480000448704704487047044870470448704760
:1004900044E800085CE8000868E8000874E8000820
:1004A00050E8000808B50E4900200CF0D1FF0D4BB4
:1004B00093F82D3013F0010F0DD0012213F0040F2B
:1004C0000BD00123084900200CF0C2FF074900208F
:1004D0000CF0BEFF08BD0022F0E70023F2E700BFEA
:1004E0007CE80008304D002084E80008A4E80008FB
:1004F00008B50CF045FD002108460CF01FFD02492F
:1005000000200CF0A5FF08BDA8E8000800B589B0E0
:1005100000220392049205920692079200921D4BCC
:10052000196B41F001011963196B01F00101009190
:1005300000990192196B41F002011963196B01F0E6
:1005400002010191019902921A6B42F004021A63AE
:100550001B6B03F004030293029B02230493032307
:1005600006930B2307938623039303A90A4801F0FC
:100570008DFA4FF46053039303A9084801F086FAFB
:100580003223039303A9064801F080FA09B05DF80D
:1005900004FB00BF0038024000000240000402409B
:1005A0000008024010B50A4C00224021204601F00C
:1005B0001EFC142001F000FD01224021204601F024
:1005C00016FC4FF4967001F0F7FC002010BD00BF40
:1005D0000008024008B501F057F80B4B98420AD8C2
:1005E0000A4B984209D80A4B984208D2094B9842C4
:1005F00007D90C2000E0102008BD0420FCE70020F3
:10060000FAE70820F8E700BF7FD1F008FFE0F50522
:1006100000879303BF0E1602002A37D02DE9F04160
:1006200005460E469046FFF7D5FF074601F0BEFC93
:100630000446174B1B6913F0010F07D001F0B6FCFD
:10064000031B642BF5D90320BDE8F081EB029BB2BC
:10065000B60106F4F86633433B4343F001030C4A0A
:10066000136101F0A3FC0446094B1B6913F0010F51
:1006700006D001F09BFC001B6428F5D90320E3E7BA
:10068000034B5B69A8F800300020DDE701207047CC
:1006900000800240002876D070B582B00646002463
:1006A000046044608460C460046107E04FF6FF7238
:1006B000934223D0072B26D00134E4B21F2C5FD8FD
:1006C0000023ADF80630ADF804300DF1060202212A
:1006D0002046FFF7A1FF054601AA03212046FFF7A8
:1006E0009BFF002DE8D10028E6D1BDF80630002B95
:1006F000DCD1BDF80420002AD8D1DDE7BDF8041014
:100700009142D7D1D8E7BDF8043023F00F039BB254
:100710004CF2F0029342CFD1012535707470BDF8D0
:1007200006307380BDF80430B380B21D002120462E
:10073000FFF772FF06F1080229462046FFF76CFF1B
:1007400006F10A0229462046FFF766FF06F10C0271
:1007500004212046FFF760FF06F10E020521204626
:10076000FFF75AFF06F1100206212046FFF754FF5B
:1007700006F112021F212046FFF74EFF002000E085
:10078000022002B070BD012070470000F0B589B0B2
:10079000054601F00BFC044602E0642001F00CFC6D
:1007A00001F004FC001BA84227D203A8FFF772FF48
:1007B00006460028F1D1BDF8163003F02403242B9F
:1007C000EBD124490CF044FE9DF80D40BDF80E50CD
:1007D000BDF81070BDF81E00FFF746FE01900097AF
:1007E0002B4622461C4900200CF032FE1B490020FB
:1007F0000CF02EFE304609B0F0BD03A8FFF74AFF0B
:10080000C8B917490CF024FE9DF80D50BDF81660CC
:10081000BDF81E402046FFF727FE019000943346A6
:100820002A46104900200CF013FE0C4900200CF061
:100830000FFE0126DEE70A4900200CF009FE0A49F6
:1008400000200CF005FE054900200CF001FE0126F9
:10085000D0E700BF7CE80008B0E80008A4E8000882
:10086000F8E8000800E9000860E9000808B50A4B4C
:1008700093F82D3013F0010F06D0074B93F82D306D
:1008800013F0040F04D008BD034803F07FFCF4E725
:10089000014803F0B9FCF6E7304D002000B583B005
:1008A0000CF06EFB002108460CF048FB104D294669
:1008B00000200CF0CDFD0F4900200CF0C9FD0E4CBE
:1008C000214600200CF0C4FD294600200CF0C0FD9C
:1008D0000A490A688B6849680091094900200CF0B0
:1008E000B7FD214600200CF0B3FD72B6FEE700BF55
:1008F000F8E8000890E90008A4E800080038024081
:10090000A8E9000800B595B03022002108A80CF035
:1009100035FE0023039304930593069307930193F5
:100920002D4A116C41F080511164126C02F080521A
:100930000192019A0293294B1A6842F440421A60CC
:100940001B6803F440430293029B012308934FF476
:100950008033099302230E934FF480020F921922E1
:1009600010924FF4A872119212930423139308A8C3
:1009700000F08AFB98B90F2303930223049300230A
:1009800005934FF4A05306934FF48053079305212A
:1009900003A800F0C9FD80B915B05DF804FB10494B
:1009A00000200CF055FD0F4900200CF051FD0E49C0
:1009B00000200CF04DFDFFF771FF094900200CF0FD
:1009C00047FD0A4900200CF043FD074900200CF0C8
:1009D0003FFDFFF763FF00BF00380240007000409A
:1009E000F8E80008E0E90008A4E80008FCE90008CD
:1009F00030B583B0FFF77CFDAB4900200CF028FD3B
:100A0000AA4900200CF024FDA94C214600200CF03E
:100A10001FFD01F0A5FAA74D294600200CF018FD96
:100A2000A54900200CF014FD214600200CF010FD1B
:100A3000FFF768FF294600200CF00AFD9F490020BF
:100A40000CF006FD214600200CF002FD00F062F9DA
:100A5000294600200CF0FCFC994900200CF0F8FC21
:100A6000214600200CF0F4FCFFF7E6FCFFF74EFDFA
:100A7000FFF79EFC294600200CF0EAFC914900207B
:100A80000CF0E6FC214600200CF0E2FCFFF78AFDAA
:100A900068B18D4900200CF0DBFC8C4900200CF083
:100AA000D7FC214600200CF0D3FCFFF7F7FE814D68
:100AB000294600200CF0CCFC854900200CF0C8FC35
:100AC0007B4C214600200CF0C3FC00F0B9F929460C
:100AD00000200CF0BDFC7F4900200CF0B9FC214641
:100AE00000200CF0B5FC00F061FA294600200CF063
:100AF000AFFC794900200CF0ABFC214600200CF043
:100B0000A7FC02F031FD294600200CF0A1FC73493E
:100B100000200CF09DFC214600200CF099FC704850
:100B200001F0D0FD044608B1022811D1614900202E
:100B30000CF08EFC22466B4900200CF089FC5C49CD
:100B400000200CF085FCFFF791FEFFF7ABFC1EE0E8
:100B50005D4900200CF07CFC2246634900200CF02B
:100B600077FC534900200CF073FCFFF797FE41F22D
:100B7000883001F021FA544900200CF069FC5B49EF
:100B800000200CF065FC4A4900200CF061FC41F2A9
:100B90008830FFF7FBFD0028E9D1FFF767FE544CD2
:100BA00020460BF0D7FF434900200CF051FC63793D
:100BB0000093237922684F4900200CF049FC3C49FE
:100BC00000200CF045FC60790CF0A8F870B13E49AB
:100BD00000200CF03DFC6279474900200CF038FC05
:100BE000334900200CF034FCFFF758FE314D294604
:100BF00000200CF02DFC414900200CF029FC2C4C6D
:100C0000214600200CF024FC09F032FB294600208C
:100C10000CF01EFC3A4900200CF01AFC2146002082
:100C20000CF016FC32480BF0B9FD68B126490020E3
:100C30000CF00EFC334900200CF00AFC2146002089
:100C40000CF006FCFFF72AFE1A4D294600200CF096
:100C5000FFFB2D4900200CF0FBFB154C214600202A
:100C60000CF0F6FB0AF09AFC294600200CF0F0FB91
:100C7000264900200CF0ECFB214600200CF0E8FB9C
:100C8000294600200CF0E4FB214900200CF0E0FB99
:100C9000214600200CF0DCFB02F0F6FCFFF7E6FD3D
:100CA0000AF0F8FCF8E700BF18EA000820EA00089C
:100CB000A4E800087CE8000828EA000834EA0008F4
:100CC00048EA000854EA0008F8E8000870EA00085A
:100CD000ACEA0008BCEA0008C8EA0008D4EA000848
:100CE000EC020020E0EA0008FCEA00081CEB000827
:100CF0004000002044EB000870EB000890EB000877
:100D0000A0EB0008B0EB0008C8EB0008D8EB000827
:100D1000ECEB00082DE9F0418AB00024059406941C
:100D20000794089409940094414B1A6B42F0100206
:100D30001A631A6B02F010020092009A01941A6B67
:100D400042F080021A631A6B02F080020192019A4B
:100D500002941A6B42F004021A631A6B02F0040246
:100D60000292029A03941A6B42F001021A631A6B00
:100D700002F001020392039A04941A6B42F00202F9
:100D80001A631B6B03F002030493049B294E224653
:100D90001221304601F02BF8274F22464D213846CC
:100DA00001F025F8DFF8948022460121404601F049
:100DB0001EF801221146304601F019F80823059368
:100DC0004FF488130693079405A9304600F05EFEA1
:100DD00013230593012506950794089405A9304629
:100DE00000F054FE0D23059306950794089405A979
:100DF000384600F04BFE059506950794089405A922
:100E0000404600F043FE402305930695079408955D
:100E100005A9384600F03AFE22462146092001F095
:100E20000DF8092001F042F80AB0BDE8F08100BFDA
:100E3000003802400010024000080240000002405A
:100E400008B50E480E4B03604FF4827343600023D5
:100E50008360C3600361012242614FF400728261CA
:100E60002022C2610362436283620A23C36201F0EB
:100E7000EDFD00B908BDFFF711FDFBE7C80000203C
:100E80000034014000B589B0002303930493059317
:100E9000069307930268154B9A4202D009B05DF899
:100EA00004FB0021019103F582335A6C42F4005295
:100EB0005A645A6C02F400520192019A02911A6B20
:100EC00042F010021A631B6B03F010030293029BA3
:100ED00064230393022304930323069305230793B8
:100EE00003A9034800F0D2FDD8E700BF0034014059
:100EF0000010024008B50268064B9A4200D008BDB7
:100F0000054A536C23F4005353646421034800F0F2
:100F1000C1FEF4E7003401400038024000100240F6
:100F20000268094B9A4200D0704782B000230193B7
:100F3000064B1A6C42F002021A641B6C03F00203A7
:100F40000193019B02B0704700040040003802404A
:100F500000B587B000230193029303930493059394
:100F600002680F4B9A4202D007B05DF804FB0023E1
:100F700000930C4B1A6B42F001021A631B6B03F0D7
:100F800001030093009B4023019302230293032259
:100F90000492059301A9044800F078FDE4E700BF3E
:100FA00000040040003802400000024000B58BB051
:100FB00000230893099301930293039304930593E9
:100FC000069307931748184A0260436083604FF600
:100FD000FF72C2600361836101F0DCFFC8B90023C6
:100FE0000893099308A90F4802F0A6F8A0B9602356
:100FF00001930523029300220392059201A9094857
:1010000002F02CF858B90748FFF7A2FF0BB05DF8C3
:1010100004FBFFF743FCE2E7FFF740FCE7E7FFF7DD
:101020003DFCF0E72001002000040040FEE7FEE761
:10103000FEE7FEE7FEE770477047704708B500F02F
:10104000A9FF08BD08B5082000F0D8FE08BD0000C3
:1010500082B0002100910B4B5A6C42F480425A64DA
:101060005A6C02F480420092009A01911A6C42F08C
:1010700080521A641B6C03F080530193019B02B0F1
:10108000704700BF00380240002800F0E08170B5D2
:1010900082B00446036813F0010F3BD09F4B9B685E
:1010A00003F00C03042B2CD09C4B9B6803F00C0327
:1010B000082B21D06368B3F5803F4FD0B3F5A02F44
:1010C00052D0964B1A6822F480321A601A6822F4C1
:1010D00080221A606368002B50D000F067FF05463D
:1010E0008E4B1B6813F4003F14D100F05FFF401BD0
:1010F0006428F5D90320B1E1884B5B6813F4800FB5
:10110000D8D0864B1B6813F4003F03D06368002BD4
:1011100000F09F81236813F0020F54D07F4B9B682F
:1011200013F00C0F3ED07D4B9B6803F00C03082B93
:1011300033D0E368002B68D0794B01221A6000F0AD
:1011400035FF0546754B1B6813F0020F54D100F0B4
:101150002DFF401B0228F5D903207FE16F4A136859
:1011600043F480331360B5E76C4B1A6842F4802275
:101170001A601A6842F480321A60ABE700F016FF7A
:101180000546664B1B6813F4003FC3D000F00EFF0A
:10119000401B6428F5D9032060E1604B5B6813F4C1
:1011A000800FC6D15D4B1B6813F0020F03D0E368BC
:1011B000012B40F05081594A136823F0F80321694C
:1011C00043EAC1031360236813F0080F42D0636938
:1011D0006BB3534B0122C3F8802E00F0E7FE0546A7
:1011E0004E4B5B6F13F0020F34D100F0DFFE401B5B
:1011F0000228F5D9032031E1484A136823F0F803A7
:10120000216943EAC1031360DDE7454B00221A6000
:1012100000F0CCFE0546414B1B6813F0020FD2D004
:1012200000F0C4FE401B0228F5D9032016E13C4B18
:101230000022C3F8802E00F0B9FE0546374B5B6FE5
:1012400013F0020F06D000F0B1FE401B0228F5D9C2
:10125000032003E1236813F0040F77D02F4B1B6C9E
:1012600013F0805F33D1002301932C4B1A6C42F0B2
:1012700080521A641B6C03F080530193019B01257B
:10128000284B1B6813F4807F23D0A368012B34D034
:10129000052B38D0214B1A6F22F001021A671A6F02
:1012A00022F004021A67A368002B3DD000F07EFEF6
:1012B00006461A4B1B6F13F0020F46D100F076FE64
:1012C000801B41F288339842F3D90320C6E0002501
:1012D000D6E7144A136843F48073136000F066FE87
:1012E0000646104B1B6813F4807FCED100F05EFEE3
:1012F000801B0228F5D90320B0E0084A136F43F0A1
:1013000001031367CFE7054B1A6F42F004021A6717
:101310001A6F42F001021A67C5E700BF00380240A9
:10132000000047420070004000F040FE0646524B6D
:101330001B6F13F0020F08D000F038FE801B41F243
:1013400088339842F3D9032088E0EDB9A369002BD4
:1013500000F08380484A926802F00C02082A51D0BB
:10136000022B17D0454B00221A6600F01FFE0446E0
:10137000414B1B6813F0007F42D000F017FE001BAA
:101380000228F5D9032069E03B4A136C23F080530F
:101390001364DBE7394B00221A6600F007FE0546AE
:1013A000354B1B6813F0007F06D000F0FFFD401B9B
:1013B0000228F5D9032051E0E369226A1343626AE7
:1013C00043EA8213A26A5208013A43EA0243E26AFC
:1013D00043EA0263284A5360284B01221A6600F050
:1013E000E5FD0446244B1B6813F0007F06D100F096
:1013F000DDFD001B0228F5D903202FE000202DE0A1
:1014000000202BE0012B2BD01B4B5B6803F48001E9
:10141000E269914226D103F03F02216A8A4223D138
:10142000616A47F6C0721A40B2EB811F1ED103F405
:101430004031A26A5208013AB1EB024F18D103F0D1
:101440007063E26AB3EB026F14D1002006E0012062
:101450007047012002E0012000E0002002B070BDD2
:101460000120FBE70120F9E70120F7E70120F5E77C
:101470000120F3E70120F1E7003802400000474275
:1014800008B5264B9B6803F00C03042B41D0082BB6
:1014900041D1224B5A6802F03F025B6813F4800F7F
:1014A00012D01E4B5968C1F388111D480023A1FBBF
:1014B0000001FEF71DFF194B5B68C3F301430133C5
:1014C0005B00B0FBF3F027E0144B5868C0F38810C2
:1014D0004FEA401CBCEB000C6EEB0E0E4FEA8E1375
:1014E00043EA9C634FEA8C11B1EB0C0163EB0E03F2
:1014F000DB0043EA5173C90011EB000C43F1000318
:10150000990200234FEA8C2041EA9C51FEF7F0FE3D
:10151000D1E7034800E0034808BD00BF003802409F
:1015200040787D010024F400002800F09B8070B515
:101530000D4604464F4B1B6803F00F038B4208D245
:10154000CBB24C4A1370136803F00F038B4240F088
:101550008B80236813F0020F17D013F0040F04D010
:10156000454A936843F4E0539360236813F0080FEF
:1015700004D0414A936843F4604393603E4A9368C1
:1015800023F0F003A1680B439360236813F0010F6D
:1015900032D06368012B21D09A1E012A25D9364A00
:1015A000126812F0020F61D033498A6822F00302F8
:1015B00013438B6000F0FAFC06462F4B9B6803F048
:1015C0000C036268B3EB820F16D000F0EFFC801BB7
:1015D00041F288339842F0D9032042E0264A12684B
:1015E00012F4003FE0D101203BE0234A126812F0E0
:1015F000007FD9D1012034E01E4B1B6803F00F039C
:10160000AB4207D9EAB21B4B1A701B6803F00F03F9
:10161000AB422DD1236813F0040F06D0164A93680D
:1016200023F4E053E1680B439360236813F0080F41
:1016300007D0114A936823F46043216943EAC10348
:101640009360FFF71DFF0C4B9B68C3F303130B4A1A
:10165000D35CD8400A4B18600A4B186800F05AFC5B
:10166000002070BD012070470120FAE70120F8E753
:101670000120F6E7003C024000380240FCEB000885
:101680002800002024000020014B1868704700BF8C
:101690002800002010B40A490C6924F440740C613D
:1016A0000C6944F440740C610C6944F001040C6151
:1016B0000260BFF36F8F43605DF8044B704700BF5B
:1016C000003C0240074B1A6922F440721A611A6901
:1016D00042F400721A611A6942F001021A61016053
:1016E000704700BF003C0240074B1A6922F4407269
:1016F0001A611A6942F480721A611A6942F0010291
:101700001A610180704700BF003C0240064B1A6915
:1017100022F440721A611A691A611A6942F00102D0
:101720001A610170704700BF003C0240274BDB6824
:1017300013F0100F07D0264AD36943F01003D3618A
:10174000224B1022DA60214BDB6813F0200F07D008
:101750001F4AD36943F00803D3611C4B2022DA608F
:101760001A4BDB6813F0400F07D0194AD36943F0D6
:101770000403D361154B4022DA60144BDB6813F08D
:10178000800F07D0124AD36943F00203D3610F4B95
:101790008022DA600D4BDB6813F4807F08D00C4A9E
:1017A000D36943F00103D361084B4FF48072DA60D0
:1017B000064BDB6813F0020F07D0054AD36943F0EC
:1017C0002003D361014B0222DA607047003C0240E3
:1017D00000000020094B1B69002B01DB0020704733
:1017E000064B074A5A6002F188325A601B69002B87
:1017F00001DB002070470120704700BF003C024021
:1018000023016745034A136943F000431361002035
:10181000704700BF003C024038B50446144B00221C
:10182000DA6100F0C3FB0546124BDB6813F4803F1E
:101830000AD0B4F1FF3FF7D024B100F0B7FB401B52
:10184000A042F1D903200DE00A4BDB6813F0010F31
:1018500002D0084B0122DA60064BDB6813F4F97FF3
:1018600001D1002038BDFFF761FF0120FAE700BF7A
:1018700000000020003C0240F8B516461B4A127ECC
:10188000012A30D004460D461F46184B01221A7615
:101890004CF25030FFF7C0FF90B9ACB1012C18D01A
:1018A000022C1BD032463B462846FFF7F3FE4CF293
:1018B0005030FFF7B1FF0E4A136923F001031361A3
:1018C0000A4B00221A76F8BDF1B22846FFF71EFF38
:1018D000EDE7B1B22846FFF707FFE8E731462846B3
:1018E000FFF7F0FEE3E70220EDE700BF0000002075
:1018F000003C024003461148026922F44072026132
:1019000003290ED0012913D00C490A6942F4004280
:101910000A610A4A106940EA032040F480301061ED
:101920007047026942F4004242F004020261F0E7AB
:1019300002490A6942F004020A61EAE7003C0240F7
:1019400001291ED002291FD009B14FF440710B2884
:1019500000D904300E4B1A6922F440721A611A69D8
:101960000A431A611A6922F0F8021A611A6942EAF6
:10197000C00242F002021A611A6942F480321A610E
:1019800070474FF48071E2E74FF40071DFE700BF6A
:10199000003C0240164B1B6813F4007F10D0144B20
:1019A0001A6822F400721A601A6842F400621A601F
:1019B0001A6822F400621A601A6842F400721A600F
:1019C0000B4B1B6813F4806F10D0094B1A6822F47C
:1019D00080621A601A6842F480521A601A6822F40F
:1019E00080521A601A6842F480621A60704700BF21
:1019F000003C0240F8B5234B1B7E012B40D004462F
:101A00000E46204B01221A764CF25030FFF704FFAD
:101A1000074680BB4FF0FF3333602368012B16D09D
:101A2000A568E368A2681344AB4222D9217C28460A
:101A3000FFF786FF4CF25030FFF7EEFE124A1369B3
:101A400023F0FA031361074690B90135E9E76168AD
:101A5000207CFFF74FFF4CF25030FFF7DDFE0746CA
:101A6000094A136923F4004323F00403136100E0DF
:101A70003560FFF78FFF034B00221A763846F8BD1A
:101A80000227FBE700000020003C024000230F2B50
:101A900000F2F68070B582B066E085684FEA430ECA
:101AA000032404FA0EF425EA0405CC6804FA0EF4C3
:101AB0002C438460446824EA02044A68C2F300129A
:101AC0009A40224342605DE0DC08083450F824204C
:101AD00003F00705AD004FF00F0E0EFA05FE22EAE7
:101AE0000E0E0A69AA4042EA0E0240F824205DE088
:101AF000092200E0002202FA0EF22A430234614D6C
:101B000045F82420604A94686FEA0C0224EA0C0528
:101B10004E6816F4801F01D04CEA04055A4CA560AB
:101B2000E46802EA04054E6816F4001F01D04CEA8E
:101B30000405554CE560646802EA04054E6816F435
:101B4000003F01D04CEA04054F4C656024682240F8
:101B50004D6815F4803F01D04CEA04024A4C2260E3
:101B600001330F2B00F28A8001229A400C6804EAAC
:101B7000020C32EA0404F3D14C6804F00304013C83
:101B8000012C8AD94A6802F00302032A09D0C468EA
:101B90005D000322AA4024EA02048A68AA40224384
:101BA000C2604A6802F00302022A8DD004684FEA3C
:101BB000430E032202FA0EF224EA02044A6802F0FB
:101BC000030202FA0EF2224302604A6812F4403F16
:101BD000C6D0002201922D4A546C44F480445464CF
:101BE000526C02F480420192019A9C08A51C254A7D
:101BF00052F8255003F0030E4FEA8E0E0F2202FA20
:101C00000EF225EA0205224A90423FF473AF02F534
:101C10008062904222D002F58062904220D002F58C
:101C2000806290421ED002F5806290421CD002F584
:101C3000806290421AD002F58062904218D002F57C
:101C40008062904216D002F58062904214D002F574
:101C5000806290423FF44CAF0A224CE701224AE7EF
:101C6000022248E7032246E7042244E7052242E72E
:101C7000062240E707223EE708223CE702B070BD9B
:101C8000704700BF00380140003C0140003802406E
:101C90000000024000230F2B00F29B80F0B52DE0E6
:101CA000092500E0002505FA0CF5A54275D0046869
:101CB0005D004FF0030C0CFA05FC24EA0C040460F0
:101CC0004FEAD30E0EF1080E50F82E4003F007062F
:101CD000B6000F25B54024EA050440F82E40C4683C
:101CE00024EA0C04C460446824EA02024260826868
:101CF00022EA0C02826001330F2B69D801229A403C
:101D000002EA010632EA0104F5D14FEA930E0EF120
:101D10000205304C54F8254003F0030C4FEA8C0CBC
:101D20000F2505FA0CF73C402B4DA842BAD005F51B
:101D30008065A84221D005F58065A8421FD005F531
:101D40008065A8421DD005F58065A8421BD005F529
:101D50008065A84219D005F58065A84217D005F521
:101D60008065A84215D005F58065A84213D005F519
:101D70008065A84294D00A2595E7012593E70225BE
:101D800091E703258FE704258DE705258BE70625D9
:101D900089E7072587E7082585E7104C256825EAA8
:101DA00006052560656825EA06056560E56825EA9B
:101DB0000605E560A56825EA0605A560054E0EF155
:101DC000020456F8245025EA070546F824506EE729
:101DD000F0BD70470038014000000240003C014067
:101DE0000369194201D001207047002070470AB1F1
:101DF00081617047090481617047000008B5054B97
:101E00005B69034200D108BD024B586108F0C0FC79
:101E1000F9E700BF003C0140074AD36823F4E063C0
:101E20001B041B0C000200F4E060034343F0BF639B
:101E300043F40033D360704700ED00E000B5194B68
:101E4000DB68C3F30223C3F1070CBCF1040F28BF06
:101E50004FF0040C03F1040EBEF1060F18D9033B3A
:101E60004FF0FF3E0EFA0CFC21EA0C0199400EFAED
:101E700003FE22EA0E020A4300280BDB1201D2B253
:101E800000F1604000F5614080F800235DF804FB3C
:101E90000023E5E700F00F001201D2B2024B1A5402
:101EA000F4E700BF00ED00E014ED00E0002807DBE0
:101EB00000F01F02400901239340024A42F82030FB
:101EC000704700BF00E100E000280CDB00F01F02BB
:101ED0004009012393402030034A42F82030BFF3E9
:101EE0004F8FBFF36F8F704700E100E00138B0F112
:101EF000807F0BD24FF0E0235861054AF02182F831
:101F000023100020986107221A6170470120704752
:101F100000ED00E010B504460E4B1A784FF47A73CA
:101F2000B3FBF2F30C4A1068B0FBF3F0FFF7DEFFEF
:101F300068B90F2C01D901200AE0002221464FF098
:101F4000FF30FFF77BFF054B1C60002000E0012005
:101F500010BD00BF20000020280000202400002029
:101F600008B50B4B1A6842F400721A601A6842F402
:101F700080621A601A6842F480721A600320FFF7C8
:101F80004BFF0F20FFF7C6FFFFF762F8002008BDE8
:101F9000003C0240034A1168034B1B780B4413605A
:101FA000704700BF6801002020000020014B186826
:101FB000704700BF6801002038B50446FFF7F6FF00
:101FC0000546B4F1FF3F02D0044B1B781C44FFF7D9
:101FD000EDFF401BA042FAD338BD00BF2000002017
:101FE0002DE9F04182B0054600230193D0F86880C6
:101FF00008F1120350F82340C66E012712E001A831
:1020000001F064FA019B43B32362A3600FE06B69A4
:1020100043F48043636015E003F1120255F8224057
:10202000013E9846DEB1D7B1236A002BE7D0002FDE
:10203000F8D0AB6D002BEAD16B6943F0004343F459
:1020400080436360236843F00043236008F1010389
:10205000032BE1D9A8F10303DEE70027E2E7EB6EEB
:10206000B34211D008F1030303F00303BFF35F8F02
:102070002A6903EB830302EBC3022B6803F5805349
:102080009A60C5F86880EE6602B0BDE8F081000095
:102090005079137943EA002307480B50D07893789E
:1020A0001B0443EA0063507843EA00231278134389
:1020B000024A8B50704700BF40800240448002407B
:1020C00030B4002208E0C468DC6051F80C3043F4FE
:1020D000400341F80C300132032A1FD8C16802EBDB
:1020E00082034FEAC30C01EBC303002441F80C4008
:1020F0005C609C60DC60941D40F8243051F80C401A
:1021000044F4801441F80C40022ADCD8541C04EB3F
:102110008404C56805EBC404DC60D6E70023836251
:10212000C268036803F580531A6130BC704710B46D
:10213000002202E00169D9600132032A28D804692B
:1021400002EB82034FEAC30C04EBC303002144F803
:102150000C1059609960D960196259624FF00041C2
:1021600044F80C10416941F480415960596821F0EC
:102170000041596002F1120140F82130022AD9D8F9
:102180000469511C01EB810104EBC104DC60D3E75D
:102190000023C36503668366C366836502690368BB
:1021A00003F58053DA605DF8044B7047F0B5856A3B
:1021B00000EB85039B698C681E68002EC0F2B78017
:1021C0002E1D00EB8606F669002E40F0B2802668D0
:1021D0009E605E6826F4FF5626F01F0667683E4341
:1021E0005E600E6816F0010F05D01E6826F44006EA
:1021F0004F693E431E600E6816F0200F05D01E6822
:1022000026F040660F693E431E60096811F0040F16
:1022100003D0196841F080011960196841F08051BC
:1022200019602F4600264FF0010E29E0196821F0B1
:102230008041196030E000EB8C039B69196800292C
:1022400032DB0CF1040100EB8101C96961BB196843
:1022500021F0805119600EF1010EA4682168996087
:10226000596821F4FF5121F01F0167683943596013
:102270000136BFF35F8F196841F00041196067466E
:10228000A16851B3196821F000511960002ACDD01E
:10229000196841F08041196007F1010CBCF1030F8E
:1022A000C9D9A7F1030CC6E700EB850399690022A1
:1022B00004E000EB8301896901321D4672450AD2B0
:1022C000BFF35F8F0B6823F000430B606B1C032B85
:1022D000EFD9EB1EEDE70220F0BD1AB31A6842F009
:1022E00080421A601A6842F000521A6000EB8505BD
:1022F000AA69BFF35F8F136843F000431360C26B9A
:102300003B1D00EB8303DA618762EFF31083012248
:1023100082F31088026C16440136066483F3108839
:102320000020D9E71A6822F080421A60DAE702201A
:10233000D2E70220D0E7000070B505460C460268DF
:1023400013683C491940A37B5B06207C002861D1BF
:102350004FF400000343607C00285DD14FF48000FF
:102360000343A0680343E07F43EA004360690343FB
:10237000A07F002852D14FF400500343207F43EA4E
:102380000033A0690343207943EA802394F82000B6
:10239000002845D14FF400700343E07B43EAC013AB
:1023A000606A034394F8280043EA00130B43136068
:1023B0002B681E680120FFF7FFFD2B681E6029684F
:1023C0008A6922F0BE021204120CA36C1B0494F85A
:1023D0004C0038BB80200343206D034394F8550024
:1023E000012821D00020034394F8560001281DD075
:1023F0000020034394F85400012819D0002003431F
:1024000013438B612B689C690120FFF7D5FD2B6876
:102410009C6170BD00209DE70020A1E70020ACE793
:102420000020B9E70020D6E70820DCE70420E0E739
:102430000220E4E70F8120FD70B505460C460268D6
:1024400002F580539B692B491940237B002B4DD10A
:102450004FF08063607B43EA4063607F002847D190
:102460004FF480100343A07B43EA40536069034369
:10247000207F43EAC013A07F43EA8013206A03430E
:1024800094F8240043EA80030B4302F580529361E1
:102490002B6803F580539E690120FFF78DFD2B68A3
:1024A00003F580539E612279A36843EA4263A269DF
:1024B00013432269134394F8252043EAC213A26A06
:1024C00043EA8203226813432A6843F4000302F5B7
:1024D000805213602B6803F580531C680120FFF7BE
:1024E0006BFD2B6803F580531C6070BD0023B1E7C2
:1024F0000020B7E7233FDEF870B5A4B006460125FB
:102500008DF83C508DF83D5000240D948DF84B40D3
:102510008DF84A508DF848408DF83A508DF830507B
:102520008DF84C408DF83B4014948DF854401D9428
:102530008DF878401F948DF882408DF880404FF4DC
:10254000804310934FF4006311938DF881400BA9E1
:10255000FFF7F2FE8DF80C508DF80D508DF81D50E0
:102560008DF80E5005948DF81C408DF81E4008948F
:102570008DF824508DF804504FF4803302934FF4BB
:10258000800306934FF4005304938DF825500A946A
:10259000009469463046FFF74FFF24B070BD10B578
:1025A00082B0044600230193036803F580539A69BF
:1025B00042F480129A61036803F580539B6901938A
:1025C0000120FFF7F9FC2368019A03F580539A6113
:1025D00002B010BD7047000000286CD030B583B049
:1025E0000446D0F88430002B34D000230193334BC1
:1025F0005A6C42F480425A645B6C03F4804301934A
:10260000019B2F4B5A6822F400025A605A68A16855
:102610000A435A605B68236803F580531A6842F0E6
:1026200001021A60FFF7C2FC0546236803F58053D8
:102630001B6813F0010F13D0FFF7B8FC401BB0F577
:10264000FA7FF2D90423C4F88830E023C4F8843038
:1026500001202EE02023C0F88430FFF7BBFFC4E741
:102660002046FFF749FF2046FFF72AFD2046FFF7E7
:102670005EFD626800212046FFF70AFD2268D36BE9
:1026800043F40273D3632268D2F80C3143F400336D
:1026900043F06003C2F80C312268D2F8103143F4E1
:1026A0000313C2F810310020C4F888001023C4F8C6
:1026B000843003B030BD0120704700BF00380240B5
:1026C0000038014038B5D0F88430102B01D00120FB
:1026D00038BD04462023C0F884300423C366FFF7C6
:1026E0007FFC2268136843F00803136023681D68A9
:1026F0000120FFF761FC23681D602268136843F026
:102700000403136023681D680120FFF755FC23684C
:102710001D602046FFF743FF236803F580539A6945
:1027200042F400529A61236803F580539A6942F09B
:1027300002029A614023C4F884300020C8E7F8B54B
:10274000044631B11546D4F88430402B09D001201D
:10275000F8BDD0F8883043F00103C0F8883001207C
:10276000F6E700222046FFF721FD002835D1BFF310
:102770004F8FA36A9A1D54F822600133A362032B82
:1027800001D9043BA362A26A2368063254F82220CE
:1027900003F580535A60FFF709FC07463368002BA6
:1027A00030DA236803F58052526912F4005F1CD1BD
:1027B000B5F1FF3FF2D0FFF7F9FBC01BA84201D8EB
:1027C000002DEBD1D4F8883043F00403C4F88830EE
:1027D0004FF0405333600120BAE7D4F8883043F01B
:1027E0000203C4F888300120B2E7D4F8882042F010
:1027F0000802C4F8882003F580535B69C4F88C3064
:102800000120A5E70020A3E72DE9F84F044681B198
:102810008A46D0F88430402B6CD1C76D07F1120383
:1028200050F82350C36EC3F104094FF00008464628
:1028300034E0D0F8883043F00103C0F8883001203C
:1028400059E02B6813F4007F02D0002323666366EF
:102850002B68C3F30D4B2B6813F4807F03D02B68D8
:1028600023674FF00108AA682A625B4604F18001E1
:1028700004F17C0000F050FE236E01332366636E8A
:102880005B44636600232B627B1C032B00D9FB1E79
:1028900003F1120254F8225001361F462B68002B18
:1028A00014DB4E4512D2B8F1000F0FD12B6813F490
:1028B000807F03D0EB69A367AB6963672B6813F470
:1028C000007FBED1E36F002BBBD1DDE7E36E1E447A
:1028D000E6662EB9E765B8F1000F05D101200AE0E0
:1028E0002046FFF77DFBF5E7E36FCAF800300020D4
:1028F000E06700E00120BDE8F88F00002DE9F04717
:1029000082B00546884617461E46FFF74FFB0A9BD6
:102910001B1A03EB0609FFF749FB82462A4B1B688B
:10292000C3F3CB3309FB03F301932B689C6838EAAC
:1029300004040CBF01230023BB4240D0B6F1FF3F8B
:10294000F3D0FFF733FBA0EB0A00484506D2B9F1FC
:10295000000F03D0019B73BB9946E6E72A685368D2
:1029600023F0E00353606B68B3F5827F0BD0AB6A52
:10297000B3F5005F14D0012385F85130002385F8AA
:10298000503003201CE0AB68B3F5004F02D0B3F524
:10299000806FECD12A68136823F040031360E6E7E8
:1029A0002A68136823F4005313602A68136843F4F9
:1029B00000531360DFE7019B013B0193B5E7002063
:1029C00002B0BDE8F08700BF2800002070B584B0D9
:1029D00004460D46164600920B4601220221FFF7DF
:1029E0008DFFD0B9174B1B68174AA2FB03235B0D61
:1029F0004FF47A7202FB03F303936368B3F5827FAB
:102A000011D0039B3BB1039B013B039323689B685D
:102A100013F0800FF5D104B070BD636D43F0200357
:102A200063650320F7E700962B46002280212046AD
:102A3000FFF764FF0028EED0636D43F02003636569
:102A40000320E8E728000020819F5E1600285AD066
:102A500010B50446436A33B94368B3F5827F05D0A5
:102A60000023C36102E00023036143610023A362EA
:102A700094F85130002B40D0022384F85130226862
:102A8000136823F040031360636803F48273A26841
:102A900002F404421343E26802F400621343226921
:102AA00002F002021343626902F001021343A269B9
:102AB00002F400721343E26902F038021343226AFF
:102AC00002F080021343A26A02F400522168134309
:102AD0000B60638B03F00403626A02F0100221684A
:102AE00013434B602268D36923F40063D361002051
:102AF0006065012384F8513010BD84F850302046C1
:102B0000FEF7C0F9B8E70120704790B110B5044650
:102B1000022380F851300268136823F040031360E9
:102B2000FEF7E8F90020606584F8510084F8500051
:102B300010BD012070472DE9F04383B0044688465C
:102B400091461F460A9DFFF731FA064694F8513028
:102B5000DBB26268012B0AD0B2F5827F40F00581BA
:102B6000A268002A40F00581042B40F00481B8F1EE
:102B7000000F00F00281B9F1000F00F00081002F7A
:102B800000F0FF8094F85030012B00F0FC8001230E
:102B900084F8503094F85130DBB2042B02D0052376
:102BA00084F8513000236365C4F83890E787A7871D
:102BB000C4F83080E786A7862364636423681A68B4
:102BC00012F0400F03D11A6842F040021A60E36825
:102BD000B3F5006F11D063680BB1012F0BD1226BDD
:102BE000236812781A73236B01332363E38E9BB23D
:102BF000013B9BB2E386012771E063680BB1012FB3
:102C00000BD1226B23681288DA60236B02332363B3
:102C1000E38E9BB2013B9BB2E38601271BE0236856
:102C20009A6812F0010F0ED0E28F92B25AB1DA68B0
:102C3000A36B1A80A36B0233A363E38F9BB2013BA8
:102C40009BB2E3870127FFF7B1F9801BA84202D3AB
:102C5000B5F1FF3F1ED1E38E9BB21BB9E38F9BB250
:102C6000002B62D023689A6812F0020FD7D0E28E50
:102C700092B2002AD3D0002FD1D0226B1288DA6012
:102C8000236B02332363E38E9BB2013B9BB2E3864B
:102C90000027C4E7012384F85130002384F8503022
:102CA000032063E023689A6812F0010F0ED0E28FD0
:102CB00092B25AB1DA68A36B1A70A36B0133A363A3
:102CC000E38F9BB2013B9BB2E3870127FFF76EF9CD
:102CD000831BAB4202D3B5F1FF3F1ED1EDB1E38EB2
:102CE0009BB213B9E38F9BB2FBB123689A6812F0D1
:102CF000020FD7D0E28E92B2002AD3D0002FD1D0CB
:102D0000226B12781A73236B01332363E38E9BB219
:102D1000013B9BB2E3860027C4E7012384F85130CE
:102D2000002384F85030032020E032462946204614
:102D3000FFF74CFE90B9A36833B901932368DA68B2
:102D400001929B680193019B012384F85130002379
:102D500084F85030636D4BB1012007E02023636598
:102D6000002384F85030012000E0022003B0BDE8C9
:102D7000F0830220FAE70220F8E70120F6E70120BD
:102D8000F4E70120F2E70220F0E790F851007047E5
:102D9000406D704730B4036A026A22F00102026299
:102DA0004268846924F0730C0C6844EA0C0423F034
:102DB000020C8B6843EA0C03114DA84203D005F5C1
:102DC0008065A84205D123F00803CD682B4323F08A
:102DD00004030B4DA84203D005F58065A84207D136
:102DE00022F440724D6945EA020C8A6942EA0C02FB
:102DF000426084614A684263036230BC704700BF2E
:102E00000000014030B4036A026A22F48072026258
:102E10004268C46924F0730C0C6844EA0C0523F47E
:102E200000738C6843EA0423114CA04203D004F5DC
:102E30008064A04206D123F40063CC6843EA0423F3
:102E400023F480630A4CA04203D004F58064A042BE
:102E500007D122F440524C6942EA04128C6942EADA
:102E600004124260C5614A68C263036230BC7047A5
:102E70000000014030B4036A026A22F48052026208
:102E80004468C26922F4E6420D6842EA052223F44E
:102E900000538D6843EA0533094DA84203D005F578
:102EA0008065A84204D124F480444D6944EA851425
:102EB0004460C2614A680264036230BC704700BF6C
:102EC000000001400368324A904212D0B0F1804FB6
:102ED0000FD0A2F57C4290420BD002F58062904266
:102EE00007D002F58062904203D002F5784290420A
:102EF00003D123F070034A681343254A90422AD035
:102F0000B0F1804F27D0A2F57C42904223D002F549
:102F1000806290421FD002F5806290421BD002F581
:102F20007842904217D002F57052904213D002F5C9
:102F3000806290420FD002F5806290420BD0A2F5E1
:102F40009832904207D002F58062904203D002F599
:102F50008062904203D123F44073CA68134323F084
:102F600080034A6913438A68C2620A688262084A17
:102F7000904203D002F58062904201D10A69026357
:102F8000026842F00402026001224261036070475D
:102F90000000014040B310B5044690F83D30F3B155
:102FA000022384F83D30214651F8040BFFF78AFFD5
:102FB000012384F8463084F83E3084F83F3084F8AA
:102FC000403084F8413084F8423084F8433084F84B
:102FD000443084F8453084F83D30002010BD80F83E
:102FE0003C30FDF79DFFDBE70120704730B4036AFA
:102FF000026A22F0100202624468826922F4E64208
:103000000D6842EA052223F020038D6843EA051388
:10301000114DA84203D005F58065A84206D123F0E2
:103020008003CD6843EA051323F040030A4DA8420C
:1030300003D005F58065A84207D124F440644D69AA
:1030400044EA85048D6944EA8504446082614A68E3
:103050008263036230BC70470000014038B590F8CD
:103060003C30012B66D004460D46012380F83C30ED
:103070000C2A5AD8DFE802F0075959591B595959F7
:103080003059595944000068FFF784FE226893695B
:1030900043F0080393612268936923F0040393616A
:1030A0002268936929690B43936100203EE0006820
:1030B000FFF79CFF2268936943F4006393612268E1
:1030C000936923F48063936122689369296943EAD1
:1030D00001239361002029E00068FFF793FE226836
:1030E000D36943F00803D3612268D36923F0040352
:1030F000D3612268D36929690B43D361002015E0AD
:103100000068FFF7B7FE2268D36943F40063D36118
:103110002268D36923F48063D3612268D369296963
:1031200043EA0123D361002000E00120002384F85A
:103130003C3038BD0220FCE790F83C20012A3DD00D
:1031400010B40346012280F83C20022280F83D2082
:1031500002685068946820F0700C086840EA0C001F
:1031600050601A68164882421AD0B2F1804F17D0C8
:10317000A0F57C40824213D000F5806082420FD0DF
:1031800000F5806082420BD000F57840824207D083
:1031900000F57050824203D0A0F59430824204D1F1
:1031A00024F08004496821439160012283F83D2086
:1031B000002083F83C005DF8044B70470220704704
:1031C00000000140034AD2F8883043F47003C2F88B
:1031D0008830704700ED00E010B403460C4A0D49FA
:1031E0000D48006850B10C4800680344521A9342DD
:1031F00008D8094A13605DF8044B70470648074C2D
:103200000460F0E7064B0C221A604FF0FF30F2E743
:1032100000000320000400006C01002060C40220B4
:1032200050C4022001207047024B16221A604FF052
:10323000FF30704750C4022008B54FF0FF31FFF750
:10324000F3FFFEE770B50C461646002506E0AFF327
:103250000080214601F8010B01350C46B542F6DB32
:10326000304670BD70B50C461646002504E014F8D3
:10327000010BAFF300800135B542F8DB304670BD7D
:103280004FF0FF3070474FF400534B600020704701
:10329000012070470020704700B583B000230193E0
:1032A000054B1B781BB1019803B05DF804FB01A925
:1032B0000248FFF7A9FAF6E7B0020020EC0200206E
:1032C00030B58DB00C4630252A46002168460AF0FC
:1032D00055F92A46002168460AF050F92246002393
:1032E00003E01168E9B1013312681AB3032B2DD83A
:1032F000516803EB43000CAD05EB800040F8301C37
:10330000518940F82C1C002BEBD0581E03EB4301D5
:103310000DEB810100EB400005EB800040F8281C1C
:10332000DFE703EB43010CA800EB8101002041F82B
:10333000280CD8E7238907494B60C1F808D04C63B3
:1033400014220548FFF7FBF9002001E06FF00B00A5
:103350000DB030BDB4020020EC0200202DE9F04198
:1033600082B004462C4D2D4B2B6000268DF800605A
:1033700080238DF80130E1238DF802308DF8036051
:103380008DF804608DF80560C5F804D04FF4000393
:10339000AB60234BEB60234B2B614FF4C0636B613D
:1033A0002846FFF719F90746DFF8808038223146B2
:1033B00040460AF0E3F82123C8F800304FF44003F8
:1033C000C8F81430184800F005FD062384F82C30A6
:1033D0006B681A7884F826205A7884F827209A781F
:1033E00084F82820DA7884F829201A7984F82A20A9
:1033F0005B7984F82B3040F2DC53A38494F82D30B1
:1034000043F00A0384F82D3017B902B0BDE8F0810B
:10341000FDF744FAF9E700BFEC020020008002400B
:10342000100200207001002060EC0008B4020020AF
:1034300008B50146054800F023FD054B1B78012B1C
:1034400000D008BD024B00221A70FAE760EC0008B9
:10345000B002002038B5054600E074B12846FFF7F9
:103460001BFF04460028F8D02B69294698470028FE
:10347000F3D0204600F0E4FFEFE738BD10B5044676
:1034800070B1732384F82E30742384F82F30084BE6
:103490006361084BA3612046FFF760FF002010BD69
:1034A000054B40F25B12054905480AF06FF8E8E762
:1034B000E98F0008C13200080CEC000828EC000875
:1034C00038EC000808B5FEF771FD08BD10B582B0F4
:1034D00004460E4800F0A2FC88B1034600F1200229
:1034E00022600B4A02614FF4C0620192226800928E
:1034F00041220021084600F039FF02B010BD054B03
:1035000001221A7000232360F7E700BF60EC000877
:1035100031340008B002002030B4A2F120040025AC
:1035200042F8205C22F8185C22F8163C026822B1AE
:103530000A6814600C60026805E00460FAE711890B
:10354000194411811268002AF9D130BC704708B5BE
:1035500090F82D3013F0040F02D000F017FE08BDD4
:1035600000F032FEFBE70000F0B585B03C4FC02014
:103570003870A82179700B22BA706423FB70394E21
:10358000FF2333707370B3700024F470364D2870CD
:103590006970AA700123EB7000F031F93A787B78FA
:1035A0001B0443EA0263BA7843EA0223F9780B4327
:1035B0001A0202F47F0242EA0162190A01F47F4111
:1035C0000A4342EA136329490B60327873781B047B
:1035D00043EA0263B27843EA0223F07803431A0213
:1035E00002F47F0242EA0062180A00F47F400243BC
:1035F00042EA13631E4A136028786B781B0443EA7F
:103600000063A87843EA0023ED782B43180200F406
:103610007F0040EA05601D0A05F47F45284340EA23
:103620001360144B186014480290144801900094E1
:10363000134800F013FD78B1114C204600F0A0FDB6
:103640001049204600F004FE204600F09FFD204671
:1036500000F0DAFD05B0F0BDFDF720F9ECE700BFA2
:10366000284D00202C4D0020244D0020684D0020C6
:103670006C4D0020644D0020C53600087D340008E4
:10368000304D00204F35000810B50D4C2046FFF797
:10369000E1FE04F063FF94F82D3013F0040F06D020
:1036A000074B93F82D3013F0010F04D010BD2046C6
:1036B00000F0AAFDF4E7024800F068FDF6E700BF5D
:1036C000304D002070B5044643890E2B1CD90D46A1
:1036D000C37B1BB991F830300133C37360688689AE
:1036E000037813F0010F0AD0012B12D006221E49D5
:1036F00009F00CFF18B9637B43F008036373082ECD
:1037000012D0B6F5C16F1FD0204600F099FE002000
:1037100070BD4378002BF2D183785E2BEFD1637BB1
:1037200043F010036373EAE795F82D3013F0080FA8
:10373000EAD00E21204600F03DFE0028E4D12946C3
:10374000204605F079FEE2E795F82D3013F0080FDA
:10375000DAD00E21204600F02DFE0028D4D12946D3
:10376000204605F055FAD2E7D4EC00082DE9F041E7
:1037700005460C4616461F46BDF8180000F02EF808
:1037800080460E21204600F010FEE8B96168A1F8DD
:103790000C803B680B60BB888B803368C1F80630B7
:1037A000B3884B8195F82C30062B05D1AB692146A7
:1037B00028469847BDE8F081054B4FF499720549BA
:1037C000054809F0E3FEF1E76FF00100F2E700BF02
:1037D0006CEC0008A0EC000838EC0008030A43EA8F
:1037E000002080B27047030203F47F0343EA0063C2
:1037F000020A02F47F42134343EA1060704708B59F
:1038000000F0C8F800F0FAFA00F0F0FB04F016FF40
:1038100001F0B8F904F08EFE08BD0000014B1B68F2
:10382000184470478C4D0020024B1B68C01A80B2B0
:10383000704700BF8C4D0020F8B50446FFF7F4FF39
:10384000074625882846FFF7E9FF06466488204694
:10385000FFF7E4FFB5F5804F10D8B4F5804F0FD8CF
:10386000BC4202D00388BB420CD1094B1B68B34257
:103870000AD07388BB4209D1012000E00020F8BDC6
:103880000020FCE70020FAE70120F8E70020F6E737
:10389000904D002038B50446354B1B68834240D814
:1038A000344B1B68A34244D92379002B49D1238888
:1038B000B3F5804F4DD82088FFF7B0FF844216D073
:1038C0000379A3B92B4B1B68834210D02A4B1B688A
:1038D000834246D0038823800088B0F5804F06D00D
:1038E000FFF79CFF05462046FFF79EFF6880608833
:1038F000FFF794FF0546844212D0037983B91E4B2B
:103900001B68A34230D023882B802088B0F5804FDD
:1039100006D0FFF783FF04462846FFF785FF608047
:1039200038BD164B40F2DF121549164809F02EFE3D
:10393000B6E7124B4FF4F0721349124809F026FE15
:10394000B2E70E4B40F2E11210490E4809F01EFE9C
:10395000ADE70A4B4FF4F2720D490A4809F016FE22
:10396000A9E7054B1C60B5E7034B1860CBE700BF28
:103970008C4D0020904D0020884D0020E4EC000884
:1039800010ED000838EC000828ED000844ED0008B0
:1039900060ED000838B50B4C24F003040A4B1C60A2
:1039A0004FF4804525800023638023712846FFF76C
:1039B00035FF064B18600123037105804580044BD9
:1039C0001C6038BD974D00208C4D0020904D00208C
:1039D000884D0020002844D038B5044610F0030F6D
:1039E0001FD1A0F108051F4B1B68AB4221D800F185
:1039F0000C031D4A126893421BD810F8043C03B311
:103A00002846FFF719FF20B3002304F8043C174BA6
:103A10001B68AB4201D9154B1D602846FFF73AFFE2
:103A20000EE0134B40F273221249134809F0AEFD29
:103A300006E00F4B40F27F2210490F4809F0A6FD27
:103A400038BD0B4B4FF423720D490B4809F09EFD16
:103A5000F6E7074B40F295220A49074809F096FD20
:103A6000EEE770478C4D0020904D0020884D0020DF
:103A7000E4EC00088CED000838EC0008B0ED00081C
:103A8000CCED0008F4ED00082DE9F8430546CC1C08
:103A9000A4B224F00304A4B20B2C04D9B4F5804FD3
:103AA00002D9002599E00C248C42C0F095804D4B42
:103AB0001B68AB4203D84C4B1B68AB4206D84B4B40
:103AC00040F2D1224A494B4809F060FD454B1B6842
:103AD000AB4200F28280444B1B68AB427DD9A5F11A
:103AE0000800FFF7A1FE064635F8088CA8EB000891
:103AF0001FFA88F8A8F108081FFA88F8444529D861
:103B000044456DD869D035F8087C3846FFF786FE05
:103B100081460379002B33D1B7F5804F22D0B9F815
:103B200000703444A4B20834A4B2334B1B684B4534
:103B300020D02046FFF772FE0023037107804680E5
:103B400025F8084C0088B0F5804F46D0FFF766FE98
:103B5000448042E0254B4FF439722849254809F04A
:103B600015FDCDE7214B40F2F5222549214809F00A
:103B70000DFDD4E72046FFF751FE1F4B1860D8E734
:103B800004F11403434528D83444A4B20834A4B241
:103B9000B7F5804F18D02046FFF740FE164B1B6844
:103BA000834201D9144B18600023037135F8083C97
:103BB0000380468025F8084C0088B0F5804F0CD073
:103BC000FFF72CFE448008E0084B40F216320C4907
:103BD000084809F0DBFCDEE700252846BDE8F8834D
:103BE0000025FAE78C4D0020904D0020E4EC000801
:103BF00028EE000838EC0008884D002040EE000850
:103C000060EE0008002800F09A802DE9F04103469C
:103C1000C61CB6B226F00306B6B20B2E04D9B6F512
:103C2000804F02D9002088E00C269E42C0F0898097
:103C3000454B1868FFF7F8FD05464CE0434B40F252
:103C400087324349434809F0A1FC62E00123037134
:103C50003D4B1868A0420FD0274408373E4B1B68E5
:103C60009F421FD814F0030524D15DBB04F1080066
:103C700063E00088FFF7D2FD03791BB1364A126872
:103C80008242F6D1304A1060334A12688242E3D051
:103C9000002BE1D02D4B40F2B53230492D4809F0D0
:103CA00075FCD9E7294B40F2B9322D49294809F072
:103CB0006DFCD7E7254B40F2BB322A49254809F075
:103CC00065FCD2E7214B40F2BD322749214809F07B
:103CD0005DFCCBE72588A8463746C6F580439D4264
:103CE0002AD22846FFF79AFD04460379002BF1D12A
:103CF0000388A3EB0803083BBB42EBD307F1140294
:103D00009342A3D32E44B6B20836B6B2B6F5804F6E
:103D100094D03046FFF782FD00230371238803808F
:103D200045802680012323710088B0F5804F8FD015
:103D3000FFF774FD46808BE70020BDE8F08100208E
:103D400070470020F9E700BF884D0020E4EC000830
:103D500060EE000838EC0008904D002074EE00087A
:103D600090EE0008C0EE0008F0EE000810B5836881
:103D70001C6824B122681A6014F0030F01D1204698
:103D800010BD044B4FF48C720349044809F0FEFB4C
:103D9000F5E700BF14EF000844EF000838EC000816
:103DA00038B505460C4611F0030F05D1AB681B680A
:103DB0002360AB681C6038BD034B4FF4B6720349F7
:103DC000034809F0E3FBF1E714EF000868EF00088F
:103DD00038EC0008836800221A604368033323F03C
:103DE000030307E081680968196081680B60018836
:103DF0000B44013241889142F4DC704710B5002435
:103E000006E0054B53F82400FFF7E4FF0134A4B2A9
:103E1000082CF6D910BD00BF44F0000810B50446C8
:103E200020B15CB12046FFF7A1FF10BD044B4FF459
:103E30009E720449044809F0A9FBF2E72046F4E722
:103E400014EF000888EF000838EC000808B50828CF
:103E500005D8074B53F82000FFF788FF08BD054B36
:103E600040F257120449054809F090FB0020F5E79D
:103E700044F0000814EF00089CEF000838EC00083C
:103E800038B50C46054630B125B11CB1214628464F
:103E9000FFF786FF38BD044B40F2951203490448F2
:103EA00009F074FBF0E700BF14EF000888EF00088A
:103EB00038EC000808B5082806D821B1064B53F89D
:103EC0002000FFF76DFF08BD044B4FF4D572044985
:103ED000044809F05BFBF6E744F0000814EF000823
:103EE000BCEF000838EC00080B688268934205D0EC
:103EF00011B18360012070470023FAE7002070476A
:103F00000B68C268934205D011B1C36001207047AD
:103F10000023FAE7002070476FF00B00704738B5B8
:103F200004460D4601F056FE2946204604F054FC96
:103F300038BD000038B50C46054670B195F82D30F7
:103F400003F00502052A07D114F0010F04D06A68B6
:103F500012B113F0080F08D138BD064B40F26D3294
:103F60000549064809F012FBE8E7291D284604F038
:103F7000ABFEF1E768F0000898F0000838EC0008A4
:103F800070B582B0044615460E4639B175B1326837
:103F900063689A4212D1002002B070BD104B40F20B
:103FA000CB121049104809F0F1FAEFE70C4B4FF42F
:103FB000E6720C490C4809F0E9FAE8E701922B6037
:103FC00001A92846FFF7ABFF3EB1336863600121CA
:103FD0002046FFF7AFFF0120DEE70023F6E700BF32
:103FE00068F00008BCF0000838EC000870470000DA
:103FF0002DE9F04182B0044616461D460F46D9B160
:10400000E6B1EDB10FB13B68E3B901AA39462046EC
:10401000FFF7B6FF4FF00108002231462046FFF7B8
:1040200063FF002229462046FFF76AFFB8F1000F20
:104030000BD002B0BDE8F081074FE1E7064EE0E7A4
:10404000054DDFE74FF00008E6E701AA39462046B4
:10405000FFF796FFEDE700BFB80A010870B5059CB1
:10406000064610B3002C29D0002930D0002A30D0C9
:10407000002B30D000207060B060F060364D75616C
:10408000B08486F82D00F0610498306233480078DF
:1040900086F83000069830613046FFF7A9FF3046B9
:1040A000A04700283ED0002050E02D4B40F22712C0
:1040B0002C492D4809F06AFA304647E0284B4FF466
:1040C00094722A49284809F061FA00203EE0284904
:1040D000CCE7274ACCE7264BCCE7002386F83030E4
:1040E00024E01F4B40F28B1222491F4809F04EFA80
:1040F00009E094F8302096F830309A420ED02468C7
:104100007CB1B442EDD00135FF2DF2DD144B40F20D
:104110008D121949144809F039FAEAE7013386F893
:1041200030303CB196F83030FF2BD6D0134B1C68A2
:104130000025E5E796F83030FE2B08D00133074A1A
:1041400013700E4B1A6832601E60304670BD034B10
:1041500000221A70F5E700BF193F0008A0CF002029
:1041600068F00008CCF0000838EC0008E8F000081F
:10417000B80A01080CF1000820F100089CCF0020CB
:10418000014B1860704700BF98CF002008B528B1D8
:1041900090F82D3013F0010F08D008BD074B4FF4F5
:1041A00054720749074809F0F1F9F6E743F00103B3
:1041B00080F82D300321FFF7BDFEEEE768F0000820
:1041C00050F1000838EC000808B560B190F82D30C7
:1041D00013F0010F06D003F0FE0380F82D3013F02A
:1041E000080F08D108BD054B40F29B320449054831
:1041F00009F0CCF9F6E704F0EFFCF3E768F000080B
:104200006CF1000838EC000810B530B1044690F8A5
:104210002D3013F0040F08D010BD0A4B4FF4787204
:1042200009490A4809F0B2F9F6E743F0040380F8B7
:104230002D300321FFF77EFEE369002BECD02046F2
:104240009847E9E768F000088CF1000838EC0008AE
:1042500000B1C16170470000024658B1064B1868B2
:1042600038B190F830300133DBB2934203D00068AC
:10427000F6E77047002070479CCF002010B4002460
:1042800004604160028143819DF8043003739DF80E
:104290000830437301238373C4735DF8044B704784
:1042A00070B50C4616460546C0B13DB3B4F5803F27
:1042B00026D23CB3A2B22B8913449BB2934223D3A0
:1042C00095F90C10002911DB06B369680C1B6C60B2
:1042D00069890A446A812B81002012E00C4B40F26C
:1042E000DF120C490C4809F051F9DEE769680C1B34
:1042F00005F11001A142EAD9012002E0012000E00D
:10430000012070BD0020FCE70120FAE70120F8E75A
:10431000B0F10008E0F1000838EC0008F0B583B017
:1043200006460D461446412A01D0012A0FD1072026
:10433000FFF78CFD074638B10023019300942B460C
:104340002A463146FFF79AFF384603B0F0BD044BCA
:104350004FF4A5720349044809F018F9E7E700BFD4
:10436000B0F10008ECF1000838EC000810B582B09C
:1043700084468E46184604990CF1030C2CF0030C6D
:104380000EEB0C04BDF814309C420CD801B1614412
:10439000044602230193009273467246FFF76EFFB4
:1043A000204602B010BD0024FAE708B50022FFF74E
:1043B00077FF08BD38B50C46054690B115B3B4F586
:1043C000803F21D214B3A2B26B89934211D36968A2
:1043D000214469609B1A6B812B899B1A2B810020D9
:1043E00038BD0B4B40F24B220A490B4809F0CEF87E
:1043F000E4E7074B40F255220849074809F0C6F8A0
:104400000120EDE70120EBE70120E9E70020E7E7E5
:10441000B0F10008E0F1000838EC000800F20008F4
:1044200008B5002902DBFFF73BFF08BD4942FFF753
:10443000C1FFFAE708B50122FFF7F2FF08BD00004F
:1044400070B510B10446002517E0284B4FF43772C1
:104450002749284809F09AF80025284670BD234BC3
:1044600040F2F1222449234809F090F80AE0236938
:10447000204698470135EDB23446002CEDD0A37BA1
:10448000002BECD0A37B013BDBB2A373002BE4D168
:104490002668237B03F00F03627B12F0020F0AD021
:1044A0002369002BE3D1114B40F2FF22134911483D
:1044B00009F06CF8DBE7022B06D0012B09D06BB9B1
:1044C0002046FFF787FAD5E721460820FFF7F2FCE0
:1044D000D0E721460720FFF7EDFCCBE7034B40F286
:1044E0000F320749034809F051F8C3E7B0F100085B
:1044F000E0F1000838EC000820F2000838F200086B
:104500005CF200082DE9F04782B00E46904685B275
:10451000B2F5C17F46D004460ED8012A02D0412A06
:1045200040F08380424631460020FFF7F7FE814687
:10453000484602B0BDE8F087B2F5207F75D103355B
:1045400025F00305ADB2CA1C93B223F003032B443C
:104550009BB203F1100080B222F0030293426ED3AB
:1045600082426FD8FFF74EFB81460028E0D004F16D
:1045700010010144033100230193CDF8008033463C
:10458000324621F00301FFF779FED9F8043013F029
:10459000030FCDD02D4B4FF491722D492D4808F0CB
:1045A000F5FFC5E70027B94611E0B9F1000F02D0C9
:1045B0004846FFF745FFB946BAE7B9F1000F32D0D8
:1045C000CAF80070341BA6B20025002EB0D0BA463F
:1045D0000820FFF73BFC07460028E6D0EB1C23F041
:1045E00003039BB2C3F5BE6304339CB2B44228BF3D
:1045F000344605F110010144033100230193CDF845
:1046000000802346324621F00301FFF737FE7B6826
:1046100013F0030FD1D00D4B4FF480720E490D48AB
:1046200008F0B4FFC9E7B946CCE7084B40F22712BF
:104630000A49084808F0AAFF4FF0000978E74FF050
:10464000000975E74FF0000972E700BFB0F10008FC
:10465000D4F2000838EC000870F2000800F30008FB
:10466000F8B50E460446B8B12789B7422ED935466B
:104670006389AB4218D2EB1A9DB22389F21B134413
:1046800023812468002CF3D11A4B40F2AF121A494F
:104690001A4808F07BFFEBE7164B4FF4CC72184931
:1046A000164808F073FFDFE7227B12F00F0F05D1E9
:1046B000AB4203D0637B13F0020F08D065812581E4
:1046C000206808B1FFF7BCFE00232360F8BD6368D3
:1046D0001B1BE91889B22046FFF7D6F904460028CB
:1046E000ECD1044B40F2BD120649044808F04EFFDD
:1046F000E4E700BFB0F1000834F3000838EC00082C
:104700001CF300084CF300080346002002E00130CF
:1047100080B21B68002BFAD17047000070B108B559
:10472000837B0133DBB2837303B108BD044B40F2DA
:1047300042320449044808F029FFF6E7704700BFF9
:10474000B0F1000868F3000838EC000838B510B183
:104750000D46044661B9154B40F2593214491548CB
:1047600008F014FF19E023892889034423811446A3
:104770002268002AF7D1228963899A420ED12368E0
:1047800033B10A4B40F263320B490A4808F0FEFE8F
:1047900023892A8913442381256038BD034B40F2C5
:1047A00062320649034808F0F1FEE8E7B0F100087C
:1047B0007CF3000838EC0008E4F30008B4F30008C8
:1047C0002DE9F04148B10C46054631B102890B890B
:1047D0009A4202D30027B8463AE03A4B40F2C93237
:1047E00039493A4808F0D2FE6FF00F0068E0354BC7
:1047F00040F2D9323649354808F0C8FE3CE0314B2A
:1048000040F2DA323349314808F0C0FE37E02D6813
:1048100015B14FF000083AE014B94FF0000836E047
:10482000284B4FF479722C49284808F0AFFE6FF0FE
:104830000F0045E023687BB3224B40F2E932274961
:10484000224808F0A3FE6FF0050039E0002C36D0B6
:104850006E89A6EB08066389DB1B9E4200D31E46C9
:104860006868616832463944404408F05FFEB044ED
:1048700037446B894345BAD36389BB42BFD363894D
:10488000BB4201D8246800276B894345BFD01CB1C7
:10489000628923899A42CDD0002DD7D06A892B898D
:1048A0009A42D3D12B68002BD0D0064B40F2EE3287
:1048B0000A49064808F06AFE6FF0050000E0002093
:1048C000BDE8F081B0F10008F4F3000838EC00080E
:1048D00024F400083CF4000858F4000868F40008C8
:1048E0002DE9F84330B188469146054669B1002765
:1048F0003E462AE01B4B40F20A421B491B4808F087
:1049000045FE00273846BDE8F883164B40F20B42BF
:104910001749164808F03AFE0027F3E76C89E41AB5
:10492000A4B2A14500D24C4669682246194408EB5E
:10493000060008F0FBFD2744BFB22644B6B2A9EB3F
:1049400004041FFA84F900232D68B9F1000FD9D0AF
:10495000002DD7D0002BE1D06A899A42DED89B1A6D
:104960009BB2F1E7B0F1000894F4000838EC0008BD
:10497000B4F4000838B514460A462189FFF7C2FD91
:10498000054618B12146FFF71BFF08B9284638BD78
:10499000034B40F224520349034808F0F7FDF5E7C2
:1049A000B0F10008D8F4000838EC00084FF0000C13
:1049B0000BE0164B4FF440421A800FE00CF1010C53
:1049C0001FFA8CFCBCF5804F1DD2104A13880133AE
:1049D0009BB213804FF6FF729342EAD00020032867
:1049E0000ED80B4B53F820301B6833B1D98A074AD5
:1049F00012889142E2D0DB68F7E70130C0B2EEE7FF
:104A0000024B188870470020704700BF300000201C
:104A100058FB000838B504460D4639B9074BFF224C
:104A20000749084808F0B2FD00E0E4682CB1A36F24
:104A3000AB42FAD10023A367F7E738BDECF40008D6
:104A400018F5000838EC000838B5054620B12B7D74
:104A5000012B09D1012417E00D4B40F211120D4931
:104A60000D4808F093FDF2E7094B4FF489720B49AA
:104A7000094808F08BFDEDE7094B53F8243029462F
:104A80001868FFF7C7FF0134032CF5D938BD00BF04
:104A9000ECF4000840F5000838EC00084CF500087C
:104AA00058FB000810B50446037D012B04D02146B5
:104AB0000220FFF7FFF910BD034BDF220349044832
:104AC00008F064FDF3E700BFECF4000864F50008AB
:104AD00038EC000838B5054648B12B7D042B1FD0B3
:104AE000072B26D0032B0AD00024204638BD174BB5
:104AF0004FF4CE721649174808F048FDEDE72846F6
:104B000003F0CAF8044608B905232B75D4B1B4F1F3
:104B1000FF3FEAD16B8B43F008036B830024E4E78B
:104B2000284603F0B9F804460028EFD105232B7579
:104B3000ECE7284603F0B0F804460028E6D1092344
:104B40002B75E3E7284603F01FFACEE7ECF40008E4
:104B500040F5000838EC0008094B186878B110B52A
:104B600001E0204654B1C468438B13F0080FF8D01D
:104B700023F008034383FFF7ADFFF2E710BD704752
:104B8000A4CF002008B508F019FD6FEA80406FEA55
:104B90009040014B188008BD3000002010B504463D
:104BA000037D012B04D021460120FFF783F910BDBE
:104BB000034BD4220349044808F0E8FCF3E700BFA4
:104BC000ECF4000880F5000838EC000870B50646E3
:104BD0000D4659B166B1337DA3B9EAB1002003286F
:104BE0001EDC264B53F820301B6827E0244DF1E7EC
:104BF000244B40F2A9222449244808F0C7FC6FF056
:104C00000F0019E01F4B40F2AB2221491F4808F06A
:104C1000BDFC6FF005000FE0FFF7C8FE0246F0B1E3
:104C200015B12B6803B13360F2821A4B1A68F26037
:104C30001E6003F045FC002070BDDB686BB1D98AB3
:104C40009142FAD173B1196879B18DB12C6894B1E0
:104C5000A142F2D16FF00700EEE70130BFE76FF03D
:104C60000100E9E76FF00700E6E76FF00700E3E710
:104C70006FF00700E0E76FF00700DDE758FB000882
:104C8000B80A0108ECF4000894F5000838EC0008B4
:104C9000ACF50008ACCF002070B51646044640B312
:104CA000037D002B30D1012B51D00220FFF7CEF82D
:104CB000054600284FD023690361E38AC38201239C
:104CC0000375637D4375637A437200230372E37A4D
:104CD000C372A37A837223680360E38A3BB31F4BDA
:104CE0001B68A3421BD003B3DA68A2421BD0134651
:104CF000F9E71B4B40F259321A491B4808F046FCB1
:104D000025466FF00F031EE0154B40F25A3217494B
:104D1000154808F03BFC6FF00E03002513E0DA683D
:104D20000E4B1A6001E0E268DA600023E36020467F
:104D3000FFF734FF0E4BAB610E4B1A68EA601D6043
:104D400003F0BEFB002306B13370284670BD054654
:104D50006FF00803F7E74FF0FF33F4E7ACCF002024
:104D6000ECF40008D4F5000838EC000804F600085C
:104D70006D590008B0CF002008B50022FFF78CFF66
:104D800008BD000038B5044698B1656A218D6818E1
:104D9000E26AB4F832E040F6683CE64594BF02EBC4
:104DA0000E0302EB0C03C31A002B0ADB6185801A89
:104DB00038BD0E4B40F2A6320D490E4808F0E6FB16
:104DC000E3E7AB1A002B03DD002363850020EFE748
:104DD000551BB5F5803F01D26585F7E7034B40F2DF
:104DE000B6320549034808F0D1FBF5E7ECF40008BA
:104DF0003CF6000838EC000860F6000838B5C0B191
:104E00000C460546037D012B1BD02B8D191989B249
:104E100041F2D062914201D88B421AD941F2D0635B
:104E20002B852846FFF7AEFF40F66733984212D82D
:104E300038BD0D4B40F2CF320C490D4808F0A6FBAF
:104E4000F6E7094B40F2D2320A49094808F09EFBC6
:104E5000DBE72985E5E76B8B43F002036B8328468C
:104E600003F092F8E4E700BFECF400087CF60008D9
:104E700038EC000894F6000850B110B504464068BC
:104E800008B1FFF7DDFA21460320FFF713F810BD44
:104E9000704738B110B50468FFF7EEFF2046002CCC
:104EA000F9D110BD7047000008B508B1417508BDC3
:104EB000034B4FF4CE620349034808F067FBF6E763
:104EC000ECF40008BCF6000838EC000880B138B5F6
:104ED0000C460546037D012B02D0C5F8804038BD45
:104EE000044B40F2DF720449044808F04FFBF4E73A
:104EF000704700BFECF40008D8F6000838EC000852
:104F000078B138B50C460546037D012B01D0EC671E
:104F100038BD044B40F2F3720349044808F036FBF5
:104F2000F5E77047ECF4000800F7000838EC0008DB
:104F300080B138B50C460546037D012B02D0C5F87B
:104F40008C4038BD044B40F60D020449044808F07B
:104F50001DFBF4E7704700BFECF4000828F70008D9
:104F600038EC000810B1027D012A00D07047816141
:104F7000FCE7000070B548B10D4614460646037DB7
:104F8000012B0BD0C6F88850747770BD074B40F6E4
:104F90003D020749074808F0F9FAF6E7034B40F6E7
:104FA0003E020549034808F0F1FAEBE7ECF400088B
:104FB00050F7000838EC000868F7000810B5C8B1D1
:104FC0000446037DABB10A2B13D0012B11D0406FE7
:104FD00018B1FFF735FA002363674FF6FF73238696
:104FE000E06EFFF756FF206FFFF753FF0023E366E5
:104FF000236710BD034B40F651020349034808F0F4
:10500000C5FAF6E7ECF4000888F7000838EC000869
:105010002DE9F04184B0A84A136801331360A74A10
:10502000137801331370A64B1C68002786E1A54B4B
:1050300040F2BE42A449A54808F0A8FA84E1A14B79
:1050400040F2BF42A249A14808F0A0FA80E19D4B7E
:105050004FF498629F499D4808F098FA7CE12746F2
:10506000E4686BE194F84230052B40F28081012521
:105070006FE0944B40F2D5429749944808F086FA85
:105080008CE1204602F084FC60B1002384F8943067
:1050900094F89530062B00F29380013384F8953014
:1050A000002556E0204602F06FFF0028EDD10025D4
:1050B0004FE0B4F930309BB247F6FE72934201D80C
:1050C00001332386B4F93020B4F940309A4240DBF2
:1050D000204602F013FE20B1236F002B39D1E36E7E
:1050E000BBB3237D022B14D094F842200C2A28BF96
:1050F0000C22B4F93C10B4F93E3003EBE1037749DC
:105100008A5C934047F6FE7293421EDC1BB2A4F801
:10511000403000232386B4F86030B4F8482093422E
:1051200028BF13465B08A4F84A30618E4A0092B249
:10513000934201D2A4F84A20A4F848100023A4F80E
:105140006830204603F074F803E047F6FF73DEE7AB
:105150000125227D062A35D0637A13F0080604D093
:10516000042A3CD0072A3AD00026237D032B64D0A2
:10517000092B6BD0002D72D1E568237F0133DBB2A0
:105180002377627F9342C0F0D78000232377544A6D
:105190001370D4F88830002B00F0C68021462069B7
:1051A00098474F4B1B78002B7FF43DAF002800F051
:1051B000BD8027462C46C1E00125CAE70025C8E787
:1051C0000025C6E7638B13F0100FC5D0216A3A4B58
:1051D0001B685B1A282BBFD90135EDB2BCE7364BF3
:1051E0001A68236AD21AD4F8901001F5242303F622
:1051F000B8433C48A0FB0303B2EB531F03D901356E
:10520000EDB20126B1E794F89730374800FB03115F
:10521000344BA3FB0131B2EB511F01D80026A4E7A8
:10522000204603F03BF830B994F89730013384F806
:105230009730002699E7002697E7216A1E4A1268F0
:10524000521A282A94D90135EDB291E7226A1A4BF5
:105250001B689B1AF02B8DD90135EDB28AE7D4F883
:105260008C502046FFF7AAFE002F41D0144B1B683C
:10527000A34218D0E368FB60002E48D1D4F8108018
:10528000E6682046FFF78AFC154B00221A701DB114
:105290006FF00C014046A847114B1B78002B7FF4A0
:1052A000C2AE34464AE0074B40F26D520F49074800
:1052B00008F06CF9DEE700BFB4CF0020B9CF0020C2
:1052C000A4CF0020ECF40008A4F7000838EC000894
:1052D000D0F70008FCF7000860F8000848FB000859
:1052E000A8CF0020D34D6210F824010098F80008E0
:1052F0005D4B1B68A34206D05C4B40F271525C4987
:105300005C4808F043F9E268574B1A60B4E7231D84
:10531000626A216D208B0290E08A019000932346FF
:10532000204602F0AFFDA9E700203AE7204602F050
:105330002BFE27462C4601E027462C46002C50D059
:10534000237D002B3FF473AE237D012B3FF477AE1A
:10535000237D0A2B3FF47BAEA27F474B1B789A42FA
:105360003FF47DAEA377237D022B3FF47BAE94F810
:1053700042300B2B3FF6ECAE94F89550002D3FF4E5
:1053800098AE236F33B1394B40F2D4423B49394890
:1053900008F0FCF8E36E002B3FF46BAE94F8963007
:1053A0000B2B3FF609AF94F89530013B344AD25CA1
:1053B00094F89430934202D2013384F8943094F8F4
:1053C00094309342FFF4FAAEB4F8601000297FF4F1
:1053D00058AE204602F090FF00283FF456AE00255C
:1053E000B7E6284B1D6807E02A6A274B1B689B1A03
:1053F000F02B0ED82C46ED68002D31D02B7D0A2BDA
:10540000F2D01A4B40F2A15220491A4808F0BEF8D7
:10541000EAE72846FFF7D2FD9CB11A4B1B68AB4266
:1054200007D0EB68E360EE682846FFF7B7FB354628
:10543000E2E70E4B40F2AF5215490E4808F0A6F8CD
:10544000EFE7104B1B68AB4206D0084B40F2B3525B
:105450001049084808F09AF8EA680A4B1A60E2E72F
:1054600004B0BDE8F08100BFA4CF0020ECF4000838
:10547000C4F8000838EC0008B9CF00202CF8000868
:1054800068FB0008BCCF0020B4CF0020F0F8000873
:1054900020F9000848F9000838B505460C4649B11E
:1054A00085B12B68A34215D0CBB1DA68A24214D0E3
:1054B0001346F9E7214B40F683022149214808F0C1
:1054C00065F8EDE71D4B40F684021F491D4808F0C2
:1054D0005DF8E6E7DB682B6001E0E268DA60002354
:1054E000E3602046FFF76AFD237D0A2B05D0012BE0
:1054F00003D0638B13F0010F18D1237D012B11D042
:10550000E36E33B10D4B40F6930210490D4808F09D
:105510003DF8236F33B1094B40F694020C4909481A
:1055200008F034F800232375E38238BD43F002030A
:105530006383204602F028FDDFE700BFECF400089B
:1055400070F9000838EC00088CF90008ACF9000884
:10555000C4F9000830B585B00D46044680B125B1C8
:10556000237D042B14D0072B12D0237D012B6DD06B
:10557000022B77D0002B50D02046FFF7ABFA47E044
:105580003E4B4FF4AF723E493E4807F0FFFFE6E75F
:10559000636FE3B1638B13F0100F1ED0231D228BBA
:1055A0000292E28A019200932346626A216D2046AC
:1055B00002F068FC2046FFF701FD334B1B68A34255
:1055C00013D0C3B1DA68A24213D01346F9E7228D93
:1055D00041F2D0639A42C8D0DCE7284B4FF4B27254
:1055E0002A49284807F0D2FFD8E7DA68264B1A6024
:1055F00001E0E268DA600023E360254B01221A70C3
:10560000244B1B68A34205D02046FFF7C7FA0020B1
:1056100005B030BD01F03EFDF9E7E38A8BB11E4BCA
:105620001B68A34205D053B1DA68A24205D01346E5
:10563000F9E7DA68184B1A6001E0E268DA600023E3
:10564000E3602046FFF7AAFA0020E1E72046FFF7D3
:10565000FBF921461148FFF71FFF2046FFF722FA0A
:105660000020D5E721460848FFF716FF084B012226
:105670001A702046FFF792FA0020C9E7ECF4000800
:10568000E0F9000838EC0008A4CF002000FA000878
:10569000A8CF0020E8CF0020ACCF0020B0CF002062
:1056A00008B560B10346027D012A03D0428B42F067
:1056B0001002428301211846FFF74CFF08BD054B3D
:1056C0004FF4F4720449054807F060FF6FF00F00D3
:1056D000F4E700BFECF400081CFA000838EC0008FE
:1056E00010B551B1144608468AB11189FFF786FBFF
:1056F0002046FEF7A5FE002010BD084B4FF4D362F4
:105700000749084807F042FF6FF00F00F4E70BB1BC
:105710000020F1E7FFF7C4FFEEE700BFECF400085C
:1057200034FA000838EC0008F8B520B30446466F98
:10573000777B00234367D0F8805035B3324601466B
:105740000069A847054645BB17F0200F2BD0238DD5
:1057500041F2D062934201D001332385D4F88060B6
:105760000EB300231A4621462069B04710F10D0FF1
:1057700019D1054617E00D4B40F209620C490D485E
:1057800007F004FF6FF00F050DE0002332460146DD
:105790001846FFF7A5FF0546D5E715F10D0F02D016
:1057A00066676FF004052846F8BD00BFECF40008FA
:1057B00050FA000838EC000870B51C4A1378013321
:1057C00013701B4B1C6813E043F0020363832046F5
:1057D00002F0DAFB638B23F00303638313E023F00F
:1057E000080363832046FFF775F910E0E5682C464F
:1057F000DCB1A27F0D4B1B789A42F7D0A377638B65
:1058000013F0010FE0D1638B13F0080FE7D1E568C7
:10581000636F002BEBD0074E002333702046FFF759
:1058200083FF3378002BE2D0CBE770BDB9CF0020E7
:10583000A4CF0020A8CF002008B5FFF7BDFF064A7F
:1058400013780133DBB2137013F0010F00D108BDE0
:10585000FFF7DEFBFBE700BFB8CF00202DE9F047E4
:1058600084B0F8B10D460446037D012B22D0237D80
:105870000A2B27D0D4F85080D4F82490D4F88C6028
:105880002769002B43D1B4F816A0BAF1000F48D015
:105890002B4B1B68A3421DD013B3DA68A2421DD064
:1058A0001346F9E7274B40F23D222749274807F0E6
:1058B0006DFE29E0234B4FF410722549234807F071
:1058C00065FED4E721462348FFF7E6FD2046FFF7B3
:1058D00065F919E0DA681A4B1A6001E0E268DA60EB
:1058E0000025E560AA46206F08B1FFF7D2FAE06E06
:1058F00008B1FFF7CEFAB5B92046FFF74FF91EB150
:105900006FF00C013846B04704B0BDE8F087B4F83A
:1059100016A021461048FFF7BFFD104B01221A7058
:10592000E1E70025DFE7231D228B0292CDF804A0DA
:10593000009323464A464146204602F0A3FADBE79D
:10594000ACCF0020ECF4000878FA000838EC00082E
:1059500094FA0008BCCF0020A4CF0020A8CF0020DC
:1059600008B50121FFF77AFF08BD000010B50C460D
:1059700029B12046FFF7F4FF6FF00C0010BD044B77
:1059800040F20F320349044807F000FEF1E700BF80
:10599000ECF40008C8FA000838EC000808B50A4B17
:1059A0001B684FF0000C604600E0DB6843B1196AE9
:1059B000064A1268521A6245F7D394461846F4E72D
:1059C00008B1FFF7CDFF08BDBCCF0020B4CF002049
:1059D00010F0800F01D108B970477F2038B5013829
:1059E000C2B20F4B1B684FF0000C604607E00D4A37
:1059F0001268186AA2EB000C0A461846DB685BB115
:105A0000597D9142F3D3F9D1064C24681D6AA4EB69
:105A1000050EE645F2D3EAE708B1FFF7A1FF38BD6E
:105A2000A4CF0020B4CF002070B50C46054660B965
:105A30000A4B4FF410620A490A4807F0A7FD04E038
:105A4000E6682046FFF78CFF34462CB122682B68AD
:105A50009A42F5D0E468F8E770BD00BFECF40008A6
:105A6000E8FA000838EC000838B50446A0F108034D
:105A7000DBB2012B04D8104B1B680021084608E05C
:105A80000E4B40F2DD620E490E4807F07FFDF2E753
:105A9000DB685BB11A7DA242FAD10B4A12681D6A1B
:105AA000521B8A42F4D311461846F1E710B1002187
:105AB000FFF7D4FE38BD00BFA4CF0020ECF40008EF
:105AC0001CFB000838EC0008B4CF002038B50546B0
:105AD0000120FEF7BBF9044668B354B398220021B5
