:020000040800F2
:1000000000000320D9E1000841140008431400084F
:1000100045140008471400084914000800000000B7
:100020000000000000000000000000004B14000869
:100030004D140008000000004F140008511400087F
:1000400029E2000829E2000829E2000829E2000864
:1000500029E2000829E2000829E2000829E2000854
:1000600029E200085914000829E2000829E20008E2
:1000700029E2000829E2000829E2000829E2000834
:1000800029E2000829E2000829E2000829E2000824
:1000900029E2000829E2000829E2000829E2000814
:1000A00029E2000829E2000829E2000829E2000804
:1000B00029E2000829E2000829E2000829E20008F4
:1000C00029E2000829E2000829E2000829E20008E4
:1000D00029E2000829E2000829E2000829E20008D4
:1000E00029E2000829E2000829E2000829E20008C4
:1000F00029E2000829E2000829E2000829E20008B4
:1001000029E2000829E2000829E2000829E20008A3
:1001100029E2000829E2000829E2000829E2000893
:1001200085D3000829D4000829E2000829E2000844
:1001300029E2000829E2000829E2000829E2000873
:1001400029E2000829E2000829E2000829E2000863
:1001500029E2000829E2000829E2000829E2000853
:1001600029E2000829E2000829E2000829E2000843
:1001700029E2000829E2000829E200080000000046
:1001800029E2000829E2000829E2000829E2000823
:1001900029E2000829E2000829E2000829E2000813
:0C01A000000000000000000029E2000840
:1001B00010B5054C237833B9044B13B10448AFF3A1
:1001C00000800123237010BDC80000200000000043
:1001D000A0F6000808B5034B1BB103490348AFF371
:1001E000008008BD00000000CC000020A0F6000840
:1001F00001F0FF01102A2BDB10F0070F08D010F8D8
:10020000013B013A8B422DD010F0070F42B3F6D1DB
:10021000F0B441EA012141EA014122F007047FF0F4
:1002200000070023F0E80256083C85EA010586EA4B
:10023000010685FA47F5A3FA87F586FA47F6A5FA87
:1002400087F68EB9EED1F0BC01F0FF0102F0070293
:1002500032B110F8013B013A83EA010313B1F8D13E
:100260000020704701387047002D06BF354603381F
:10027000073815F0010F07D1013015F4807F02BF58
:10028000013015F4C03F0130F0BC0138704700BFA9
:100290004FEA4102B2F1E04324BFB3F5001CDCF1A8
:1002A000FE5C0DD901F0004C4FEAC0024CEA5070E0
:1002B000B2F1004F40EB830008BF20F0010070470F
:1002C00011F0804F21D113F13872BCBF01F0004012
:1002D000704741F480114FEA5252C2F11802C2F144
:1002E000200C10FA0CF320FA02F018BF40F00100C5
:1002F0004FEAC1234FEAD32303FA0CFC40EA0C0077
:1003000023FA02F34FEA4303CCE77FEA625307D1B3
:1003100050EA01331EBF4FF0FE4040F440007047EA
:1003200001F0004040F0FE4040F40000704700BF84
:1003300053B94AB9002908BF00281CBF4FF0FF314C
:100340004FF0FF3000F06EB9ADF1080C6DE904CE4E
:1003500000F006F8DDF804E0DDE9022304B07047A0
:100360002DE9F047089D04468C46002B40F0838021
:100370008A42174647D9B2FA82F242B1C2F120004E
:1003800024FA00F09140974040EA010C94404FEA73
:100390001748230CBCFBF8F61FFA87FE08FB16C1B2
:1003A00043EA014306FB0EF1994209D9FB1806F115
:1003B000FF3080F01981994240F21681023E3B44A1
:1003C0005B1AA4B2B3FBF8F008FB103344EA034411
:1003D00000FB0EFEA64509D93C1900F1FF3380F061
:1003E0000581A64540F2028102383C4440EA0640BD
:1003F000A4EB0E0400261DB1D4400023C5E9004340
:100400003146BDE8F08702B9FFDEB2FA82F2002A77
:1004100050D1CB1B4FEA174E1FFA87F80126B3FBCA
:10042000FEFC210C0EFB1C3341EA034108FB0CF3DC
:100430008B4207D979180CF1FF3002D28B4200F2BF
:10044000E9808446C91AA3B2B1FBFEF00EFB10117D
:1004500043EA014408FB00F8A04507D93C1900F124
:10046000FF3302D2A04500F2D9801846A4EB08045D
:1004700040EA0C40BFE78B4209D9002D00F0B18063
:100480000026C5E9000130463146BDE8F087B3FAE1
:1004900083F6002E4AD18B4202D3824200F2B8800A
:1004A000841A61EB030101208C46002DA8D0C5E918
:1004B000004CA5E7C2F1200320FA03F6974001FAA9
:1004C00002F04FEA174ED9403043030CB1FBFEF661
:1004D0001FFA87F80EFB161143EA014306FB08F1E9
:1004E000994204FA02F409D9FB1806F1FF3C80F0A6
:1004F0008D80994240F28A80023E3B445B1A81B271
:10050000B3FBFEF00EFB103341EA034100FB08F39E
:100510008B4207D9791800F1FF3C73D28B4271D915
:1005200002383944CB1A40EA064678E7C6F1200C77
:1005300003FA06F422FA0CF31C4320FA0CF701FA32
:1005400006F34FEA144E21FA0CF11F433B0CB1FBAA
:10055000FEF91FFA84F80EFB191143EA014109FB69
:1005600008FA8A4502FA06F200FA06F308D9611879
:1005700009F1FF3048D28A4546D9A9F10209214440
:10058000A1EB0A01BFB2B1FBFEF00EFB101147EA6E
:10059000014700FB08F8B84507D9E71900F1FF311A
:1005A0002ED2B8452CD90238274440EA0940A7EB9F
:1005B0000807A0FB02894F45C64649461AD317D003
:1005C0005DB1B3EB0E0267EB010707FA0CFCF240DA
:1005D0004CEA0202F740C5E9002700263146BDE893
:1005E000F0872E4628460BE70646E9E61846FDE664
:1005F0004345E5D2B8EB020E69EB04010138DFE7B1
:100600000846D2E760468DE78146B9E7664675E75A
:1006100030464AE7ACF1020C394413E702383C4457
:1006200024E700BF704700BF86B0002200921F4B36
:10063000196B41F000711963196B01F000710091A1
:1006400000990192196B41F080611963196B01F0F7
:100650008061019101990292196B41F00061196367
:10066000196B01F00061029102990392196B41F03C
:1006700000711963196B01F00071039103990492E1
:10068000196B41F080611963196B01F0806104916D
:10069000049905921A6B42F000621A631B6B03F017
:1006A00000630593059B06B0704700BF0038024009
:1006B00082B000230193084B5A6C42F480425A6482
:1006C0005B6C03F480430193019B044A536843F439
:1006D0000003536002B07047003802400038014008
:1006E000C0F38200013805280AD8DFE800F00305CE
:1006F00009090B07044870470448704704487047CD
:100700000448704704487047ECF60008D4F6000827
:10071000E0F60008C0F60008C8F600082DE9F04F22
:1007200099B02E4C214600200DF046FD2C4A5379FD
:100730000093137912682B4900200DF03DFD2A4DDE
:10074000294600200DF038FD214600200DF034FD33
:10075000264A5378139391781491D0781590137991
:1007600051799079D4791694167A1796567A977AA1
:1007700092F80BC092F80CE092F80D8092F80E906F
:1007800092F80FA0B2F810B054691094CDF83CB0B4
:10079000CDF838A0CDF83490CDF83080CDF82CE0ED
:1007A000CDF828C009970896179E0796169C0694C0
:1007B0000590049103931598029014990191139B4D
:1007C00000931378927C0A4900200DF0F5FC29462D
:1007D00000200DF0F1FC19B0BDE8F08FF8F600082C
:1007E0004000002000F700082CF700084800002017
:1007F00030F7000808B50E4900200DF0DDFC0D4B68
:1008000093F82D3013F0010F0DD0012213F0040FD7
:100810000BD00123084900200DF0CEFC0749002031
:100820000DF0CAFC08BD0022F0E70023F2E700BF8C
:10083000F8F6000888410220A4F700082CF7000809
:1008400008B50DF04DFA002108460DF027FA0249CF
:1008500000200DF0B1FC08BDC4F7000800B589B058
:10086000002200921D4B196B41F001011963196BB5
:1008700001F00101009100990192196B41F0020110
:100880001963196B01F00201019101990292196B30
:1008900041F0040119631B6B03F004030293029BF4
:1008A000022304930592032306930B2307938623C5
:1008B000039303A90A4801F0F3FA4FF4605303933A
:1008C00003A9084801F0ECFA3223039303A9064870
:1008D00001F0E6FA09B05DF804FB00BF0038024001
:1008E00000000240000402400008024010B50A4C1B
:1008F00000224021204601F078FC142001F058FD30
:1009000001224021204601F070FC4FF4967001F066
:100910004FFD002010BD00BF00080240002876D027
:100920002DE9F0418EB00446027843781B0443EA77
:100930000263827843EA0223C1780B431A0202F46D
:100940007F0242EA0162190A01F47F410A4342EA46
:1009500013630D93027943791B0443EA026382799E
:1009600043EA0223C1790B431A0202F47F0242EAEE
:100970000162190A01F47F410A4342EA13630C93AE
:10098000027A437A1B0443EA0263827A43EA02232F
:10099000C17A0B431A0202F47F0242EA0162190A89
:1009A00001F47F410A4342EA13630B930BAB0CAA99
:1009B0000DA9174803F000FD164900200DF0FCFBBF
:1009C000A378E27821796079A579E679277A94F895
:1009D00009C094F80AE094F80B80CDF82480CDF893
:1009E00020E0CDF81CC0069705960495039002916F
:1009F0000192009363782278074900200DF0DCFB18
:100A0000064900200DF0D8FB0EB0BDE8F08170471C
:100A100088410220F8F60008CCF700082CF70008FF
:100A200008B501F037F80B4B98420AD80A4B9842A8
:100A300009D80A4B984208D2094B984207D90C2092
:100A400000E0102008BD0420FCE70020FAE70820A1
:100A5000F8E700BF7FD1F008FFE0F50500879303BA
:100A6000BF0E1602002A37D02DE9F04105460E468A
:100A70009046FFF7D5FF074601F094FC0446174B5C
:100A80001B6913F0010F07D001F08CFC031B642BD2
:100A9000F5D90320BDE8F081EB029BB2B60106F464
:100AA000F86633431F4347F001070C4B1F6101F009
:100AB00079FC0446094B1B6913F0010F06D001F0C5
:100AC00071FC001B6428F5D90320E3E7034B5B6945
:100AD000A8F800300020DDE70120704700800240C8
:100AE000002876D070B582B00646002404604460C9
:100AF0008460C460046107E04FF6FF72934223D024
:100B0000072B26D00134E4B21F2C5FD80023ADF8A8
:100B10000630ADF804300DF1060202212046FFF741
:100B2000A1FF054601AA03212046FFF79BFF002DE8
:100B3000E8D10028E6D1BDF80630002BDCD1BDF8A5
:100B40000420002AD8D1DDE7BDF804109142D7D1A6
:100B5000D8E7BDF8043023F00F039BB24CF2F0024B
:100B60009342CFD1012535707470BDF80630738083
:100B7000BDF80430B380B21D00212046FFF772FF9C
:100B800006F1080229462046FFF76CFF06F10A022B
:100B900029462046FFF766FF06F10C020421204695
:100BA000FFF760FF06F10E0205212046FFF75AFF0E
:100BB00006F1100206212046FFF754FF06F112024B
:100BC0001F212046FFF74EFF002000E0022002B068
:100BD00070BD012070470000F0B589B0054601F0F6
:100BE000E1FB044602E0642001F0E2FB01F0DAFBE5
:100BF000001BA84227D203A8FFF772FF0646002871
:100C0000F1D1BDF8163003F02403242BEBD1244995
:100C10000DF0D2FA9DF80D40BDF80E50BDF81070E1
:100C2000BDF81E00FFF75CFD019000972B462246A1
:100C30001C4900200DF0C0FA1B4900200DF0BCFA41
:100C4000304609B0F0BD03A8FFF74AFFC8B91749FD
:100C50000DF0B2FA9DF80D50BDF81660BDF81E40BB
:100C60002046FFF73DFD0190009433462A46104987
:100C700000200DF0A1FA0C4900200DF09DFA01268C
:100C8000DEE70A4900200DF097FA0A4900200DF02E
:100C900093FA054900200DF08FFA0126D0E700BF36
:100CA000F8F6000814F800082CF700085CF80008B3
:100CB00064F80008C4F8000808B50A4B93F82D3012
:100CC00013F0010F06D0074B93F82D3013F0040FEB
:100CD00004D008BD034803F03DFCF4E7014803F0ED
:100CE00077FCF6E78841022000B583B00CF0F8FFEE
:100CF000002108460CF0D2FF104D294600200DF0CF
:100D00005BFA0F4900200DF057FA0E4C21460020E7
:100D10000DF052FA294600200DF04EFA0A490A68F1
:100D20008B6849680091094900200DF045FA214679
:100D300000200DF041FA72B6FEE700BF5CF8000833
:100D4000F4F800082CF70008003802400CF90008FD
:100D500000B595B03022002108A80DF0C1FA00239B
:100D60000393049305930693079301932D4A116C03
:100D700041F080511164126C02F080520192019A8C
:100D80000293294B1A6842F440421A601B6803F42C
:100D900040430293029B012308934FF4803309934D
:100DA00002230E934FF480020F92192210924FF4F7
:100DB000A872119212930423139308A800F06EFBFB
:100DC00098B90F23039302230493002305934FF450
:100DD000A05306934FF480530793052103A800F016
:100DE000A9FD80B915B05DF804FB104900200DF095
:100DF000E3F90F4900200DF0DFF90E4900200DF056
:100E0000DBF9FFF771FF094900200DF0D5F90A4918
:100E100000200DF0D1F9074900200DF0CDF9FFF7C2
:100E200063FF00BF00380240007000405CF800081B
:100E300044F900082CF7000860F9000870B5FFF7C6
:100E4000FFFC9F4900200DF0B7F99E4900200DF0EE
:100E5000B3F99D4C214600200DF0AEF901F07CFA6B
:100E60009A4D294600200DF0A7F9994900200DF070
:100E7000A3F9214600200DF09FF9FFF769FF2946ED
:100E800000200DF099F9934900200DF095F92146C5
:100E900000200DF091F900F047F9294600200DF0EF
:100EA0008BF98D4900200DF087F9214600200DF0C7
:100EB00083F9FFF7FDFBFFF7D1FCFFF7B5FB2946F0
:100EC00000200DF079F9854900200DF075F92146D3
:100ED00000200DF071F9FFF709FD68B1804900208D
:100EE0000DF06AF97F4900200DF066F921460020D7
:100EF0000DF062F9FFF7F8FE744D294600200DF061
:100F00005BF9794900200DF057F96F4C214600201C
:100F10000DF052F900F09EF9294600200DF04CF931
:100F2000724900200DF048F9214600200DF044F9E7
:100F300000F046FA294600200DF03EF96C490020E9
:100F40000DF03AF9214600200DF036F9694E314690
:100F500069480CF0C9FBFFF7E1FB02F0EBFC294606
:100F600000200DF029F9654900200DF025F92146F2
:100F700000200DF021F93046FFF7D0FC604801F069
:100F800091FD044608B102282CD1504900200DF0F3
:100F900013F922465B4900200DF00EF94A49002062
:100FA0000DF00AF9FFF788FEFFF724FC41F28830C4
:100FB000FFF712FE28BBFFF77FFE4F4B58790CF06E
:100FC0009FFC00B3464900200DF0F6F84A4B5A79D1
:100FD0004D4900200DF0F0F83B4900200DF0ECF8F1
:100FE000FFF782FE3E4900200DF0E6F82246474911
:100FF00000200DF0E1F8344900200DF0DDF8FFF796
:1010000073FEFFF771FE314D294600200DF0D4F834
:101010003F4900200DF0D0F82B4C214600200DF068
:10102000CBF809F0DFF9294600200DF0C5F8394961
:1010300000200DF0C1F8214600200DF0BDF82E482B
:101040000CF0BCF868B1264900200DF0B5F8324923
:1010500000200DF0B1F8214600200DF0ADF8FFF7AB
:1010600043FE1A4D294600200DF0A6F82B4900201A
:101070000DF0A2F8144C214600200DF09DF80AF066
:1010800067FE294600200DF097F8254900200DF055
:1010900093F8214600200DF08FF8294600200DF02E
:1010A0008BF8204900200DF087F8214600200DF034
:1010B00083F802F0CDFCFFF7FFFD0AF0A5FEF8E78C
:1010C0007CF9000884F900082CF70008F8F60008FD
:1010D0008CF9000898F90008ACF90008B8F9000884
:1010E0005CF80008D4F9000810FA000820FA00089B
:1010F0002CFA0008480000204000002038FA0008C0
:101100009C40022044FA000880FA000860FA0008B7
:10111000A0FA0008B0FA0008C0FA0008D8FA0008DF
:10112000E8FA000804FB00082DE9F0418AB0002429
:10113000059406940794089409940094414B1A6B03
:1011400042F010021A631A6B02F010020092009A29
:1011500001941A6B42F080021A631A6B02F080024B
:101160000192019A02941A6B42F004021A631A6BFC
:1011700002F004020292029A03941A6B42F00102F6
:101180001A631A6B02F001020392039A04941A6B19
:1011900042F002021A631B6B03F002030493049BE8
:1011A000294E22461221304601F01FF8274F2246D1
:1011B0004D21384601F019F8DFF8948022460121CC
:1011C000404601F012F801221146304601F00DF8B8
:1011D000082305934FF488130693079405A9304616
:1011E00000F05EFE132305930125069507940894ED
:1011F00005A9304600F054FE0D230593069507948B
:10120000089405A9384600F04BFE0595069507940D
:10121000089405A9404600F043FE40230593069537
:101220000794089505A9384600F03AFE2246214663
:10123000092001F001F8092001F032F80AB0BDE8F8
:10124000F08100BF00380240001002400008024058
:101250000000024008B50E480E4B03604FF4827345
:10126000436000238360C3600361012242614FF445
:10127000007282612022C2610362436283620A2398
:10128000C36201F0D5FD00B908BDFFF72DFDFBE7F6
:1012900034F501200034014000B589B000230393E8
:1012A00004930593069307930268154B9A4202D064
:1012B00009B05DF804FB0022019203F58233596CFA
:1012C00041F400515964596C01F4005101910199A4
:1012D0000292196B41F0100119631B6B03F01003AC
:1012E0000293029B64230393022304930592032336
:1012F00006930523079303A9024800F0D1FDD7E721
:10130000003401400010024008B50268064B9A42C2
:1013100000D008BD054A536C23F400535364642184
:10132000034800F0B5FEF4E7003401400038024005
:10133000001002400268094B9A4200D0704782B008
:1013400000230193064B1A6C42F002021A641B6CD4
:1013500003F002030193019B02B0704700040040B8
:101360000038024000B587B0002301930293039335
:10137000049305930268104B9A4202D007B05DF8BF
:1013800004FB0021009103F50D331A6B42F00102BA
:101390001A631B6B03F001030093009B402301932E
:1013A00002230293039103220492059301A90348A7
:1013B00000F076FDE2E700BF0004004000000240BC
:1013C00000B58BB000230893099301930293039314
:1013D00004930593069307931748184A02604360E5
:1013E00083604FF6FF72C2600361836101F0C0FF4A
:1013F000C8B900230893099308A90F4802F08AF896
:10140000A0B9602301930523029300220392059261
:1014100001A9094802F010F858B90748FFF7A2FFE0
:101420000BB05DF804FBFFF75FFCE2E7FFF75CFC45
:10143000E7E7FFF759FCF0E78CF5012000040040D6
:10144000FEE7FEE7FEE7FEE7FEE7704770477047FE
:1014500008B500F09BFF08BD08B5082000F0CCFEE1
:1014600008BD000082B0002100910B4B5A6C42F481
:1014700080425A645A6C02F480420092009A0191B0
:101480001A6C42F080521A641B6C03F08053019373
:10149000019B02B0704700BF00380240002800F0F6
:1014A000DF8170B582B00446036813F0010F3BD0B2
:1014B000A64B9B6803F00C03042B2CD0A34B9B681A
:1014C00003F00C03082B21D06368B3F5803F4FD0A5
:1014D000B3F5A02F52D09D4B1A6822F480321A60C7
:1014E0001A6822F480221A606368002B50D000F042
:1014F00059FF0546954B1B6813F4003F14D100F0CB
:1015000051FF401B6428F5D90320B0E18F4B5B6885
:1015100013F4800FD8D08D4B1B6813F4003F03D019
:101520006368002B00F09E81236813F0020F54D0F3
:10153000864B9B6813F00C0F3ED0844B9B6803F0E6
:101540000C03082B33D0E368002B67D0804B0122BB
:101550001A6000F027FF05467C4B1B6813F0020F52
:1015600053D100F01FFF401B0228F5D903207EE174
:10157000764A136843F480331360B5E7734B1A68F7
:1015800042F480221A601A6842F480321A60ABE793
:1015900000F008FF05466D4B1B6813F4003FC3D0F5
:1015A00000F000FF401B6428F5D903205FE1674B82
:1015B0005B6813F4800FC6D1644B1B6813F0020FF5
:1015C00003D0E368012B40F04F81604A136823F099
:1015D000F803216943EAC1031360236813F0080F7D
:1015E00040D0636963B35B4B01221A6000F0DAFEFE
:1015F0000546564B5B6F13F0020F33D100F0D2FE5D
:10160000401B0228F5D9032031E1504A136823F02A
:10161000F803216943EAC1031360DEE74C4B002263
:101620001A6000F0BFFE0546484B1B6813F0020F1E
:10163000D3D000F0B7FE401B0228F5D9032016E1F5
:10164000444B00221A6000F0ADFE05463F4B5B6F35
:1016500013F0020F06D000F0A5FE401B0228F5D9BA
:10166000032004E1236813F0040F78D0374B1B6C80
:1016700013F0805F0DD100230193344B1A6C42F0BC
:1016800080521A641B6C03F080530193019B012567
:1016900000E00025304B1B6813F4807F21D0A36845
:1016A000012B32D0052B36D0284B1A6F22F00102C5
:1016B0001A671A6F22F004021A67A368002B34D04D
:1016C00000F070FE0646214B1B6F13F0020F45D150
:1016D00000F068FE801B41F288339842F3D9032062
:1016E000C5E01D4A136843F48073136000F05AFE8E
:1016F0000646194B1B6813F4807FD0D100F052FED0
:10170000801B0228F5D90320B1E0104A136F43F083
:1017100001031367D1E70D4B1A6F42F004021A67F9
:101720001A6F42F001021A67C7E700F03BFE064657
:10173000064B1B6F13F0020F10D000F033FE801B1E
:1017400041F288339842F3D9032090E000380240F8
:1017500000004742800E474200700040EDB9A36987
:10176000002B00F08380494A926802F00C02082A9C
:1017700051D0022B17D0464B00221A6000F012FE07
:101780000446424B1B6813F0007F42D000F00AFE73
:10179000001B0228F5D9032069E03C4A136C23F0B2
:1017A00080531364DBE73A4B00221A6000F0FAFD25
:1017B0000546364B1B6813F0007F06D000F0F2FDA3
:1017C000401B0228F5D9032051E0E369226A134344
:1017D000626A43EA8213A26A5208013A43EA024368
:1017E000E26A43EA0263294A5360294B01221A60E4
:1017F00000F0D8FD0446254B1B6813F0007F06D18E
:1018000000F0D0FD001B0228F5D903202FE00020B6
:101810002DE000202BE0012B2BD01C4B5B6803F448
:101820008001E269914226D103F03F02216A8A4297
:1018300023D1616A47F6C0721A40B2EB811F1ED1F4
:1018400003F44031A26A5208013AB1EB024F18D1B9
:1018500003F07063E26AB3EB026F14D1002006E07C
:1018600001207047012002E0012000E0002002B0CA
:1018700070BD0120FBE70120F9E70120F7E7012017
:10188000F5E70120F3E70120F1E700BF003802404F
:1018900060004742F8B5244B9B6803F00C03042B0F
:1018A0003DD0082B3DD1204B5A6802F03F025B68C7
:1018B00013F4800F12D01C4B5968C1F38811002318
:1018C0001A48A1FB0001FEF733FD174B5B68C3F319
:1018D000014301335B00B0FBF3F023E0124B5B6884
:1018E000C3F388135C010025E41A65F10005AE011D
:1018F00046EA9466A701381B66EB0501CC0044EA72
:101900005074C500E81844F100018B0243EA90537B
:101910008402204619460023FEF70AFDD5E7034856
:1019200000E00348F8BD00BF0038024040787D0168
:101930000024F400002800F09B8070B50D4604469A
:101940004F4B1B6803F00F038B4208D2CBB24C4ABB
:101950001370136803F00F038B4240F08B802368F1
:1019600013F0020F17D013F0040F04D0454A936808
:1019700043F4E0539360236813F0080F04D0414A06
:10198000936843F4604393603E4A936823F0F00306
:10199000A1680B439360236813F0010F32D0636892
:1019A000012B21D09A1E012A25D9364A126812F03D
:1019B000020F61D033498A6822F0030213438B601F
:1019C00000F0F0FC06462F4B9B6803F00C036268A6
:1019D000B3EB820F16D000F0E5FC801B41F2883398
:1019E0009842F0D9032042E0264A126812F4003FE0
:1019F000E0D101203BE0234A126812F0007FD9D1E8
:101A0000012034E01E4B1B6803F00F03AB4207D9E3
:101A1000EAB21B4B1A701B6803F00F03AB422DD1C7
:101A2000236813F0040F06D0164A936823F4E0539A
:101A3000E1680B439360236813F0080F07D0114A45
:101A4000936823F46043216943EAC1039360FFF77D
:101A500021FF0C4B9B68C3F303130B4AD35CD840A4
:101A60000A4B18600A4B186800F050FC002070BD4B
:101A7000012070470120FAE70120F8E70120F6E78E
:101A8000003C02400038024014FB000828000020FF
:101A900024000020014B1868704700BF2800002078
:101AA00010B40A490C6924F440740C610C6944F4C4
:101AB00040740C610C6944F001040C610260BFF3D6
:101AC0006F8F43605DF8044B704700BF003C0240DD
:101AD000074B1A6922F440721A611A6942F40072C3
:101AE0001A611A6942F001021A610160704700BF71
:101AF000003C0240074B1A6922F440721A611A69CD
:101B000042F480721A611A6942F001021A6101807E
:101B1000704700BF003C0240064B1A6922F4407235
:101B20001A611A691A611A6942F001021A61017098
:101B3000704700BF003C0240274BDB6813F0100FDA
:101B400007D0264AD36943F01003D361224B1022F9
:101B5000DA60214BDB6813F0200F07D01F4AD369EE
:101B600043F00803D3611C4B2022DA601A4BDB6878
:101B700013F0400F07D0194AD36943F00403D3612F
:101B8000154B4022DA60144BDB6813F0800F07D04E
:101B9000124AD36943F00203D3610F4B8022DA600B
:101BA0000D4BDB6813F4807F08D00C4AD36943F0F7
:101BB0000103D361084B4FF48072DA60064BDB6897
:101BC00013F0020F07D0054AD36943F02003D36115
:101BD000014B0222DA607047003C02400000002006
:101BE000094B1B69002B01DB00207047064B074A9D
:101BF0005A6002F188325A601B69002B01DB002019
:101C000070470120704700BF003C02402301674538
:101C1000034A136943F0004313610020704700BF7B
:101C2000003C024038B50446144B0022DA6100F053
:101C3000B9FB0546124BDB6813F4803F0AD0B4F1C0
:101C4000FF3FF7D024B100F0ADFB401BA042F1D91B
:101C500003200DE00A4BDB6813F0010F02D0084BA4
:101C60000122DA60064BDB6813F4F97F01D1002012
:101C700038BDFFF761FF0120FAE700BF0000002038
:101C8000003C0240F8B516461B4A127E012A30D0AD
:101C900004460D461F46184B01221A764CF250306E
:101CA000FFF7C0FF90B9ACB1012C18D0022C1BD0AB
:101CB00032463B462846FFF7F3FE4CF25030FFF722
:101CC000B1FF0E4A136923F0010313610A4B00228E
:101CD0001A76F8BDF1B22846FFF71EFFEDE7B1B264
:101CE0002846FFF707FFE8E731462846FFF7F0FEF2
:101CF000E3E70220EDE700BF00000020003C0240C7
:101D0000114A136923F44073136103290ED001298A
:101D100013D00D4A136943F4004313610A4A13694F
:101D200043EA002040F4803010617047136943F4A7
:101D3000004343F004031361F0E7034A136943F0DF
:101D400004031361EAE700BF003C024010B449B14C
:101D5000012924D0022902D04FF4407403E04FF44B
:101D6000007400E000240B2800D904300D4B1969E1
:101D700021F4407119611A6922431A611A6922F02B
:101D8000F8021A611A6942EAC00040F002001861C4
:101D90001A6942F480321A615DF8044B70474FF4BF
:101DA0008074E0E7003C0240164B1B6813F4007F90
:101DB00010D0144B1A6822F400721A601A6842F4A8
:101DC00000621A601A6822F400621A601A6842F40B
:101DD00000721A600B4B1B6813F4806F10D0094B14
:101DE0001A6822F480621A601A6842F480521A60FB
:101DF0001A6822F480521A601A6842F480621A60EB
:101E0000704700BF003C0240F8B5234B1B7E012BFE
:101E100040D004460E46204B01221A764CF2503038
:101E2000FFF700FF074680BB4FF0FF3333602368A6
:101E3000012B16D0A568E368A2681344AB4222D9EF
:101E4000217C2846FFF782FF4CF25030FFF7EAFE74
:101E5000124A136923F0FA031361074690B901355A
:101E6000E9E76168207CFFF74BFF4CF25030FFF749
:101E7000D9FE0746094A136923F4004323F00403FB
:101E8000136100E03560FFF78FFF034B00221A76E5
:101E90003846F8BD0227FBE700000020003C024066
:101EA00000230F2B00F2EA80F0B482B05EE0866877
:101EB0005F000324BC4026EA0406CC68BC403443DF
:101EC0008460466826EA02064C68C4F300129A4011
:101ED0003243426058E0DC08083450F8247003F0C4
:101EE000070296000F22B24027EA02070A69B240B1
:101EF0003A4340F824205BE0092200E00022B2408F
:101F00003A4302345E4E46F824205E4A9468EA431F
:101F100024EA05064F6817F4801F01D045EA04063D
:101F2000584CA660E46802EA04064F6817F4001FE4
:101F300001D045EA0406534CE660646802EA0406F0
:101F40004F6817F4003F01D045EA04064D4C666027
:101F5000246822404E6816F4803F01D045EA04020E
:101F6000484C226001330F2B00F2858001229A40F9
:101F70000C6804EA020532EA0404F3D14C6804F068
:101F80000304013C012C92D94A6802F00302032A9F
:101F900009D0C4685E000322B24024EA02048A68C1
:101FA000B2402243C2604A6802F00302022A92D081
:101FB00004685E000322B24024EA02044A6802F088
:101FC0000302B240224302604A6812F4403FC9D083
:101FD000002201922C4A546C44F480445464526CA4
:101FE00002F480420192019A9C08A61C244A52F8ED
:101FF000267003F0030296000F22B24027EA020780
:10200000224A90423FF47AAF02F58062904222D099
:1020100002F58062904220D002F5806290421ED08C
:1020200002F5806290421CD002F5806290421AD084
:1020300002F58062904218D002F58062904216D07C
:1020400002F58062904214D002F5806290423FF423
:1020500053AF0A2253E7012251E702224FE703223E
:102060004DE704224BE7052249E7062247E707220E
:1020700045E7082243E702B0F0BC7047704700BF55
:1020800000380140003C014000380240000002409E
:1020900000230F2B00F29B80F0B52DE0092600E015
:1020A000002606FA04F4AC4275D005685C000326ED
:1020B00006FA04F425EA0405056023FA06F5083556
:1020C00050F8256003F007074FEA870C0F2707FA3F
:1020D0000CF726EA070640F82560C56825EA0405DE
:1020E000C560456825EA02024260826822EA04046B
:1020F000846001330F2B69D801229A4002EA01075C
:1021000032EA0104F5D14FEA930C0CF10205304C90
:1021100054F8255003F00304A4000F2606FA04FE29
:102120000EEA05052B4EB042BAD006F58066B042E5
:1021300021D006F58066B0421FD006F58066B04219
:102140001DD006F58066B0421BD006F58066B04211
:1021500019D006F58066B04217D006F58066B04209
:1021600015D006F58066B04213D006F58066B04201
:1021700094D00A2695E7012693E7022691E70326E5
:102180008FE704268DE705268BE7062689E70726D5
:1021900087E7082685E7104C256825EA07052560AE
:1021A000656825EA07056560E56825EA0705E560D5
:1021B000A56825EA0707A760054D0CF1020455F84C
:1021C000246026EA0E0645F824606EE7F0BD7047ED
:1021D0000038014000000240003C01400369194200
:1021E00001D001207047002070470AB1816170471B
:1021F000090481617047000008B5054B5B69034223
:1022000000D108BD024B586108F04CFCF9E700BF53
:10221000003C0140074AD36823F4E0631B041B0C15
:10222000000200F4E060034343F0BF6343F4003373
:10223000D360704700ED00E030B4174BDB68C3F3A8
:102240000223C3F10704042C28BF04241D1D062DFE
:1022500018D9033B4FF0FF3505FA04F421EA0401D5
:10226000994005FA03F322EA0303194300280BDB24
:102270000901C9B200F1604000F5614080F8001327
:1022800030BC70470023E5E700F00F000901C9B238
:10229000024B1954F4E700BF00ED00E014ED00E03C
:1022A000002807DB00F01F02400901239340024A87
:1022B00042F82030704700BF00E100E000280CDB4E
:1022C00000F01F024009012393402030034A42F8E6
:1022D0002030BFF34F8FBFF36F8F704700E100E0F6
:1022E0000138B0F1807F0AD2064B5860064AF021CF
:1022F00082F823100020986007221A60704701209E
:10230000704700BF10E000E000ED00E010B50446AB
:102310000E4B18784FF47A73B3FBF0F30C4A106845
:10232000B0FBF3F0FFF7DCFF68B90F2C01D90120F7
:102330000AE0002221464FF0FF30FFF77DFF054BFA
:102340001C60002000E0012010BD00BF2000002024
:10235000280000202400002008B50B4B1A6842F426
:1023600000721A601A6842F480621A601A6842F4B5
:1023700080721A600320FFF74DFF0F20FFF7C6FFA2
:10238000FFF770F8002008BD003C0240034A1168C6
:10239000034B1B780B441360704700BFD4F501203A
:1023A00020000020014B1868704700BFD4F50120C1
:1023B00038B50446FFF7F6FF0546B4F1FF3F02D0FB
:1023C000044B1B781C44FFF7EDFF401BA042FAD3DF
:1023D00038BD00BF200000202DE9F04182B0054645
:1023E00000230193D0F8688008F1120350F82340CD
:1023F000C66E012712E001A801F050FA019B43B319
:102400002362A3600FE06B6943F48043636015E0CF
:1024100003F1120255F82240013E9846DEB1D7B1D1
:10242000236A002BE7D0002FF8D0AB6D002BEAD148
:102430006B6943F0004343F480436360236843F0D7
:102440000043236008F10103032BE1D9A8F1030342
:10245000DEE70027E2E7EB6EB34211D008F1030399
:1024600003F00303BFF35F8F2A6903EB830302EBDF
:10247000C303296841F208028B50C5F86880EE66F4
:1024800002B0BDE8F08100005079137943EA0023DF
:1024900007480B50D07893781B0443EA00635078C8
:1024A00043EA002312781343024A8B50704700BF5F
:1024B000408002404480024070B400220BE0C668B5
:1024C000551C05EB850506EBC505DD600B5943F48E
:1024D00040030B510132032A16D8C16802EB820374
:1024E000DC0001EBC30300250D515D609D60DD60E4
:1024F000951D40F825300D5945F480150D51022ADF
:10250000DDD9C568DD60E1E700238362C168026848
:1025100041F21003D15070BC704730B4002207E084
:102520000469511C01EB810104EBC101D960013246
:10253000032A20D8046902EB8203DD0004EBC30305
:102540000021615159609960D960196259624FF058
:1025500000416151416941F480415960596821F05D
:102560000041596002F1120140F82130022AD7D906
:102570000169D960DBE70023C36503668366C36630
:1025800083650169026841F20C03D15030BC704789
:102590002DE9F041876A00EB87039B698D681C6811
:1025A000002CC0F2BD8090463C1D00EB8404E46921
:1025B000002C40F0B7802C689C605C6824F4FF54C9
:1025C00024F01F046E6834435C600C6814F0010F43
:1025D00005D01C6824F440044E6934431C600C6828
:1025E00014F0200F05D01C6824F040640E693443B9
:1025F0001C60096811F0040F03D0196841F08001D4
:102600001960196841F080511960BE464FF0000C06
:10261000012628E0196821F08041196030E000EBC4
:1026200084039B691968002931DB211D00EB8101BE
:10263000C96961BB196821F0805119600136AD6824
:1026400029689960596821F4FF5121F01F016A68D7
:10265000114359600CF1010CBFF35F8F196841F011
:1026600000411960A646A96859B3196821F00051C4
:102670001960B8F1000FCDD0196841F080411960A0
:102680000EF10104032CCAD9AEF10304C7E700EB35
:1026900087039969002204E000EB83018969013214
:1026A0001F46B2420AD2BFF35F8F0B6823F000438C
:1026B0000B607B1C032BEFD9FB1EEDE70220BDE86E
:1026C000F081B8F1000F26D01A6842F080421A60FB
:1026D0001A6842F000521A6000EB8707BA69BFF32C
:1026E0005F8F136843F000431360C26B0EF1040365
:1026F00000EB8303DA61C0F828E0EFF310820123D6
:1027000083F31088036C9C440CF10103036482F38F
:1027100010880020D3E71A6822F080421A60D7E7B9
:102720000220CCE70220CAE770B505460C460268D5
:1027300013683C491940A37B5B06207C002861D1CB
:102740004FF400000343607C00285DD14FF480000B
:102750000343A0680343E07F43EA00436069034307
:10276000A07F002852D14FF400500343207F43EA5A
:102770000033A0690343207943EA802394F82000C2
:10278000002845D14FF400700343E07B43EAC013B7
:10279000606A034394F8280043EA00130B43136074
:1027A0002B681E680120FFF703FE2B681E60296856
:1027B0008A6922F0BE021204120CA36C1B0494F866
:1027C0004C0038BB80200343206D034394F8550030
:1027D000012821D00020034394F8560001281DD081
:1027E0000020034394F85400012819D0002003432B
:1027F00013438B612B689C690120FFF7D9FD2B687F
:102800009C6170BD00209DE70020A1E70020ACE79F
:102810000020B9E70020D6E70820DCE70420E0E745
:102820000220E4E70F8120FDF8B505460C4602685A
:1028300041F21803D35829491940237B002B49D171
:102840004FF08063607B43EA4063607F002843D1A0
:102850004FF480100343A07B43EA40536069034375
:10286000207F43EAC013A07F43EA8013206A03431A
:1028700094F8240043EA80030B4341F21806935175
:102880002B689F590120FFF793FD2B689F512279F8
:10289000A36843EA4263A26913432269134394F88D
:1028A000252043EAC213A26A43EA82032268134343
:1028B0002A6843F4000302F5805213602B6803F585
:1028C00080531C680120FFF773FD2B6803F58053CC
:1028D0001C60F8BD0023B5E70020BBE7233FDEF80E
:1028E00070B5A4B0064601258DF83C508DF83D50DA
:1028F00000240D948DF84B408DF84A508DF84840D7
:102900008DF83A508DF830508DF84C408DF83B40A2
:1029100014948DF854401D948DF878401F948DF8D0
:1029200082408DF880404FF4804310934FF4006351
:1029300011938DF881400BA9FFF7F6FE8DF80C502E
:102940008DF80D508DF81D508DF80E5005948DF8B2
:102950001C408DF81E4008948DF824508DF80450CA
:102960004FF4803302934FF4800306934FF40053E7
:1029700004938DF825500A94009469463046FFF779
:1029800053FF24B070BD30B583B0044600230193DB
:10299000026841F21805535943F4801353510368F8
:1029A0005B5901930120FFF703FD2368019A5A51F7
:1029B00003B030BD7047000000286CD030B583B044
:1029C0000446D0F88430002B34D000230193334BDD
:1029D0005A6C42F480425A645B6C03F48043019366
:1029E000019B2F4B5A6822F400025A605A68A16872
:1029F0000A435A605B68236803F580531A6842F003
:102A000001021A60FFF7CEFC0546236803F58053E8
:102A10001B6813F0010F13D0FFF7C4FC401BB0F587
:102A2000FA7FF2D90423C4F88830E023C4F8843054
:102A300001202EE02023C0F88430FFF7BBFFC4E75D
:102A40002046FFF74DFF2046FFF736FD2046FFF7F3
:102A500064FD626800212046FFF716FD2268D36BF3
:102A600043F40273D3632268D2F80C3143F4003389
:102A700043F06003C2F80C312268D2F8103143F4FD
:102A80000313C2F810310020C4F888001023C4F8E2
:102A9000843003B030BD0120704700BF00380240D1
:102AA0000038014038B5D0F88430102B01D0012017
:102AB00038BD04462023C0F884300423C366FFF7E2
:102AC0008BFC2268136843F00803136023681D68B9
:102AD0000120FFF76DFC23681D602268136843F036
:102AE0000403136023681D680120FFF761FC23685D
:102AF0001D602046FFF747FF216841F21803CA58BE
:102B000042F40052CA502168CA5842F00202CA5028
:102B10004023C4F884300020CAE7F8B5044631B138
:102B20001546D4F88430402B09D00120F8BDD0F8E8
:102B3000883043F00103C0F888300120F6E7002216
:102B40002046FFF725FD002835D1BFF34F8FA36A3C
:102B50009A1D54F822600133A362032B01D9043B70
:102B6000A362A36A2268063354F8231041F20403D7
:102B7000D150FFF717FC07463368002B30DA236883
:102B800041F214029A5812F4005F1CD1B5F1FF3FD4
:102B9000F2D0FFF707FCC01BA84201D8002DEBD1F3
:102BA000D4F8883043F00403C4F888304FF0405321
:102BB00033600120BAE7D4F8883043F00203C4F848
:102BC00088300120B2E7D4F8882042F00802C4F827
:102BD000882041F214029B58C4F88C300120A5E7EC
:102BE0000020A3E72DE9F84F044681B18A46D0F8CA
:102BF0008430402B6CD1C76D07F1120350F823507D
:102C0000C36EC3F104094FF00008464634E0D0F823
:102C1000883043F00103C0F88830012059E02B6868
:102C200013F4007F02D00023236663662B68C3F38E
:102C30000D4B2B6813F4807F03D02B6823674FF074
:102C40000108AA682A625B4604F1800104F17C0055
:102C500000F04AFE236E01332366636E5B446366B5
:102C600000232B627B1C032B00D9FB1E03F11202F5
:102C700054F8225001361F462B68002B14DB4E45BA
:102C800012D2B8F1000F0FD12B6813F4807F03D05C
:102C9000EB69A367AB6963672B6813F4007FBED150
:102CA000E36F002BBBD1DDE7E36E1E44E6662EB971
:102CB000E765B8F1000F05D101200AE02046FFF7D3
:102CC0008BFBF5E7E36FCAF800300020E06700E017
:102CD0000120BDE8F88F00002DE9F04782B00546DD
:102CE000884617461E46FFF75DFB0A9B1B1A03EB3F
:102CF0000609FFF757FB82462A4B1B68C3F3CB3309
:102D000009FB03F301932B689C6838EA04030CBFAA
:102D100001240024BC4240D0B6F1FF3FF3D0FFF7BE
:102D200041FBA0EB0A00484506D2B9F1000F03D0E1
:102D3000019B73BB9946E6E72A68536823F0E003DA
:102D400053606B68B3F5827F0BD0AB6AB3F5005F5D
:102D500014D0012385F85130002385F8503003202A
:102D60001CE0AB68B3F5004F02D0B3F5806FECD137
:102D70002A68136823F040031360E6E72A681368A3
:102D800023F4005313602A68136843F4005313605C
:102D9000DFE7019B013B0193B5E7002002B0BDE8EE
:102DA000F08700BF2800002070B584B004460D46AF
:102DB000164600920B4601220221FFF78DFFE0B973
:102DC0000146194B1B68194AA2FB03235B0D4FF404
:102DD0007A7202FB03F303936368B3F5827F12D028
:102DE000039B3BB1039B013B039323689B6813F058
:102DF000800FF5D1084604B070BD636D43F0200329
:102E000063650321F6E700962B46002280212046C9
:102E1000FFF762FF01460028ECD0636D43F020030A
:102E200063650321E6E700BF28000020819F5E164E
:102E300000285AD010B50446436A33B94368B3F545
:102E4000827F05D00023C36102E000230361436158
:102E50000023A36294F85130002B40D0022384F861
:102E600051302268136823F040031360636803F451
:102E70008273A26802F404421343E26802F400621F
:102E80001343226902F002021343626902F0010255
:102E90001343A26902F400721343E26902F038029C
:102EA0001343226A02F080021343A26A02F4005222
:102EB000216813430B60638B03F00403626A02F022
:102EC0001002216813434B602268D36923F4006326
:102ED000D36100206065012384F8513010BD84F86F
:102EE00050302046FEF7D8F9B8E70120704790B17E
:102EF00010B50446022380F851300268136823F0AD
:102F000040031360FEF700FA0020606584F851006A
:102F100084F8500010BD012070472DE9F04383B0C4
:102F20000446884691461F460A9DFFF73BFA06462F
:102F300094F85130DBB26268012B0AD0B2F5827F7F
:102F400040F00581A268002A40F00581042B40F082
:102F50000481B8F1000F00F00281B9F1000F00F018
:102F60000081002F00F0FF8094F85030012B00F01A
:102F7000FC80012384F8503094F85130DBB2042BEC
:102F800002D0052384F8513000236365C4F83890DB
:102F9000E787A787C4F83080E786A7862364636441
:102FA00023681A6812F0400F03D11A6842F04002F9
:102FB0001A60E368B3F5006F11D063680BB1012F9D
:102FC0000BD1226B236812781A73236B01332363AE
:102FD000E38E9BB2013B9BB2E386012771E06368FD
:102FE0000BB1012F0BD1226B23681288DA60236B9F
:102FF00002332363E38E9BB2013B9BB2E38601273E
:103000001BE023689A6812F0010F0ED0E28F92B293
:103010005AB1DA68A36B1A80A36B0233A363E38F00
:103020009BB2013B9BB2E3870127FFF7BBF9801BF3
:10303000A84202D3B5F1FF3F1ED1E38E9BB21BB96C
:10304000E38F9BB2002B62D023689A6812F0020FC4
:10305000D7D0E28E92B2002AD3D0002FD1D0226BEB
:103060001288DA60236B02332363E38E9BB2013B49
:103070009BB2E3860027C4E7012384F85130002384
:1030800084F85030032063E023689A6812F0010F3F
:103090000ED0E28F92B25AB1DA68A36B1A70A36BAA
:1030A0000133A363E38F9BB2013B9BB2E38701270C
:1030B000FFF778F9831BAB4202D3B5F1FF3F1ED176
:1030C000EDB1E38E9BB213B9E38F9BB2FBB12368E2
:1030D0009A6812F0020FD7D0E28E92B2002AD3D0B3
:1030E000002FD1D0226B12781A73236B0133236324
:1030F000E38E9BB2013B9BB2E3860027C4E701232A
:1031000084F85130002384F85030032020E0324608
:1031100029462046FFF748FE90B9A36833B90193CA
:103120002368DA6801929B680193019B012384F86C
:103130005130002384F85030636D4BB1012007E01B
:1031400020236365002384F85030012000E0022032
:1031500003B0BDE8F0830220FAE70220F8E701207F
:10316000F6E70120F4E70120F2E70220F0E790F80B
:1031700051007047406D704730B4056A026A22F012
:10318000010202624268846924F073040B681C43E4
:1031900025F002058B682B43104DA84203D005F59E
:1031A0008065A84205D123F00803CD682B4323F0A6
:1031B00004030A4DA84203D005F58065A84205D155
:1031C00022F440724D6915438A692A434260846142
:1031D0004A684263036230BC704700BF0000014090
:1031E00030B4036A026A22F4807202624268C469DF
:1031F00024F073040D682C4323F400738D6843EAB4
:103200000523124DA84203D005F58065A84206D1DA
:1032100023F40063CD6843EA052323F480630B4D58
:10322000A84203D005F58065A84207D122F4405298
:103230004D6942EA05128D6942EA05124260C46195
:103240004A68C263036230BC704700BF000001409F
:1032500030B4036A026A22F4805202624468C2698E
:1032600022F4E6420D6842EA052223F400538D68F9
:1032700043EA0533094DA84203D005F58065A8420D
:1032800004D124F480444D6944EA85144460C26149
:103290004A680264036230BC704700BF000001400E
:1032A0000368324A904212D0B0F1804F0FD0A2F59D
:1032B0007C4290420BD002F58062904207D002F52A
:1032C0008062904203D002F57842904203D123F00D
:1032D00070034A681343254A90422AD0B0F1804FC8
:1032E00027D0A2F57C42904223D002F58062904222
:1032F0001FD002F5806290421BD002F578429042C6
:1033000017D002F57052904213D002F580629042BD
:103310000FD002F5806290420BD0A2F59832904215
:1033200007D002F58062904203D002F5806290429D
:1033300003D123F44073CA68134323F080034A691E
:1033400013438A68C2620A688262084A904203D0C4
:1033500002F58062904201D10A690263026842F07C
:1033600004020260012242610360704700000140D4
:1033700040B310B5044690F83D30F3B1022384F811
:103380003D30214651F8040BFFF78AFF012384F8F2
:10339000463084F83E3084F83F3084F8403084F87A
:1033A000413084F8423084F8433084F8443084F863
:1033B000453084F83D30002010BD80F83C30FDF7EA
:1033C000B9FFDBE70120704730B4036A026A22F0DC
:1033D000100202624468826922F4E6420D6842EA01
:1033E000052223F020038D6843EA0513114DA842FE
:1033F00003D005F58065A84206D123F08003CD688F
:1034000043EA051323F040030A4DA84203D005F513
:103410008065A84207D124F440644D6944EA8504DC
:103420008D6944EA8504446082614A68826303626C
:1034300030BC70470000014038B590F83C30012B9B
:1034400066D004460D46012380F83C300C2A5AD839
:10345000DFE802F0075959591B5959593059595940
:1034600044000068FFF788FE2268936943F0080370
:1034700093612268936923F004039361226893693E
:1034800029690B43936100203EE00068FFF79CFF31
:103490002268936943F4006393612268936923F47B
:1034A0008063936122689369296943EA01239361E8
:1034B000002029E00068FFF793FE2268D36943F0FB
:1034C0000803D3612268D36923F00403D36122681F
:1034D000D36929690B43D361002015E00068FFF729
:1034E000B7FE2268D36943F40063D3612268D369CD
:1034F00023F48063D3612268D369296943EA0123F5
:10350000D361002000E00120002384F83C3038BD66
:103510000220FCE790F83C30012B3BD030B4012373
:1035200080F83C30022380F83D3003685C689D6879
:1035300024F070040A6822435A600368164A9342D2
:103540001AD0B3F1804F17D0A2F57C42934213D02A
:1035500002F5806293420FD002F5806293420BD055
:1035600002F57842934207D002F57052934203D09D
:10357000A2F59432934204D125F080054A681543A0
:103580009D60012380F83D30002380F83C301846D0
:1035900030BC70470220704700000140034AD2F857
:1035A000883043F47003C2F88830704700ED00E0C3
:1035B00010B403460C4A0D490D48006850B10C4840
:1035C00000680344521A934208D8094A13605DF810
:1035D000044B70470648074C0460F0E7064B0C228A
:1035E0001A604FF0FF30F2E70000032000040000F3
:1035F000E4000020B0C402209CC4022001207047D7
:10360000024B16221A604FF0FF3070479CC4022014
:1036100008B54FF0FF31FFF7F3FFFEE770B50C463A
:1036200016460025B54207DAAFF30080214601F8BF
:10363000010B01350C46F5E7304670BD70B50C4600
:1036400016460025B54205DA14F8010BAFF30080E9
:103650000135F7E7304670BD4FF0FF3070474FF44B
:1036600000534B60002070470120704700207047D6
:1036700000B583B000230193054B1B781BB1019863
:1036800003B05DF804FB01A90248FFF7ABFAF6E7C7
:10369000E80000209C40022010B58CB00C4630227F
:1036A000002168460AF01CFE2246002303E0116850
:1036B000F1B10133126822B3032B2ED8516803EB0A
:1036C00043000DF1300C0CEB800040F8301C5189A8
:1036D00040F82C1C002BEAD0581E03EB43010DEBE5
:1036E000810100EB40000CEB800040F8281CDEE775
:1036F00003EB43010CA800EB8101002041F8280CEA
:10370000D7E7238907494B60C1F808D04C631422DE
:103710000548FFF702FA002001E06FF00B000CB043
:1037200010BD00BF4C4102209C4002202DE9F04119
:1037300082B004462C4D2D4B2B6000268DF8006086
:1037400080238DF80130E1238DF802308DF803607D
:103750008DF804608DF80560C5F804D04FF40003BF
:10376000AB60234BEB60234B2B614FF4C0636B6169
:103770002846FFF721F90746DFF8808034223146DA
:1037800040460AF0ADFD212348F8043C4FF44003C5
:10379000C8F81030184800F001FD062384F82C30DA
:1037A0006B681A7884F826205A7884F827209A784B
:1037B00084F82820DA7884F829201A7984F82A20D5
:1037C0005B7984F82B3040F2DC53A38494F82D30DD
:1037D00043F00A0384F82D3017B902B0BDE8F08138
:1037E000FDF782FAF9E700BF9C400220008002400A
:1037F000D8F50120FC3F022078FB00085041022050
:1038000008B50146054800F01FFD054B1B78012B4C
:1038100000D008BD024B00221A70FAE778FB0008BE
:10382000E800002038B5054603E0204600F0EAFF36
:103830005CB12846FFF71CFF04460028F8D02B692E
:10384000294698470028F3D0EFE738BD10B5044665
:1038500070B1732384F82E30742384F82F30084B12
:103860006361084BA3612046FFF760FF002010BD95
:10387000054B40F25B12054905480AF039FDE8E7BF
:10388000DD9200089936000824FB000840FB000880
:1038900050FB000808B5FEF785FD08BD10B582B0E5
:1038A00004460E4800F09EFC88B1034600F1200259
:1038B00022600B4A02614FF4C062019222680092BA
:1038C00041220021084600F035FF02B010BD054B33
:1038D00001221A7000232360F7E700BF78FB00087D
:1038E00001380008E800002030B4A2F120040025CF
:1038F00042F8205C22F8185C22F8163C02684AB1B3
:103900000A6814600C60026832B11189194411818F
:103910001268F9E70460F5E730BC704708B590F825
:103920002D3013F0040F02D000F014FE08BD00F09B
:103930002FFEFBE7F0B585B03B4FC0203870A821C3
:1039400079700123BB706422FA70384EFF22327006
:103950007270B2700024F470354D28706970AB70CD
:10396000EB7000F030F93A787B781B0443EA02638D
:10397000BA7843EA0223F9780B431A0202F47F0271
:1039800042EA0162190A01F47F410A4342EA1363E1
:1039900028490B60327873781B0443EA0263B278DB
:1039A00043EA0223F07803431A0202F47F0242EA58
:1039B0000062180A00F47F40024342EA13631E4A81
:1039C000136028786B781B0443EA0063A87843EA05
:1039D0000023ED782B43180200F47F0040EA0560D5
:1039E0001D0A05F47F45284340EA1360134B186015
:1039F00013480290134801900094134800F012FD00
:103A000078B1114C204600F09FFD1049204600F08F
:103A100003FE204600F09EFD204600F0D9FD05B0D3
:103A2000F0BDFDF761F9ECE7C8410220C441022076
:103A300084410220BC410220CC410220D04102201E
:103A40008D3A00084D380008884102201D390008D1
:103A500010B50D4C2046FFF7E5FE04F0F7FE94F894
:103A60002D3013F0040F06D0074B93F82D3013F0D0
:103A7000010F04D010BD204600F0AAFDF4E7024873
:103A800000F068FDF6E700BF8841022070B50446EB
:103A900043890E2B1CD90D46C37B1BB991F83030DE
:103AA0000133C37360688689037813F0010F0AD06D
:103AB000012B12D006221E490AF0DCFB18B9637BE9
:103AC00043F008036373082E12D0B6F5C16F1FD000
:103AD000204600F097FE002070BD4378002BF2D105
:103AE00083785E2BEFD1637B43F010036373EAE7C7
:103AF00095F82D3013F0080FEAD00E21204600F083
:103B00003BFE0028E4D12946204605F0EDFDE2E722
:103B100095F82D3013F0080FDAD00E21204600F072
:103B20002BFE0028D4D12946204605F0E7F9D2E73C
:103B3000ECFB00082DE9F04105460C4616461F46F1
:103B4000BDF8180000F02EF880460E21204600F047
:103B50000EFEE8B96168A1F80C803B680B60BB8879
:103B60008B803368C1F80630B3884B8195F82C30D0
:103B7000062B05D1AB69214628469847BDE8F08160
:103B8000054B4FF49972054905480AF0B1FBF1E77E
:103B90006FF00100F2E700BF84FB0008B8FB0008EB
:103BA00050FB0008030A43EA002080B2704703027A
:103BB00003F47F0343EA0063020A02F47F421343E3
:103BC00043EA1060704708B500F0C8F800F0FAFA50
:103BD00000F0F0FB04F0AAFE01F0B4F904F022FEBC
:103BE00008BD0000014B1B6818447047F40000201A
:103BF000024B1B68C01A80B2704700BFF40000205F
:103C0000F8B50446FFF7F4FF074625882846FFF776
:103C1000E9FF064664882046FFF7E4FFB5F5804FCC
:103C200010D8B4F5804F0FD8BC4202D00388BB42F5
:103C30000CD1094B1B68B3420AD07388BB4209D12F
:103C4000012000E00020F8BD0020FCE70020FAE79A
:103C50000120F8E70020F6E7F800002038B5044618
:103C6000354B1B68834240D8344B1B68A34244D970
:103C70002379002B49D12388B3F5804F4DD8208874
:103C8000FFF7B0FF844216D00379A3B92B4B1B6812
:103C9000834210D02A4B1B68834246D0038823807E
:103CA0000088B0F5804F06D0FFF79CFF0546204600
:103CB000FFF79EFF68806088FFF794FF0546844207
:103CC00012D0037983B91E4B1B68A34230D02388DE
:103CD0002B802088B0F5804F06D0FFF783FF044685
:103CE0002846FFF785FF608038BD164B40F2DF1293
:103CF000154916480AF0FCFAB6E7124B4FF4F07279
:103D0000134912480AF0F4FAB2E70E4B40F2E112FE
:103D100010490E480AF0ECFAADE70A4B4FF4F27284
:103D20000D490A480AF0E4FAA9E7054B1C60B5E71B
:103D3000034B1860CBE700BFF4000020F800002020
:103D4000F0000020FCFB000828FC000850FB0008E5
:103D500040FC00085CFC000878FC000838B50B4CFF
:103D600024F003040A4B1C604FF480452580002397
:103D7000638023712846FFF735FF064B1860012347
:103D8000037105804580044B1C6038BDEF41022063
:103D9000F4000020F8000020F0000020002844D0AB
:103DA00038B5044610F0030F1FD1A0F108051F4BD2
:103DB0001B68AB4221D800F10C031D4A12689342E4
:103DC0001BD810F8043C03B32846FFF719FF20B3B3
:103DD000002304F8043C174B1B68AB4201D9154B78
:103DE0001D602846FFF73AFF0EE0134B40F27322A6
:103DF000124913480AF07CFA06E00F4B40F27F228A
:103E000010490F480AF074FA38BD0B4B4FF4237277
:103E10000D490B480AF06CFAF6E7074B40F2952281
:103E20000A4907480AF064FAEEE77047F4000020F8
:103E3000F8000020F0000020FCFB0008A4FC0008B3
:103E400050FB0008C8FC0008E4FC00080CFD00085A
:103E50002DE9F8430546CC1CA4B224F00304A4B217
:103E60000B2C04D9B4F5804F02D9002599E00C241D
:103E70008C42C0F095804D4B1B68AB4203D84C4B35
:103E80001B68AB4206D84B4B40F2D1224A494B4803
:103E90000AF02EFA454B1B68AB4200F28280444B7D
:103EA0001B68AB427DD9A5F10800FFF7A1FE0646CD
:103EB00035F8088CA8EB00081FFA88F8A8F1080864
:103EC0001FFA88F8444529D844456DD869D035F89B
:103ED000087C3846FFF786FE81460379002B33D1F4
:103EE000B7F5804F22D0B9F800703444A4B208343A
:103EF000A4B2334B1B684B4520D02046FFF772FE1F
:103F0000002303710780468025F8084C0088B0F52F
:103F1000804F46D0FFF766FE448042E0254B4FF4C9
:103F20003972284925480AF0E3F9CDE7214B40F2E0
:103F3000F522254921480AF0DBF9D4E72046FFF7AE
:103F400051FE1F4B1860D8E704F11403434528D8ED
:103F50003444A4B20834A4B2B7F5804F18D0204638
:103F6000FFF740FE164B1B68834201D9144B1860C3
:103F70000023037135F8083C0380468025F8084C7F
:103F80000088B0F5804F0CD0FFF72CFE448008E08D
:103F9000084B40F216320C4908480AF0A9F9DEE74E
:103FA00000252846BDE8F8830025FAE7F400002044
:103FB000F8000020FCFB000840FD000850FB000852
:103FC000F000002058FD000878FD0008002800F0EF
:103FD0009A802DE9F0410346C61CB6B226F00306CE
:103FE000B6B20B2E04D9B6F5804F02D9002088E076
:103FF0000C269E42C0F08980454B1868FFF7F8FDFB
:1040000005464CE0434B40F28732434943480AF0AF
:104010006FF962E0012303713D4B1868A0420FD095
:10402000274408373E4B1B689F421FD814F00305F6
:1040300024D15DBB04F1080063E00088FFF7D2FDE6
:1040400003791BB1364A12688242F6D1304A1060B9
:10405000334A12688242E3D0002BE1D02D4B40F26C
:10406000B53230492D480AF043F9D9E7294B40F2DF
:10407000B9322D4929480AF03BF9D7E7254B40F2E0
:10408000BB322A4925480AF033F9D2E7214B40F2E6
:10409000BD32274921480AF02BF9CBE72588A846ED
:1040A0003746C6F580439D422AD22846FFF79AFD3F
:1040B00004460379002BF1D10388A3EB0803083BE6
:1040C000BB42EBD307F114029342A3D32E44B6B202
:1040D0000836B6B2B6F5804F94D03046FFF782FD71
:1040E00000230371238803804580268001232371E8
:1040F0000088B0F5804F8FD0FFF774FD46808BE7C6
:104100000020BDE8F081002070470020F9E700BFE3
:10411000F0000020FCFB000878FD000850FB0008C0
:10412000F80000208CFD0008A8FD0008D8FD00085C
:1041300008FE000810B583681C6824B122681A6064
:1041400014F0030F01D1204610BD044B4FF48C72C4
:10415000034904480AF0CCF8F5E700BF2CFE00083C
:104160005CFE000850FB000838B505460C4611F00F
:10417000030F05D1AB681B682360AB681C6038BDBA
:10418000034B4FF4B672034903480AF0B1F8F1E764
:104190002CFE000880FE000850FB00088368002207
:1041A0001A604368033323F003034188914208DD1A
:1041B00081680968196081680B6001880B440132CD
:1041C000F3E7704710B5002406E0054B53F82400D0
:1041D000FFF7E4FF0134A4B2082CF6D910BD00BFEC
:1041E0005CFF000810B5044620B15CB12046FFF723
:1041F000A1FF10BD044B4FF49E72044904480AF01D
:1042000077F8F2E72046F4E72CFE0008A0FE00084D
:1042100050FB000808B5082805D8074B53F82000C4
:10422000FFF788FF08BD054B40F2571204490548C7
:104230000AF05EF80020F5E75CFF00082CFE00089D
:10424000B4FE000850FB000838B50C46054630B1F6
:1042500025B11CB121462846FFF786FF38BD044B27
:1042600040F29512034904480AF042F8F0E700BF13
:104270002CFE0008A0FE000850FB000808B5082826
:1042800006D821B1064B53F82000FFF76DFF08BD9B
:10429000044B4FF4D572044904480AF029F8F6E7B4
:1042A0005CFF00082CFE0008D4FE000850FB00084C
:1042B0000B688268934205D011B18360012070477A
:1042C0000023FAE7002070470B68C268934205D0CC
:1042D00011B1C360012070470023FAE70020704746
:1042E0006FF00B00704738B504460D4601F0F2FD43
:1042F0002946204604F0E8FB38BD000038B50C46DE
:10430000054670B195F82D3003F00502052A07D156
:1043100014F0010F04D06A6812B113F0080F08D12D
:1043200038BD064B40F26D320549064809F0E0FF02
:10433000E8E7291D284604F03DFEF1E780FF00086C
:10434000B0FF000850FB000870B582B00446154667
:104350000E4639B175B1326863689A4212D10020B5
:1043600002B070BD104B40F2CB121049104809F05A
:10437000BFFFEFE70C4B4FF4E6720C490C4809F015
:10438000B7FFE8E701922B6001A92846FFF7ABFFD2
:104390003EB13368636001212046FFF7AFFF012083
:1043A000DEE70023F6E700BF80FF0008D4FF000827
:1043B00050FB0008704700002DE9F04182B0044630
:1043C00016461D460F46D9B1E6B1EDB10FB13B68B7
:1043D000E3B901AA39462046FFF7B6FF4FF00108BE
:1043E000002231462046FFF763FF0022294620467F
:1043F000FFF76AFFB8F1000F0BD002B0BDE8F08103
:10440000074FE1E7064EE0E7054DDFE74FF0000814
:10441000E6E701AA39462046FFF796FFEDE700BF21
:104420007019010870B5059C064610B3002C29D000
:10443000002930D0002A30D0002B30D0002070600E
:10444000B060F060364D7561B08486F82D00F06183
:10445000049830623348007886F83000069830615E
:104460003046FFF7A9FF3046A04700283ED0002085
:1044700050E02D4B40F227122C492D4809F038FF0F
:10448000304647E0284B4FF494722A49284809F0F7
:104490002FFF00203EE02849CCE7274ACCE7264BF7
:1044A000CCE7002386F8303024E01F4B40F28B121B
:1044B00022491F4809F01CFF10E01B4B40F28D12EF
:1044C0001F491B4809F014FF94F8302096F830304B
:1044D0009A4207D0246844B1B442E6D00135FF2D9A
:1044E000F2DDEAE7013386F830303CB196F830303F
:1044F000FF2BD6D0134B1C680025ECE796F8303024
:10450000FE2B08D00133074A13700E4B1A68326035
:104510001E60304670BD034B00221A70F5E700BFE5
:10452000E14200082001002080FF0008E4FF0008AD
:1045300050FB000800000108701901082400010860
:1045400038000108CCC30220014B1860704700BF3F
:10455000D0C3022008B528B190F82D3013F0010F18
:1045600008D008BD074B4FF454720749074809F0BB
:10457000BFFEF6E743F0010380F82D300321FFF77B
:10458000BDFEEEE780FF00086800010850FB000850
:1045900008B560B190F82D3013F0010F06D003F08C
:1045A000FE0380F82D3013F0080F08D108BD054B2D
:1045B00040F29B320449054809F09AFEF6E704F000
:1045C0007FFCF3E780FF00088400010850FB00082F
:1045D00010B530B1044690F82D3013F0040F08D018
:1045E00010BD0A4B4FF4787209490A4809F080FE61
:1045F000F6E743F0040380F82D300321FFF77EFE39
:10460000E369002BECD020469847E9E780FF0008DB
:10461000A400010850FB000800B1C1617047000010
:10462000024658B1064B186838B190F83030013363
:10463000DBB2934203D00068F6E770470020704772
:10464000CCC3022010B40024046041600281438185
:104650009DF8043003739DF808304373012383737E
:10466000C4735DF8044B704770B50C46164605469A
:10467000C0B13DB3B4F5803F26D23CB3A2B22B8982
:1046800013449BB2934223D395F90C10002911DBFC
:1046900006B369680C1B6C6069890A446A812B81C6
:1046A000002012E00C4B40F2DF120C490C4809F0DC
:1046B0001FFEDEE769680C1B05F11001A142EAD973
:1046C000012002E0012000E0012070BD0020FCE795
:1046D0000120FAE70120F8E7C8000108F800010806
:1046E00050FB0008F0B583B006460D461446412A3B
:1046F00001D0012A0FD10720FFF78CFD074638B102
:104700000023019300942B462A463146FFF79AFF77
:10471000384603B0F0BD044B4FF4A572034904487A
:1047200009F0E6FDE7E700BFC80001080401010841
:1047300050FB000870B582B00D461E460699C41C99
:1047400024F003042819BDF81C3098420DD801B19B
:10475000214434460223019300922B462A463046D8
:10476000FFF770FF204602B070BD0024FAE708B5DD
:104770000022FFF779FF08BD38B50C46054690B119
:1047800015B3B4F5803F21D214B3A2B26B89934222
:1047900011D36968214469609B1A6B812B899A1A2D
:1047A0002A81002038BD0B4B40F24B220A490B48AE
:1047B00009F09EFDE4E7074B40F2552208490748FF
:1047C00009F096FD0120EDE70120EBE70120E9E784
:1047D0000020E7E7C8000108F800010850FB0008C6
:1047E0001801010808B5002902DBFFF73DFF08BDED
:1047F0004942FFF7C1FFFAE708B50122FFF7F2FFD0
:1048000008BD000070B510B10446002517E0284B24
:104810004FF437722749284809F06AFD00252846D9
:1048200070BD234B40F2F1222449234809F060FD7A
:104830000AE02369204698470135EDB23446002C42
:10484000EDD0A37B002BECD0A37B013BDBB2A373A9
:10485000002BE4D12668237B03F00F03627B12F068
:10486000020F0AD02369002BE3D1114B40F2FF2243
:104870001349114809F03CFDDBE7022B06D0012B60
:1048800009D06BB92046FFF789FAD5E72146082001
:10489000FFF7F4FCD0E721460720FFF7EFFCCBE75A
:1048A000034B40F20F320749034809F021FDC3E7EB
:1048B000C8000108F800010850FB00083801010891
:1048C00050010108740101082DE9F04782B00E463D
:1048D000904685B2B2F5C17F46D007460ED8012A70
:1048E00002D0412A40F08380424631460020FFF743
:1048F000F9FE8146484602B0BDE8F087B2F5207F58
:1049000075D1033525F00305ADB2CA1C93B223F06F
:1049100003031D44ADB205F1100080B222F0030282
:1049200095426ED382426FD8FFF750FB8146002834
:10493000E0D007F110010144033100230193CDF8C9
:1049400000803346324621F00301FFF77BFED9F8A1
:10495000043013F0030FCDD02D4B4FF491722D493D
:104960002D4809F0C5FCC5E70027B94618E0B9F1A4
:10497000000F02D04846FFF745FFB946BAE7244B7F
:104980004FF480722549244809F0B2FCB9F1000FB8
:104990002BD0CAF80070361BB6B20025002EA9D065
:1049A000BA460820FFF736FC07460028DFD0EB1C8C
:1049B00023F003039BB2C3F5BE6304339CB2B4423D
:1049C00028BF344605F1100101440331002301934F
:1049D000CDF800802346324621F00301FFF732FE76
:1049E0007B6813F0030FD1D0C9E7B946D3E7084B72
:1049F00040F227120A49084809F07AFC4FF00009F2
:104A000078E74FF0000975E74FF0000972E700BF43
:104A1000C8000108EC01010850FB000888010108EA
:104A200018020108F8B50E460446B8B12789B74206
:104A30002ED935466389AB4218D2EB1A9DB2238931
:104A4000F21B134423812468002CF3D11A4B40F24B
:104A5000AF121A491A4809F04BFCEBE7164B4FF41A
:104A6000CC721849164809F043FCDFE7227B12F0AC
:104A70000F0F05D1AB4203D0637B13F0020F08D0B8
:104A800065812581206808B1FFF7BCFE0023236003
:104A9000F8BD63681B1BE91889B22046FFF7D8F9F7
:104AA00004460028ECD1044B40F2BD1206490448EC
:104AB00009F01EFCE4E700BFC80001084C02010831
:104AC00050FB00083402010864020108034600207C
:104AD0001BB1013080B21B68FAE7704770B108B5AE
:104AE000837B0133DBB2837303B108BD044B40F217
:104AF00042320449044809F0FBFBF6E7704700BF67
:104B0000C80001088002010850FB000838B510B148
:104B10000D46044661B9154B40F259321449154807
:104B200009F0E6FB19E02389288903442381144610
:104B30002268002AF7D1228963899A420ED123681C
:104B400033B10A4B40F263320B490A4809F0D0FBFB
:104B500023892A8913442381256038BD034B40F201
:104B600062320649034809F0C3FBE8E7C8000108C0
:104B70009402010850FB0008FC020108CC02010865
:104B80002DE9F04148B10C46054631B102890B8947
:104B90009A4202D30027B8463AE03A4B40F2C93273
:104BA00039493A4809F0A4FB6FF00F0068E0354B33
:104BB00040F2D9323649354809F09AFB3CE0314B96
:104BC00040F2DA323349314809F092FB37E02D6880
:104BD00015B14FF000083AE014B94FF0000836E084
:104BE000284B4FF479722C49284809F081FB6FF06B
:104BF0000F0045E023687BB3224B40F2E93227499E
:104C0000224809F075FB6FF0050039E0002C36D022
:104C10006E89A6EB08066389DB1B9E4200D31E4605
:104C20006868616832463944404409F031FBB04459
:104C300037446B894345BAD36389BB42BFD3638989
:104C4000BB4201D8246800276B894345BFD01CB103
:104C5000628923899A42CDD0002DD7D06A892B89C9
:104C60009A42D3D12B68002BD0D0064B40F2EE32C3
:104C70000A49064809F03CFB6FF0050000E00020FF
:104C8000BDE8F081C80001080C03010850FB0008D2
:104C90003C03010854030108700301088003010864
:104CA0002DE9F84330B188469146054669B10027A1
:104CB0003E462AE01B4B40F20A421B491B4809F0C2
:104CC00017FB00273846BDE8F883164B40F20B422D
:104CD0001749164809F00CFB0027F3E76C89E41A22
:104CE000A4B2A14500D24C4669682246194408EB9B
:104CF000060009F0CDFA2744BFB22644B6B2A9EBAC
:104D000004041FFA84F900232D68B9F1000FD9D0EB
:104D1000002DD7D0002BE1D069899942DED85B1AEB
:104D20009BB2F1E7C8000108AC03010850FB000882
:104D3000CC03010838B514460A462189FFF7C4FDA3
:104D4000054618B12146FFF71BFF08B9284638BDB4
:104D5000034B40F224520349034809F0C9FAF5E72E
:104D6000C8000108F003010850FB000810B400243B
:104D700009E0164B4FF440421A800DE00134A4B212
:104D8000B4F5804F1FD2114A138801339BB21380B0
:104D90004FF6FF729342ECD0002003280ED80C4B44
:104DA00053F820301B6833B1D98A084A12889142DF
:104DB000E4D0DB68F7E70130C0B2EEE7034B1888B8
:104DC0005DF8044B70470020FAE700BF3000002078
:104DD000100A010838B504460D4649B9074BFF22B1
:104DE0000749084809F084FA02E00023A367E46851
:104DF0001CB1A36FAB42FAD1F7E738BD0404010838
:104E00003004010850FB000838B5054620B12B7D61
:104E1000012B09D1012417E00D4B40F211120D496D
:104E20000D4809F065FAF2E7094B4FF489720B4916
:104E3000094809F05DFAEDE7094B53F8243029469B
:104E40001868FFF7C7FF0134032CF5D938BD00BF40
:104E5000040401085804010850FB00086404010818
:104E6000100A010810B50446037D012B04D0214629
:104E70000220FFF703FA10BD034BDF220349044869
:104E800009F036FAF3E700BF040401087C040108C6
:104E900050FB000838B5054648B12B7D042B1FD0C8
:104EA000072B26D0032B0AD00024204638BD174BF1
:104EB0004FF4CE721649174809F01AFAEDE7284662
:104EC00003F066F8044608B905232B75D4B1B4F194
:104ED000FF3FEAD16B8B43F008036B830024E4E7C8
:104EE000284603F055F804460028EFD105232B751A
:104EF000ECE7284603F04CF804460028E6D10923E5
:104F00002B75E3E7284603F0BBF9CEE7040401085C
:104F10005804010850FB0008094B186878B110B517
:104F200006E023F008034383FFF7B4FF20462CB1CB
:104F3000C468438B13F0080FF8D0F2E710BD704738
:104F4000D8C3022008B509F0EBF96FEA80406FEA98
:104F50009040014B188008BD3000002010B5044679
:104F6000037D012B04D021460120FFF787F910BDF6
:104F7000034BD4220349044809F0BAF9F3E700BF10
:104F8000040401089804010850FB000870B50446A9
:104F900080B1656A218D6818E26A638E40F66836D2
:104FA000B34294BFD3189319C31A002B0ADB61854F
:104FB000801A70BD0E4B40F2A6320E490E4809F021
:104FC00097F9E6E7AB1A002B03DD00236385002089
:104FD000EFE7551BB5F5803F01D26585F7E7044B38
:104FE00040F2B6320549044809F082F9F5E700BFFE
:104FF00004040108AC04010850FB0008D0040108B7
:1050000038B5C0B10C460546037D012B1BD02B8D56
:10501000191989B241F2D062914201D88B421AD952
:1050200041F2D0632B852846FFF7B0FF40F6673387
:10503000984212D838BD0D4B40F2CF320C490D4882
:1050400009F056F9F6E7094B40F2D2320A4909480D
:1050500009F04EF9DBE72985E5E76B8B43F00203A6
:105060006B83284603F00CF9E4E700BF0404010851
:10507000EC04010850FB00080405010850B110B50C
:105080000446406808B1FFF7BDFB21460320FFF747
:10509000F5F810BD704738B110B50468FFF7EEFFA2
:1050A0002046002CF9D110BD7047000008B508B1AA
:1050B000417508BD034B4FF4CE620349034809F024
:1050C00017F9F6E7040401082C05010850FB000855
:1050D00000B101617047000080B138B50C4605464B
:1050E000037D012B02D0C5F8804038BD044B40F24F
:1050F000DF720449044809F0FBF8F4E7704700BF89
:10510000040401084805010850FB000878B138B5CF
:105110000C460546037D012B01D0EC6738BD044BDE
:1051200040F2F3720349044809F0E2F8F5E77047EA
:10513000040401087005010850FB000880B138B56F
:105140000C460546037D012B02D0C5F88C4038BDC6
:10515000044B40F60D020449044809F0C9F8F4E78D
:10516000704700BF040401089805010850FB0008BF
:1051700070B548B10D4614460646037D012B0BD091
:10518000C6F88850747770BD074B40F63D0207495A
:10519000074809F0ADF8F6E7034B40F63E02054933
:1051A000034809F0A5F8EBE704040108C00501086D
:1051B00050FB0008D805010810B5C8B10446037DAE
:1051C000ABB10A2B13D0012B11D0406F18B1FFF7F0
:1051D00019FB002363674FF6FF732386E06EFFF72A
:1051E0005AFF206FFFF757FF0023E366236710BDC8
:1051F000034B40F651020349034809F079F8F6E7FA
:1052000004040108F805010850FB00082DE9F041ED
:1052100084B0AF4A136801331360AE4A1378013388
:105220001370AD4B1C68002787E1AC4B40F2BE42C7
:10523000AB49AC4809F05CF885E1A84B40F2BF42AD
:10524000A949A84809F054F881E1A44B4FF49862A9
:10525000A649A44809F04CF87DE12746E4686CE1D2
:1052600094F84230052B40F2818101256FE09B4B81
:1052700040F2D5429E499B4809F03AF88DE120461C
:1052800002F002FD60B1002384F8943094F8953068
:10529000062B00F29380013384F89530002556E008
:1052A000204602F0EDFF0028EDD100254FE0B4F9D3
:1052B00030309BB247F6FE72934201D80133238609
:1052C000B4F93020B4F940309A4240DB204602F075
:1052D00091FE20B1236F002B39D1E36EBBB3237D48
:1052E000022B14D094F842200C2A28BF0C22B4F9C7
:1052F0003C10B4F93E3003EBE1037E498A5C9340F5
:1053000047F6FE7293421EDC1BB2A4F84030002325
:105310002386B4F86030B4F84820934228BF13467F
:105320005B08A4F84A30618E4A0092B2934201D2DF
:10533000A4F84A20A4F848100023A4F868302046B6
:1053400003F0F0F803E047F6FF73DEE70125227D66
:10535000062A35D0637A13F0080604D0042A3CD01C
:10536000072A3AD00026237D032B64D0092B6BD06B
:10537000002D72D1E568237F0133DBB22377627F92
:105380009342C0F0D880002323775B4A1370D4F88F
:105390008830002B00F0C780214620699847564B83
:1053A0001B78002B7FF43DAF002800F0BE8027461D
:1053B0002C46C2E00125CAE70025C8E70025C6E75C
:1053C000638B13F0100FC5D0216A414B1B685B1A29
:1053D000282BBFD90135EDB2BCE73D4B1A68236AD3
:1053E000D21AD4F8901001F5242303F6B8434348A9
:1053F000A0FB0303B2EB531F03D90135EDB2012625
:10540000B1E794F897303E4800FB03133B49A1FBFA
:105410000313B2EB531F01D80026A4E7204603F084
:10542000B7F830B994F89730013384F897300026F4
:1054300099E7002697E7216A254A1268521A282A16
:1054400094D90135EDB291E7226A214B1B689B1A72
:10545000F02B8DD90135EDB28AE7D4F88C50204677
:10546000FFF7AAFE27B31C4B1B68A34218D0E368C2
:10547000FB60002E4AD1D4F81080E6682046FFF782
:105480006DFD1D4B00221A701DB16FF00C014046DE
:10549000A847194B1B78002B7FF4C3AE34464CE071
:1054A0000E4B40F26D5217490E4808F021FFDEE71F
:1054B000094B1B68A34206D0084B40F271521249B7
:1054C000084808F015FFE268034B1A60D1E700BFF7
:1054D000DCC3022022010020D8C3022004040108FA
:1054E0001406010850FB0008400601086C0601087C
:1054F000D0060108000A0108D4C30220D34D62106F
:10550000F82401000807010834070108231D626A16
:10551000216D208B0290E08A019000932346204663
:1055200002F02CFEA7E7002039E7204602F0A8FE93
:1055300027462C4601E027462C46002C50D0237DE0
:10554000002B3FF472AE237D012B3FF476AE237D1A
:105550000A2B3FF47AAEA27F424B1B789A423FF46B
:105560007CAEA377237D022B3FF47AAE94F84230D1
:105570000B2B3FF6EBAE94F89550002D3FF497AE11
:10558000236F33B1384B40F2D4423849384808F0E1
:10559000AFFEE36E002B3FF46AAE94F896300B2B0F
:1055A0003FF608AF94F89530013B324AD25C94F84C
:1055B0009430934202D2013384F8943094F89430BA
:1055C0009342FFF4F9AEB4F8601000297FF457AEAF
:1055D000204603F00BF800283FF455AE0025B6E650
:1055E000254B1D680EE0204B40F2A1522349204874
:1055F00008F07EFE2A6A224B1B689B1AF02B06D805
:105600002C46ED6855B32B7D0A2BF3D0EBE72846EB
:10561000FFF7D2FD9CB1184B1B68AB4207D0EB687B
:10562000E360EE682846FFF799FC3546EAE70E4B43
:1056300040F2AF5213490E4808F05AFEEFE70E4B06
:105640001B68AB4206D0084B40F2B3520E490848E3
:1056500008F04EFEEA68084B1A60E2E704B0BDE8C5
:10566000F08100BF22010020040401089C0601080B
:1056700050FB0008200A0108E8C302206007010867
:10568000DCC3022090070108B807010838B50546B9
:105690000C4649B185B12B68A34215D0CBB1DA686D
:1056A000A24214D01346F9E7214B40F68302214968
:1056B000214808F01DFEEDE71D4B40F684021F490E
:1056C0001D4808F015FEE6E7DB682B6001E0E268A4
:1056D000DA600023E3602046FFF76EFD237D0A2B8E
:1056E00005D0012B03D0638B13F0010F18D1237D5C
:1056F000012B11D0E36E33B10D4B40F693021049EC
:105700000D4808F0F5FD236F33B1094B40F69402C4
:105710000C49094808F0ECFD00232375E38238BDED
:1057200043F002036383204602F0AAFDDFE700BFD7
:1057300004040108E007010850FB0008FC07010809
:105740001C0801083408010830B585B00D46044630
:1057500080B125B1237D042B14D0072B12D0237DDB
:10576000012B6DD0022B77D0002B50D02046FFF7B5
:1057700091FB47E03E4B4FF4AF723E493E4808F084
:10578000B7FDE6E7636FE3B1638B13F0100F1ED034
:10579000231D228B0292E28A019200932346626AC1
:1057A000216D204602F0EAFC2046FFF705FD334B51
:1057B0001B68A34213D0C3B1DA68A24213D01346C8
:1057C000F9E7228D41F2D0639A42C8D0DCE7284B3A
:1057D0004FF4B2722A49284808F08AFDD8E7DA68FF
:1057E000264B1A6001E0E268DA600023E360254B93
:1057F00001221A70244B1B68A34205D02046FFF7F4
:10580000ADFB002005B030BD01F0C0FDF9E7E38A33
:105810008BB11E4B1B68A34205D053B1DA68A2427C
:1058200005D01346F9E7DA68184B1A6001E0E26820
:10583000DA600023E3602046FFF790FB0020E1E7F9
:105840002046FFF7E1FA21461148FFF71FFF2046E7
:10585000FFF708FB0020D5E721460848FFF716FFB1
:10586000084B01221A702046FFF778FB0020C9E799
:10587000040401085008010850FB0008D8C30220A6
:1058800070080108D4C30220ECC30220E4C3022044
:10589000E0C3022008B560B10346027D012A03D0AF
:1058A000428B42F01002428301211846FFF74CFF61
:1058B00008BD054B4FF4F4720449054808F018FD83
:1058C0006FF00F00F4E700BF040401088C08010822
:1058D00050FB000810B551B1144608468AB1118931
:1058E000FFF78EFB2046FEF78DFF002010BD084B12
:1058F0004FF4D3620749084808F0FAFC6FF00F0034
:10590000F4E70BB10020F1E7FFF7C4FFEEE700BFBB
:1059100004040108A408010850FB0008F8B520B3EE
:105920000446466F777B00234367D0F8805035B339
:10593000324601460069A847054645BB17F0200FCF
:105940002BD0238D41F2D062934201D001332385C5
:10595000D4F880600EB300231A4621462069B04770
:1059600010F10D0F19D1054617E00D4B40F20962F9
:105970000C490D4808F0BCFC6FF00F050DE000234A
:10598000324601461846FFF7A5FF0546D5E715F153
:105990000D0F02D066676FF004052846F8BD00BF02
:1059A00004040108C008010850FB000870B51C4A37
:1059B0001378013313701B4B1C6813E043F0020390
:1059C0006383204602F05CFC638B23F00303638354
:1059D00013E023F0080363832046FFF75BFA10E02F
:1059E000E5682C46DCB1A27F0D4B1B789A42F7D0BC
:1059F000A377638B13F0010FE0D1638B13F0080FD3
:105A0000E7D1E568636F002BEBD0074E00233370BE
:105A10002046FFF783FF3378002BE2D0CBE770BD41
:105A200022010020D8C30220D4C3022008B5FFF70A
:105A3000BDFF064A13780133DBB2137013F0010F78
:105A400000D108BDFFF7E2FBFBE700BF210100200A
:105A50002DE9F04784B0F8B10D460446037D012BD3
:105A600022D0237D0A2B27D0D4F85080D4F824905C
:105A7000D4F88C602769002B43D1B4F816A0BAF192
:105A8000000F48D02B4B1B68A3421DD013B3DA681C
:105A9000A2421DD01346F9E7274B40F23D22274989
:105AA000274808F025FC29E0234B4FF410722549C4
:105AB000234808F01DFCD4E721462348FFF7E6FD04
:105AC0002046FFF74BFA19E0DA681A4B1A6001E03A
:105AD000E268DA600025E560AA46206F08B1FFF7AA
